:020000040800F2
:100000000004002007500008552400085724000869
:100010005B2400085F24000863240008000000003F
:10002000000000000000000000000000672400083D
:1000300069240008000000006B2400086D240008FB
:1000400027500008275000082750000827500008B4
:1000500027500008275000082750000827500008A4
:10006000275000088D22000855220008275000085C
:1000700035240008275000082750000827500008A2
:100080002750000827500008275000082750000874
:10009000275000082750000827500008C5220008F4
:1000A0002750000827500008275000082750000854
:1000B000BF170008371A0008E71C0008275000087F
:1000C0002750000827500008275000082750000834
:1000D0002750000827500008275000082D2400084A
:1000E000A9230008275000082750000827500008BF
:1000F0002750000827500008275000082750000804
:100100002750000827500008DB1F00082750000870
:1001100027500008275000082750000827500008E3
:1001200027500008275000082750000827500008D3
:10013000DFF80CD004F090FF00480047F1140008ED
:10014000E00F002000B585B00121042003F044FF3A
:100150000121480703F04DFF1020ADF800000020FA
:100160008DF803006946F94803F09AFC00200190DD
:1001700002904FF4006003900020049001A904F065
:100180007EFD0121002004F097FD0021084604F0C7
:10019000F4FD05B000BD00B585B00121042003F0D9
:1001A0001BFF0121480703F024FF2020ADF80000C9
:1001B00000208DF803006946E44803F071FC00203C
:1001C000019002904FF4006003900020049001A978
:1001D000102004F054FD0121102004F06DFD0021D9
:1001E000084604F0CFFD05B000BD30B589B0054626
:1001F0000C46012142F2100003F0EEFEC020ADF8E3
:10020000200018208DF8230003208DF8220008A973
:10021000CF4803F045FCADF81850ADF8144000206D
:10022000ADF81A00ADF8160005A9CA4803F0A3FFFF
:100230006020ADF804000120ADF806000020ADF804
:100240000A00ADF80C0001A9C24803F0ADFF602020
:10025000ADF804000120ADF806000020ADF80A005A
:10026000ADF80C0001A9BB4803F0D5FF0121B94846
:1002700004F013FA0821B74804F034FB0821B5480C
:1002800004F039FB0021B34804F0AAFC0021B14876
:1002900004F0A8FC0121AF4804F0F4FA0121AD48B4
:1002A00004F0EFF909B030BD70B5064606EB062044
:1002B00000EB40004FF47A7190FBF1F540F693505B
:1002C000854200D90546ACB22146002004F055FD18
:1002D00070BD70B5064606EB062000EB40004FF4FB
:1002E0007A7190FBF1F540F69350854200D90546AE
:1002F000ACB22146002004F045FD70BD70B5064645
:1003000041F6160070434FF47A7190FBF1F546F612
:100310006340854200D90546ACB221468D4804F0C1
:1003200061FC70BD70B5064641F6160070434FF48F
:100330007A7190FBF1F546F66340854200D9054697
:10034000ACB22146834804F04BFC70BD10B50124CB
:100350001CE0621E804B33F81210804B53F82200D1
:1003600003F04BFC621E7E4B33F812107D4B53F8AA
:10037000220003F042FC621E7B4B33F812107B4BD1
:1003800053F8220003F039FC601CC4B2052CE0DBFA
:100390004FF48041764803F030FC4FF480517448AC
:1003A00003F02BFC4FF48041724803F026FC4FF41D
:1003B0008051704803F021FC4FF400416C4803F079
:1003C0001CFC4FF400516A4803F017FC4FF4004145
:1003D000684803F012FC4FF40051664803F00DFC2E
:1003E00000243AE0644850F8240004EB4401634AD6
:1003F00002EBC10108604FF4C86004EB440102EB5A
:10040000C1014860C82004EB440102EBC10108812E
:1004100004EB440102EBC1014881642004EB440178
:1004200002EBC10188814FF47A7004EB440102EBC6
:10043000C101C881002004EB440102EBC101088224
:1004400004EB440102EBC101C1F8120004EB4401CA
:1004500002EBC101C882601CC4B2042CC2DB10BD17
:100460002DE9F04104460E4615461F46DDF818807A
:10047000002E29DA601E424951F82000002805DCD0
:100480000121601E3F4A1154BDE8F0810121601E28
:1004900000EB400202EBC0003B4A02EB400041701F
:1004A000621E2F4B33F812102E4B53F8220003F02C
:1004B000A4FB621E2C4B33F812102C4B53F8220075
:1004C00003F09DFB764238E0601E2D4951F8201064
:1004D00000EB4000294A02EBC0000068814209DCC1
:1004E000621E2A4B33F81210294B53F8220003F0F6
:1004F0006AFB20B90121601E264A1154C4E700217D
:10050000601E244A115400EB400202EBC0001E4A58
:1005100002EB40004170621E114B33F81210114B78
:1005200053F8220003F06BFB621E0F4B33F81210DE
:100530000E4B53F8220003F062FB012C2CD0022C4E
:1005400039D0032C46D0042C62D152E0000801407F
:1005500000100140003401402800002078000020F5
:100560003000002088000020380000209800002083
:1005700000140140000C0140000000207F03002017
:1005800058010020D0000020780100204000002009
:1005900058000020CC0000204FF48051FE4803F0AA
:1005A00012FBFE4908704FF40051FB4803F00BFBAF
:1005B000FB4908702CE04FF48041F74803F003FB3F
:1005C000F64948704FF40041F34803F0FCFAF4494F
:1005D00048701DE04FF48071F24803F0F4FAEF49DF
:1005E00088704FF40071EF4803F0EDFAEC49887021
:1005F0000EE04FF48061EB4803F0E5FAE749C8707C
:100600004FF40061E74803F0DEFAE549C87000BF27
:1006100000BF0021601EE44A1154E44A1154E44A28
:10062000115400EB400101EBC000E24901EB400036
:10063000C0F81260E819B04205DD304606EBD07113
:10064000C1F34F052F46012E5DD10221601E00EB44
:10065000400202EBC000D74A02F810104FF47A7142
:10066000601E00EB400202EBC000D24A02EB4000E9
:10067000C0F80210012C06D0022C09D0032C0ED099
:10068000042C1AD112E00A2041078886888514E0DC
:100690000A20C9490880C849083908800DE00A20A5
:1006A000C6490880C5490839088006E00A20C449BF
:1006B0000880C3490839088000BF00BF0121601EBF
:1006C000C04A1154012C06D0022C09D0032C0DD0A5
:1006D000042C17D110E00121880703F0D2FF11E0AC
:1006E0000121B548343803F0CCFF0BE00121B348B9
:1006F000343803F0C6FF05E00121B148343803F077
:10070000C0FF00BFAFE1002EFCD0C8F164000A2199
:1007100001EB400081B2601E00EB400202EBC00022
:10072000A44A02EB4000C181601E00EB400101EBD6
:10073000C000114601EB4000C0890A2809DA0A21ED
:10074000601E00EB400202EBC0009A4A02EB400040
:10075000C181B5F57A7F17DD601E00EB400101EB2A
:10076000C000944901EB4000C089C0F57A7090FB4D
:10077000F5F081B2601E00EB400202EBC0008D4A32
:1007800002EB4000818145E0601E00EB400101EB7F
:10079000C000884901EB4000C089A8420ADD012160
:1007A000601E00EB400202EBC000824A02EB4000F8
:1007B00081812FE0642D17DA601E00EB400101EB10
:1007C000C0007C4901EB4000C089C0F1640090FB8F
:1007D000F5F081B2601E00EB400202EBC000754AEA
:1007E00002EB4000818115E0601E00EB400101EB4F
:1007F000C000704901EB4000C089281A90FBF5F059
:1008000081B2601E00EB400202EBC000694A02EBBD
:1008100040008181601E00EB400101EBC000654992
:1008200001EB40008089002809DC0121601E00EBFB
:10083000400202EBC0005F4A02EB40008181B7F545
:100840007A7F17DD601E00EB400101EBC0005949C3
:1008500001EB4000C089C0F57A7090FBF7F081B2DF
:10086000601E00EB400202EBC000524A02EB400067
:10087000418145E0601E00EB400101EBC0004D49A5
:1008800001EB4000C089B8420ADD0121601E00EB87
:10089000400202EBC000474A02EB400041812FE0DA
:1008A000642F17DA601E00EB400101EBC0004149E4
:1008B00001EB4000C089C0F1640090FBF7F081B209
:1008C000601E00EB400202EBC0003A4A02EB40001F
:1008D000418115E0601E00EB400101EBC00035498D
:1008E00001EB4000C089381A90FBF7F081B2601E1E
:1008F00000EB400202EBC0002E4A02EB40004181B7
:10090000601E00EB400101EBC0002A4901EB4000F2
:100910004089002809DC0121601E00EB400202EB47
:10092000C000244A02EB40004181B5F57A7F0CDD1E
:100930004FF47A71601E00EB400202EBC0001D4ACA
:1009400002EB4000C0F8021017E0642D0BDA6421BE
:10095000601E00EB400202EBC000164A02EB4000B2
:10096000C0F8021009E0601E00EB400101EBC0007E
:10097000104901EB4000C0F80250F11B601E00EB73
:10098000400202EBC0000B4A02EB4000C0F8061028
:100990000121601E18E0000000180140F80000204E
:1009A000FC00002000140140D4000020D0000020F2
:1009B000CC000020780100203404004034080040BE
:1009C000340C00400201002000EB400202EBC000AA
:1009D000F74A02F81010601EF64A1154012C06D096
:1009E000022C09D0032C0ED0042C1AD112E00A20BC
:1009F00041078886888514E00A20EF490880EE497F
:100A0000083908800DE00A20EC490880EB490839D4
:100A1000088006E00A20EA490880E9490839088088
:100A200000BF00BF012C06D0022C09D0032C0DD032
:100A3000042C17D110E00121880703F022FE11E0F9
:100A40000121DD48343803F01CFE0BE00121DB48B6
:100A5000343803F016FE05E00121D948343803F09C
:100A600010FE00BF00BF00BF0EE52DE9F8430446AD
:100A70000D4616461F46DDF82080601ED14951F80C
:100A800020002D1A3B46324629462046CDF80080EC
:100A9000FFF7E6FCBDE8F883F8B5044604EB440034
:100AA000C94901EBC000C089B0F57A6F07DD4FF48A
:100AB0007A6004EB4401C44A02EBC101C88134B13D
:100AC000012C0DD0022C14D0032C24D11AE004EBFD
:100AD0004401BD4A02EBC101C889FFF7FAFB1AE0E5
:100AE00004EB4401B84A02EBC101C889FFF7DCFB03
:100AF00011E004EB4401B44A02EBC101C889FFF7DD
:100B0000FDFB08E004EB4401AF4A02EBC101C889D8
:100B1000FFF708FC00BF00BF04EB440000EBC4007B
:100B2000A34911F81000002864D104EB4400A64941
:100B300001EBC000008A00285CD004EB440001EB0C
:100B4000C000008A01281AD104EB440001EBC00068
:100B5000007B04EB44050E4606EBC50500906B894F
:100B600004EB440506EBC5052A8904EB440506EBB6
:100B7000C5056968651CE8B2FFF772FC4BE004EB41
:100B80004400914901EBC000008A02281AD104EB0D
:100B9000440001EBC000007B04EB44050E4606EB6D
:100BA000C50500906B8904EB440506EBC5052A8951
:100BB00004EB440506EBC5056968651CE8B2FFF760
:100BC00054FF28E004EB44007F4901EBC000008A99
:100BD000032803D101207D4908551CE004EB4400A3
:100BE000794901EBC000008A082814D10120784916
:100BF000085510E06F48005D68B104EB440072498D
:100C000001EBC000008A042805D101207149085574
:100C100000206F490855002004EB44016A4A02EBAA
:100C2000C1010882204601F055FDF8BD08B56148B4
:100C3000807860B1684A9188684A906802F0C3FF82
:100C400028B901206349887000206149887059489B
:100C5000C07860B1604AD188604AD06802F0B3FFC2
:100C600028B901205B49C87000205949C870514813
:100C7000007870B9584A1188584A106802F0A3FFEA
:100C800038B96420C8231A46554900900120FFF75F
:100C9000E7FB4848007878B94F4A51884F4A506876
:100CA00002F091FF40B96420C8231A464C494942DA
:100CB00000900120FFF7D4FB08BDF8B50446601E84
:100CC000C4B24348005D052861D2DFE800F00304A8
:100CD00010193D005BE03748005D38B901203B4901
:100CE00008553B48005D401C394908554FE03748DE
:100CF000005D20B93648005D401C3549085546E086
:100D00002C48005DF8B904EB44002F4901EBC0000A
:100D1000007B04EB44050E4606EBC50500906B898D
:100D200004EB440506EBC5052A8904EB440506EBF4
:100D3000C5056968651CE8B2FFF792FB2448005DB1
:100D4000401C2349085522E01A48005DF0B904EB25
:100D500044001D4901EBC000007B04EB44050E4636
:100D600006EBC50500906B8904EB440506EBC50551
:100D70002A8904EB440506EBC5056D686942651CCC
:100D8000E8B2FFF76DFB03201149085500BF00BF13
:100D9000F8BD38B50446601EC4B20C48005D052895
:100DA00004D2DFE800F0031FB7F2F0003AE10000E0
:100DB0007801002002010020340400403408004083
:100DC000340C0040580100207F030020EC0000207C
:100DD000F0000020D400002048000020680000201F
:100DE00000E20400FE48005D002855D1FD4A32F8BB
:100DF0001410FD4A52F8240002F0E5FE00284CD001
:100E00000020FA49085534B1012C0BD0022C10D027
:100E1000032C1CD114E0F648006840F01000F4499F
:100E2000086014E0F248006840F00800F0490860EB
:100E30000DE0EF48006840F08000ED49086006E0F2
:100E4000EB48006840F04000E949086000BF00BF7F
:100E500004EB4400E74901EBC000006800F5C860FE
:100E6000E54941F8240004EB4400E24901EBC000ED
:100E7000007B04EB44020B4603EBC20200901268B5
:100E800002F5C8625142621CD0B2C8231A46FFF76D
:100E9000E7FA0320D94908553BE034B1012C0BD0C7
:100EA000022C10D0032C1CD114E0D148006820F093
:100EB0001000CF49086014E0CD48006820F0080019
:100EC000CB4908600DE0CA48006820F08000C8499E
:100ED000086006E0C648006820F04000C449086089
:100EE00000BF00BF4FF4E160C34941F8240004EBA8
:100EF0004400C04901EBC000007B611C0090C8B2F7
:100F0000C8231A46D900FFF7ABFA0221601EBB4A7C
:100F1000115487E0B248005DA0BB0020B3490855DA
:100F200034B1012C0BD0022C10D0032C1CD114E0B6
:100F3000AF48006840F01000AD49086014E0AC48CC
:100F4000006840F00800AA4908600DE0A848006861
:100F500040F08000A649086006E0A548006840F01F
:100F60004000A349086000BF00BF1420611C00902E
:100F7000C8B24FF496731A46A149FFF771FA0320DD
:100F80009E4908554EE040E0FFE79548005DD8BB1C
:100F90009648005DC0B334B1012C0BD0022C10D0A8
:100FA000032C1CD114E09248006820F010009049F6
:100FB000086014E08E48006820F008008C49086042
:100FC0000DE08B48006820F080008949086006E049
:100FD0008748006820F040008549086000BF00BFD6
:100FE000002088490855844941F824001420864A85
:100FF000009032F81410621CD0B264231A46FFF736
:101000002FFA04207D4908550CE07548005D40B971
:1010100000207A490855784941F824007B4941F875
:10102000240000BF00BF38BD10B50446601E00EBB1
:10103000400101EBC000764901EB40004078D0B997
:10104000601E6D4951F8201000EB4000694A02EB28
:10105000C0000068814209DC621E6E4B33F812103A
:101060006D4B53F8220002F0AEFD20B90121601E45
:101070006A4A115403E00021601E684A1154601E40
:101080005D4951F82000002804DD0021601E644AFB
:1010900011540EE0601E00EB400101EBC0005C4902
:1010A00001EB40004078012803D10121601E5C4A19
:1010B000115410BD08B54FF4407001F02DFF002110
:1010C0004FF0006001F05FFF25208DF80000042044
:1010D0008DF8010001208DF80300684601F021FF22
:1010E00009208DF8000002208DF801008DF8020023
:1010F00001208DF80300684601F013FF0A208DF8E7
:101100000000684601F00DFF17208DF800006846CA
:1011100001F007FF28208DF80000684601F001FF6C
:1011200008BD0EB50121092002F056FF01213D48FE
:1011300002F087FD1820ADF8080004208DF80B00A0
:1011400002A9394802F0ACFC0121212002F044FF41
:10115000C020ADF8080004208DF80B0002A9334828
:1011600002F09EFC0321012002F0A0FD04210120D9
:1011700002F09CFD0621032002F098FD07210320C8
:1011800002F094FDD820009000208DF804000C207F
:101190008DF8050001208DF80600684602F0F0F891
:1011A000082002F074F9102002F071F9402002F0DA
:1011B0006EF9802002F06BF90EBD7FB505460C4636
:1011C0000121082002F015FFADF80850ADF80440E9
:1011D0000020ADF80A00ADF8060001A9144829E086
:1011E0000201002050000020A8000020E80000209C
:1011F000000401407F03002058010020EC00002083
:10120000F8F8FFFFD400002010000020D0010020DB
:10121000780100204000002058000020CC00002071
:10122000D000002000023000000C014000140140FA
:10123000000C004002F09FFF32208DF800000020DB
:101240008DF8010003208DF8020001208DF80300C5
:10125000684601F066FE0121FA4803F001FD012213
:101260001146F84803F028FA7FBD7FB505460C46C5
:101270000121042002F0BDFEADF80850ADF8044095
:101280000020ADF80A00ADF8060001A9EE4802F012
:1012900072FF01221146EC4803F00EFA1E208DF871
:1012A000000000208DF8010002208DF802000120CE
:1012B0008DF80300684601F034FE0121E24803F096
:1012C000CFFC01221146E04803F0F6F97FBD7FB55F
:1012D00005460C460121022002F08BFEADF80850B5
:1012E000ADF804400020ADF80A00ADF8060001A9F1
:1012F000D64802F040FF01221146D44803F0DCF941
:101300001D208DF8000000208DF8010001208DF8CF
:1013100002008DF80300684601F003FE0121CB486E
:1013200003F09EFC01221146C84803F0C5F97FBDB9
:101330007FB505460C460121084602F05AFEADF87D
:101340000850ADF804400020ADF80A00ADF80600E2
:1013500001A94FF0804002F00EFF012211469007D4
:1013600003F0AAF91C208DF8000001208DF801007F
:1013700000208DF8020001208DF80300684601F07E
:10138000D0FD0121880703F06BFC01221146900774
:1013900003F092F97FBD08B50121042002F01CFE84
:1013A0004FF40040ADF8000048208DF80300694676
:1013B000A74802F075FBFE20ADF8000010208DF864
:1013C000030003208DF802006946A14802F068FB83
:1013D0000121082002F000FE0121880402F009FE2C
:1013E0004FF48060ADF8000003208DF80200182053
:1013F0008DF803006946974802F052FB4FF40060F5
:10140000ADF8000004208DF803006946914802F011
:1014100047FB1820ADF8000048208DF8030069460E
:101420008C4802F03DFB4FF2E330ADF80000102095
:101430008DF8030003208DF802006946854802F00C
:101440002FFB0121102002F0C7FD4FF48050ADF8B2
:10145000000048208DF8030069467F4802F020FB19
:10146000F020ADF8000010208DF8030003208DF867
:1014700002006946784802F013FB0121202002F0A7
:10148000ABFD40F6FF70ADF8000048208DF803007A
:101490006946724802F004FB4FF47040ADF800005A
:1014A00010208DF8030003208DF8020069466B4878
:1014B00002F0F6FA0121402002F08EFD4FF4704058
:1014C000ADF8000048208DF803006946644802F03A
:1014D000E7FA40F68370ADF8000010208DF80300A5
:1014E00003208DF8020069465D4802F0D9FA08BD74
:1014F000FFF751FFFEF72AFF01F0DDFC40214FF41A
:101500007A70FFF715FF40214FF47A70FFF7DFFE86
:1015100040214FF47A70FFF7A8FE40214FF47A7013
:10152000FFF74BFEFFF7FDFDFFF7C4FDFEF70AFED8
:10153000FEF731FE01F02FFA00214FF40040FEF7D4
:1015400054FE4FF47A70FEF7C4FE4FF47A70FEF743
:10155000ABFE4FF47A70FEF7D1FE4FF47A70FEF7CF
:10156000E1FE40488088B0F5C86F03DA3D488088C6
:101570003D49888065E001241BE02046FFF754FDCB
:101580002046FFF706FC2046FFF797FB374850F848
:10159000240004EB4401364A02EBC101C1F81200F9
:1015A0003448005D04EB440102EBC101C882601CB9
:1015B000C4B2052CE1DB4FF48051294802F003FB53
:1015C00028B14FF48041254802F017FB04E04FF4A6
:1015D0008041224802F013FB4FF48041204802F082
:1015E000F2FA28B14FF400411C4802F006FB04E077
:1015F0004FF40041194802F002FB1F48007801280F
:101600000BD1002404E02046FFF746FA601CC4B268
:10161000042CF8DB002018490870184800780128CD
:1016200004D101F024FC002014490870FFF7FEFAF1
:1016300013480078012804D101F0D6F900201049A0
:10164000087098E7000C00400008004000040040CB
:1016500000080140000C014000100140001401404E
:101660000018014032010020100000205801002025
:101670007F030020020100203C0100203B010020EC
:101680003D01002070B504460D46E1B2FB4801F073
:10169000D0FD00BF4021F94801F022FE0028F9D01A
:1016A000204670BD10B588B00121084602F0A1FCAB
:1016B0000121022002F09DFC0121042002F099FC8E
:1016C0000121082002F095FC4FF6FF70ADF81800DC
:1016D0000020ADF81400ADF81A00ADF8160005A909
:1016E000E74802F048FD05A94FF0804002F043FDB5
:1016F00005A9E44802F03FFD05A9E34802F03BFDDF
:10170000E24800684008E249B0FBF1F0401E84B2B4
:1017100001222146900703F05CF801222146D848B7
:1017200003F057F801222146D64803F052F801226F
:101730002146D54803F04DF81020ADF804000120F3
:10174000ADF806000A20ADF80A000020ADF80C0044
:1017500001A94FF0804002F027FD01A9C84802F01E
:1017600023FD01A9C74802F01FFD01A9C64802F0E8
:101770001BFD0121880703F05FFA0121C04803F037
:101780005BFA0121BF4803F057FA0121BE4803F07C
:1017900053FA01221146900702F08EFF01221146F2
:1017A000B74802F089FF01221146B64802F084FFD3
:1017B00001221146B44802F07FFF08B010BD10B5F9
:1017C0000121880703F03BFA18B10121880703F0D3
:1017D00047FAB04840884FF080418886AD4840883D
:1017E0008885AC48007870B11021AB4802F0F8F958
:1017F000012804D11021A84802F001FA03E01021C9
:10180000A54802F0FAF9A548007810B1012838D1AE
:1018100015E04FF48051A24802F0D5F9A1490978AA
:1018200088420BD09D480078401C9C4908704FF4BA
:1018300080519B4802F0C7F99A49087021E04FF4A3
:101840000051974802F0BFF997490978884217D0AC
:101850009048407828B995480068401C9349086032
:1018600004E092480068401E9049086000208B49BF
:1018700008704FF400518A4802F0A5F98A490870AF
:1018800000BF00BF8A480078401C8949087008469C
:101890000078022878D1002008707E48007830B1A6
:1018A000012812D0022870D003280DD15EE000205C
:1018B0008049086000214FF0804002F0E2FE0020E5
:1018C0007D4908707D490870B3E07A480068401C83
:1018D000784908606F48407828B979480068401C0A
:1018E0007749086004E076480068401E7449086043
:1018F0006848D0F8020067498989884209DD65484F
:10190000D0F8020063498989401A6249C1F802008F
:1019100004E06048C0895F49C1F802006948007866
:1019200028B96948007810B96848007840B159482A
:10193000D0F806005F49086002205649087014E09C
:101940005448D0F806005B490968884203D8022051
:101950005049087009E04F48D0F802004D49C98944
:10196000884202DC03204B49087062E0514800685D
:10197000401C504908604748407838B950480068D2
:10198000401C4F49086006E054E021E04C480068E4
:10199000401E4B4908604B48007828B94A480078F7
:1019A00010B94A48007840B13A48D0F80600414999
:1019B000086002203749087009E03648D0F8060070
:1019C0003C490968884202D802203249087030E058
:1019D00038480068401C374908602E48407828B9CC
:1019E00037480068401C3649086004E03448006805
:1019F000401E334908602748D0F80200254949892C
:101A000008442449C1F802000846D0F80200B0F5A5
:101A10007A7F03DD4FF47A70C1F802001D48D0F8D8
:101A2000120024490968884202D800201949087028
:101A300000BF00BF10BD10B50121114803F0FFF831
:101A400018B101210E4803F00BF91248008B0C4924
:101A5000343108800F48008B09492C3108800D482B
:101A6000807D50B108211A4802F0BAF8012831D11E
:101A70000821174802F0C3F830E02FE00038014099
:101A80000004004000080040000C00400C53000817
:101A900040420F007801002000100140F4000020B7
:101AA00000180140F8000020FC000020D0010020B8
:101AB000180100201401002002010020D80000209D
:101AC00058010020D4000020CC000020D0000020CD
:101AD000000801400821F54802F08FF8F4484078EA
:101AE00010B1012838D115E04FF48041F14802F0DF
:101AF0006AF8F149497888420BD0ED484078401C9B
:101B0000EB4948704FF48041EA4802F05CF8EA493A
:101B1000487021E04FF40041E64802F054F8E749EC
:101B20004978884217D0E648C07D28B9E548406822
:101B3000401CE449486004E0E2484068401EE14936
:101B400048600020DA4948704FF40041D94802F05B
:101B50003AF8DA49487000BF00BFDB480078401C03
:101B6000D94908700846007802287DD10020087005
:101B7000D348807D30B1012811D0022875D00328C8
:101B80000CD152E00020D14908600021D04802F079
:101B900078FD0020CF494870CF494870A1E0CB487C
:101BA0000068401CC9490860C548C07D28B9CB48B9
:101BB0004068401CC949486004E0C8484068401E6D
:101BC000C6494860BE488169408C814206DDBC48F8
:101BD0008169408C091ABA48816102E0B848818C59
:101BE0008161BF48407828B9BE48407810B9BE48E6
:101BF000407838B1B248C069B44908600220B049A1
:101C0000887511E0AE48C069B0490968884203D8B8
:101C10000220AB49887507E0A9488169808C814220
:101C200002DC0320A64988755BE0A8480068401CD8
:101C3000A6490860A248C07D28B9A8484068401C51
:101C4000A649486004E0A5484068401EA349486092
:101C5000A348407828B9A348407810B9A2484078F2
:101C600050B19748C06901E03CE00FE09749086037
:101C700002209349887508E09148C0699349096832
:101C8000884202D802208E4988752AE08F48006871
:101C9000401C8E4908608A48C07D28B98F4840683A
:101CA000401C8E49486004E08C484068401E8B49C7
:101CB000486083488169008C014481488161806962
:101CC000B0F57A7F03DD4FF47A717D4881617C48FD
:101CD000806A7E490968884202D800207849887560
:101CE00000BF00BF10BD10B50121804802F0A7FF62
:101CF00018B101217D4802F0B3FF7148C08D7B49C6
:101D0000343108806E48C08D78492C3108806C4889
:101D100090F82C0070B10121664801F061FF0128A4
:101D200004D10121634801F06AFF03E00121614809
:101D300001F063FF5E48807810B1012839D115E0C9
:101D40004FF480716A4801F03EFF5B498978884210
:101D50000BD057488078401C554988704FF48071EB
:101D6000634801F030FF5449887022E04FF400715D
:101D70005F4801F028FF51498978884218D05048BF
:101D800090F82D0028B94F488068401C4D49886064
:101D900004E04C488068401E4A498860002044495D
:101DA00088704FF40071524801F00DFF434988706C
:101DB00000BF00BF4F480078401C4E4908700846DD
:101DC000007802286FD1002008703D4890F82C0060
:101DD00030B1012811D0022866D003280CD18DE043
:101DE0000020454908600021404802F04AFC0020DC
:101DF0003849887038498870EDE03F480068401CD9
:101E00003D4908602E4890F82D0028B93348806875
:101E1000401C3249886004E030488068401E2F49E9
:101E200088602748D0F82E10008F814208DD2448B2
:101E3000D0F82E10008F091A2148C0F82E1003E0A8
:101E40001F48418FC0F82E102548807820B100200F
:101E50001B4981F82C0025E02248807810B92248DF
:101E6000807848B11648D0F8320023490860022033
:101E7000134981F82C0015E01148D0F832001E49B2
:101E80000968884204D802200D4981F82C0009E035
:101E90000B48D0F82E10408F814203DC0320084904
:101EA00081F82C0097E097E060E000000008014016
:101EB000F400002000180140F8000020FC00002081
:101EC00078010020D0010020200100201C0100200A
:101ED0000004004002010020D8000020580100202A
:101EE000D4000020CC000020D000002000080040DA
:101EF000001401402801002024010020FE48006851
:101F0000401CFD490860FD4890F82D0028B9FC48A8
:101F10008068401CFA49886004E0F9488068401EE7
:101F2000F7498860F748807820B10020F34981F8AC
:101F30002C001AE0F448807810B9F448807848B151
:101F4000EE48D0F83200EC4908600220EB4981F8F5
:101F50002C000AE0E948D0F83200E74909688842D5
:101F600003D80220E54981F82C0034E0E2480068FB
:101F7000401CE1490860E14890F82D0028B9E0488C
:101F80008068401CDE49886004E0DD488068401EAF
:101F9000DB498860D948D0F82E10C08E0144D7485C
:101FA000C0F82E10D0F82E00B0F57A7F04DD4FF483
:101FB0007A71D248C0F82E10D048D0F83E00CE49F1
:101FC0000968884202D9CF48807818B10020CB49EF
:101FD00081F82C0000BF00BF10BD10B50121CC4816
:101FE00002F02DFE18B10121C94802F039FEC348A4
:101FF000B0F84400C64934310880C048B0F8440005
:10200000C3492C310880BD4890F8420070B180214E
:10201000C04801F0E5FD012804D18021BD4801F050
:10202000EEFD03E08021BB4801F0E7FDBA48C0782F
:1020300010B1012839D115E04FF48061B74801F0A3
:10204000C2FDB749C97888420BD0B348C078401C5C
:10205000B149C8704FF48061B04801F0B4FDB04997
:10206000C87022E04FF40061AC4801F0ACFDAD490E
:10207000C978884218D0A14890F8430028B9AA48E6
:10208000C068401CA849C86004E0A748C068401E5A
:10209000A549C8600020A049C8704FF480619F48DE
:1020A00001F091FD9F49C87000BF00BF9F480078B4
:1020B000401C9E49087008460078022876D100200E
:1020C00008708E4890F8420030B1012811D00228E3
:1020D0006DD003280CD15AE00020954908600021FA
:1020E0008B4802F0CEFA00209249C8709249C8701D
:1020F000AEE08F480068401C8D4908607F4890F82A
:10210000430028B97E48C068401C7D49C86004E08F
:102110007B48C068401E7A49C8607848416CB0F876
:102120004E00814207DD7548416CB0F84E00091A37
:102130007248416403E07148B0F85010416471483E
:10214000C07828B97048C07810B97048C07840B1DC
:102150006A48806C764908600220684981F842002C
:1021600014E06648806C72490968884204D80220ED
:10217000624981F8420009E06048416CB0F85000C3
:10218000814203DC03205D4981F8420060E0684839
:102190000068401C66490860584890F8430038B908
:1021A0005748C068401C5649C86006E051E021E02D
:1021B0005348C068401E5249C8605248C07828B988
:1021C0005148C07810B95148C07840B14B48806C34
:1021D000574908600220494981F8420009E0474810
:1021E000806C53490968884203D80220434981F82A
:1021F00042002DE04E480068401C4D4908603F48B1
:1022000090F8430028B93E48C068401C3C49C8606B
:1022100004E03B48C068401E3949C8603748416CFB
:10222000B0F84C00014435484164406CB0F57A7F09
:1022300003DD4FF47A71314841643048406D3C49C8
:102240000968884203D800202C4981F8420000BF69
:1022500000BF10BD10B5102001F008F9A8B1284842
:102260000068364908600120354908703148007817
:1022700010B1012023490870102001F008F93148FD
:10228000006820F010002F49086010BD10B508202C
:1022900001F0ECF8A8B11A484068284948600120CC
:1022A000274948702348407810B1012015494870EB
:1022B000082001F0ECF82348006820F008002149CC
:1022C000086010BD10B5802001F0D0F8E0B30C48D4
:1022D00080681A49886001201949887015488078FB
:1022E00010B1012007498870802001F0D0F815480E
:1022F000006820F0800028E0240100207801002000
:1023000058010020D4000020CC000020D000002084
:10231000000C0040000C0140F400002000140140BB
:10232000F8000020FC000020D00100203001002037
:102330002C01002002010020D800002068010020AC
:10234000E80000200004014001E03C490860402012
:1023500001F08CF8A8B13A48C0683A49C860012039
:102360003949C8703948C07810B101203849C8705F
:10237000402001F08CF83148006820F040002F49DF
:1023800008604FF4807001F071F818B14FF480705C
:1023900001F07DF84FF4007001F068F818B14FF4C7
:1023A000007001F074F810BD10B54FF4806001F0BA
:1023B0005DF818B14FF4806001F069F84FF40060E7
:1023C00001F054F818B14FF4006001F060F84FF4D8
:1023D000805001F04BF840B11848006820F480505C
:1023E00016490860881401F052F84FF4005001F0CB
:1023F0003DF840B11148006820F400500F490860D2
:10240000481401F044F84FF4804001F02FF818B15F
:102410004FF4804001F03BF84FF4004001F026F803
:1024200018B14FF4004001F032F810BD10B500F0C3
:10243000E3FB10BD10B500F002F910BD000401402F
:102440005801002068010020E8000020020100205F
:10245000D4000020704700BFFEE700BFFEE700BFCA
:10246000FEE700BFFEE77047704770477047000007
:1024700030B502460B464FF6FF700021002400BF26
:1024800012E0555C684000240AE000F0010525B127
:1024900040104AF20105684000E04010651CACB2F3
:1024A000082CF2DB4D1CA9B29942EADB30BD014693
:1024B0000806000C40EA1120704708B54FF4E060B0
:1024C00000F02AFD27208DF8000002208DF8010081
:1024D00000208DF8020001208DF80300684600F00E
:1024E00020FD08BD08B54FF4C06000F015FD0C20BC
:1024F0008DF8000001208DF801008DF802008DF8A4
:102500000300684600F00DFD08BD00B58BB0012149
:10251000084601F054FDFE4802F054FCFD480090CE
:10252000FD480190002002904FF48060039000204D
:1025300004908020059000200690079020200890AD
:102540000002099000200A906946F14802F0D3FC8D
:1025500001220221EE4802F004FD01220821EC488C
:1025600002F0FFFC01224021EA48001F00F025FE96
:102570000121E74802F0EAFC0BB000BD1FB504469C
:1025800000940020ADF80400ADF80600ADF8080096
:10259000ADF80C000C20ADF80A006946DD48001FBC
:1025A00000F071FD012240F22441DA48001F00F0E2
:1025B000E4FD0121D748001F00F0D3FDFFF77DFFA8
:1025C0000121084601F0FBFCFFF78CFFFFF79DFFA0
:1025D0001FBD30B58BB004460D460120CF490870B1
:1025E000CC480090019510200290039400200490A4
:1025F0008020059000200690079008904FF48050AE
:10260000099000200A90C248143802F0DBFB6946AA
:10261000BF48143802F06FFC0121BD48143802F0A5
:1026200095FC01220221BA48143802F09AFC0122DA
:102630008021B848001F00F0C0FD0BB030BD10B5C0
:10264000202002F09BFC01280DD1202002F0AAFCE2
:102650000021AF48143802F079FC0220B04908701C
:102660000020AE49087010BD70B504460025002654
:10267000032000EB4400C6B23146AA48FFF7F8FE3B
:102680000546A9484179A748C01C00EB41000580D8
:10269000A4498978481DA349FFF79BFF70BD10B579
:1026A000A1490820FFF795FF10BD70B50025002453
:1026B000062421469C48FFF7DBFE05469A48C58064
:1026C000A21C0146974802F0B5FC9649A01CFFF7F2
:1026D00080FF70BD10B5024602EB4200830002EBA2
:1026E0004201924C04EBC101088AFFF7E0FE03F1BE
:1026F00008018F4C04EB4101088010BD70B5002229
:10270000B5E002EB4200830002EB4200874901EB97
:10271000C00000684FF6FF7101EA204402EB42005E
:10272000824901EBC000008885B22046FFF7BFFE5A
:102730007F4901EB430108802846FFF7B8FE591C8A
:102740007B4E06EB4101088002EB4200774901EB2A
:10275000C00040684FF6FF7101EA204402EB4200DE
:10276000724901EBC000808885B22046FFF79FFECA
:10277000991C06EB410108802846FFF798FED91CFA
:1027800006EB4101088002EB4201684E06EBC101F5
:102790000889FFF78CFE191D654E06EB4101088084
:1027A00002EB4201614E06EBC1014889FFF77FFE53
:1027B000591D5F4E06EB4101088002EB42015B4E62
:1027C00006EBC1018889FFF772FE991D584E06EB92
:1027D0004101088002EB4201544E06EBC101C88959
:1027E000FFF765FED91D524E06EB4101088002EB52
:1027F00042014E4E06EBC101088AFFF758FE03F175
:1028000008014B4E06EB4101088002EB42004749AC
:1028100001EBC000D0F812004FF6FF7101EA20442E
:1028200002EB4200414901EBC000408A85B22046DC
:10283000FFF73DFE03F1090106EB41010880284640
:10284000FFF735FE03F10A0106EB4101088002EBB8
:102850004201364E06EBC101C88AFFF728FE03F19C
:102860000B01334E06EB41010880501CC2B2042A12
:10287000FFF647AF70BD70B5002388E003EB43005F
:1028800082002B4901EB42010888FFF710FE044645
:10289000511C274E06EB41010888FFF708FE05464C
:1028A00045EA044003EB4301204E06EBC1010860FA
:1028B000911C1F4E06EB41010888FFF7F8FD044606
:1028C000D11C06EB41010888FFF7F1FD054645EAFA
:1028D000044003EB4301154E06EBC1014860111D96
:1028E000134E06EB41010888FFF7E1FD03EB4301BE
:1028F0000E4E06EBC1010881511D0D4E06EB410144
:102900000888FFF7D4FD03EB4301084E12E00000F6
:102910003000024004480040DF0500203A0100205A
:102920003E010020FC0100207F0200207F030020E8
:10293000DF03002006EBC1014881911DCD4E06EB5F
:1029400041010888FFF7B3FD03EB4301CA4E06EBD4
:10295000C1018881D11DC74E06EB41010888FFF7F0
:10296000A6FD03EB4301C44E06EBC101C88102F191
:102970000801C04E06EB41010888FFF798FD03EB04
:102980004301BD4E06EBC1010882581CC3B2042BA3
:10299000FFF674AF70BD10B5B848408820B94FF449
:1029A0001650FFF7EBFD1EE0B4484088012804D123
:1029B0004FF49640FFF7E2FD15E0B048408802284A
:1029C00004D14FF41640FFF7D9FD0CE0AB48408826
:1029D000032804D14FF46140FFF7D0FD03E04FF42A
:1029E000E130FFF7CBFD10BD70B5A5480288A549C1
:1029F000A54802F01FFBA2480078801EC1B2A24881
:102A0000FFF736FD06469E480088801E9D49095CFA
:102A10009B480088401E9B4A105C41EA0020B0425F
:102A20007ED19948007895490988884203D0964814
:102A30000078C828F4D194484078032876D1924889
:102A4000C078602802D0612838D11BE08E484079D8
:102A5000012800DD69E089490888FFF728FD8B49D6
:102A6000A1F80300884800780870874840784870CB
:102A7000854840794006000E887083494879FFF701
:102A8000F3FD52E080484079012800DD4DE07B49AC
:102A90004888FFF70CFD7D49A1F803007A480078CB
:102AA0000870794840784870774840794006000EB1
:102AB000887075494879FFF7D7FD36E07248C078CD
:102AC000302800DD31E07048C078C0F1300085B2B8
:102AD0006D484079A84200DD27E0FFF70FFE002493
:102AE0000DE06948C0782044624901EB400001884C
:102AF0006648C01C00EB44000180601CC4B2AC42BC
:102B0000EFDB61480078614908705F4840784870A1
:102B10005D4840794006000E88705B49487901E0C5
:102B200068E003E0FFF7A0FD00BF63E0564840788F
:102B3000062845D15448C078502822D0602802D0B9
:102B4000612838D10DE0504840794F49097940EA71
:102B500001204A490880FFF7A2FD01204C49087076
:102B60002AE0494840794849097940EA0120434927
:102B70004880FFF794FDFFF70EFF012044490870DD
:102B80001AE0414840794049097940EA01203B492F
:102B9000888008468088B0F5C86F02DD4FF4C860B1
:102BA0008880364880883B498880FFF778FD01207F
:102BB0003749087000E000BF00BFFFF770FD19E063
:102BC00031484078102815D12F48C0782F2800DDD3
:102BD00070BD2D498A79C978264B03EB41002A49FB
:102BE000C91D02F027FAFFF746FE01202A490870A6
:102BF000FFF75BFD00BFEBE710B540F2244127482B
:102C000000F07AFB28B30021254802F09FF9234801
:102C100000F013FB224802F0ADF9C0F580601849BE
:102C2000088008460088802802DA01201D490870C3
:102C30004FF4706002F0B6F94FF4806018493039F3
:102C400048630121164802F081F914480488001DE8
:102C500004884FF45A71114800F04EFB20B14FF434
:102C60005A710E4800F06EFB40F224410B4800F010
:102C700069FB10BDDF0300207F030020320100202C
:102C800040010020DF0500207F020020FC01002021
:102C90003B010020100000203C01002000480040C3
:102CA000300002403D0100200146088870472DE9B0
:102CB000F04105460E461746002407E036F814108A
:102CC000284600F018FDAD1C601C84B2BC42F5DB48
:102CD000BDE8F08130B503460C461546002207E0FA
:102CE0001846FFF7E1FF24F812009B1C501C82B22B
:102CF000AA42F5DB30BD2DE9F05F80468A461746D3
:102D0000B8F1006F02D37E48804501D3BDE8F09F43
:102D100000F0E7FBA8F1006B4FEA9B25CBF34809D5
:102D2000C9F50074A74200DC3C464DE04FF000615D
:102D300001EB85208A147349FFF7CCFF00260BE0D6
:102D400009EB06006F4931F810004FF6FF71884219
:102D500000D003E0701C86B2A642F1DB00BFA642A1
:102D60001BDA4FF0006101EB852000F001FC00262A
:102D700008E03AF8160006EB0901624A22F8110051
:102D8000701C86B2A642F4DB4FF0006101EB852097
:102D90008A145C49FFF78BFF04E022465146404607
:102DA000FFF785FFA74200D10FE06D1C4FF000092F
:102DB0000AEB440AA044381B87B2B7F5007F02DD56
:102DC0004FF4007400E03C46B0E700BF00F08FFB1A
:102DD00000BF9BE770B502460D46FF21FF2300248C
:102DE00009E012F8010B80EA01044748005D80EA1F
:102DF00003014648035D281EA5F10106B5B2F0D1D6
:102E000043EA012070BD13B50446012201A9204602
:102E1000FFF771FF1CBD10B50346002000BF05E0A1
:102E200031F8104023F81040441CA0B29042F7DB68
:102E300010BD30B503460C46002100BF08E033F852
:102E4000110034F81150A84200D003E0481C81B2B0
:102E50009142F4DB00BF914201D1012030BD00203E
:102E6000FCE701202A49088003204880704730B5DC
:102E7000ADF2044D03240825A81E81B22448FFF7B3
:102E8000A9FF2349C88000F02CFB2A46204901A84D
:102E900002F0D0F81F4951F8240000F069FB1D49E9
:102EA00051F82400AA0101A9FFF701FF00F01FFB60
:102EB0000DF2044D30BD70B5ADF5806D03250824CD
:102EC00000F00FFB134951F82500A2016946FFF7F6
:102ED00001FF00F00CFB224669460D4802F0AAF8FB
:102EE000A01E81B20A48FFF775FF06460848C08851
:102EF000B04201D0FFF7B5FF0DF5806D70BD000049
:102F000000000208E00900200851000808520008EB
:102F100032010020F050000831490143314A11606C
:102F2000704770B5002100230F22C47804B32D4CE4
:102F3000246804F4E064C4F5E064210AC1F10403E8
:102F4000CA40447804FA03F184781440214309010B
:102F5000254C0678A155047804F01F050124AC40E7
:102F600005786D11AD0005F1E025C5F8004109E0D7
:102F7000047804F01F050124AC401C4D067876113E
:102F800045F8264070BD1A4A0A400243154B1B1FE4
:102F90001A60704739B1134A121D12680243114B6F
:102FA0001B1D1A6006E00F4A121D126882430D4B6A
:102FB0001B1D1A607047042808D14FF0E0210969F1
:102FC00041F004014FF0E022116107E04FF0E021F1
:102FD000096921F004014FF0E022116170470000FF
:102FE0000000FA050CED00E000E400E080E100E004
:102FF00080FFFF1F10B50446D749601A8C422BD0C2
:1030000006DCD648204498B1B0F5806F38D119E07D
:10301000B0F5806F2AD0B0F56C4F31D10121880313
:1030200000F0F4FF00214FF4804000F0EFFF28E0B3
:103030000121480400F0F7FF00214FF4003000F0B8
:10304000F2FF1EE00121880400F0EDFF00214FF4A3
:10305000802000F0E8FF14E00121C80400F0E3FF45
:1030600000214FF4002000F0DEFF0AE001210805F6
:1030700000F0D9FF00214FF4801000F0D4FF00E0F1
:1030800000BF00BF10BD2DE9F04786B005460E46D3
:103090000024A24600BF00BF00272F462C8A4CF612
:1030A000FF700440F08804432C82AC894EF6F31084
:1030B0000440B08831890843718908430443AC81D6
:1030C000AC8A4FF6FF400440B0890443AC8201A8AB
:1030D00000F015FFA248874202D1DDF810A001E000
:1030E000DDF80CA00AEBCA0000EB0A103168890079
:1030F000B0FBF1F86420B8FBF0F004012009642172
:1031000001FB1089322000EB0910B0FBF1F000F058
:103110000F0004432C8106B0BDE8F0874FF4165130
:10312000016000218180C18001810C214181002149
:103130008181704710B502460020108A4FF2FF03CC
:1031400018400B884C8823438C882343CC88234326
:103150001843108210BD0021018041808180C18010
:10316000704721B1828942F40052828104E0828951
:103170004DF6FF731A4082817047F0B50346002474
:103180000026002500201846C1F3421401F01F0656
:10319000012707FA06F5012C01D10C3004E0022CBE
:1031A00001D1103000E014301AB107682F430760D6
:1031B00002E00768AF430760F0BD1AB1838A0B4392
:1031C000838202E0838A8B4383827047028A4FF6B0
:1031D000F0731A400282028A0A430282704782898F
:1031E0004FF2FF731A40828182890A4382817047BD
:1031F00021B1828942F00202828104E082894FF685
:10320000FD731A4082817047028A4FF6DF731A40BD
:103210000282028A0A430282704721B1028A42F482
:103220008042028204E0028A4BF6FF731A40028257
:103230007047C1F308028280704701468888C0F356
:1032400008007047818941F0010181817047028B3C
:10325000D2B20283028B42EA012202837047028BC0
:1032600002F47F420283028B0A430283704721B13A
:10327000828A42F02002828204E0828A4FF6DF7363
:103280001A408282704721B1828A42F01002828203
:1032900004E0828A4FF6EF731A408282704721B1B0
:1032A000828A42F00802828204E0828A4FF6F77333
:1032B0001A4082827047828A4FF6FB731A408282DC
:1032C000828A0A438282704721B1828A42F00202D6
:1032D000828204E0828A4FF6FD731A408282704730
:1032E0000246002013880B400BB1012000E00020B3
:1032F0007047CA430280704770B502460B460024EF
:10330000002100250020C3F3421503F01F01012610
:1033100006FA01F1012D02D19689314006E0022D15
:1033200002D1168A314001E0968A31401C120126F2
:1033300006FA04F41688344011B10CB1012000E003
:10334000002070BD10B5002200230A120124944011
:10335000A3B2DC43048010BD004C004000BCFFBFA2
:103360000038014000204C490860091D0860091D13
:103370000860091D086049484749143108607047D2
:103380008179002946D04449096802689143424A3C
:103390001160111D0968026891433F4A121D1160B6
:1033A00001793F4A1144D1F80014026811430279AF
:1033B0003B4B1A44C2F800143749083109680268C7
:1033C0009143354A08321160111D09680268914322
:1033D000314A0C321160417910290ED1111F096850
:1033E000026811432C4A08321160111D09680268F5
:1033F0001143294A0C32116018E04179284A1144DE
:10340000D1F80014026811434279254B1A44C2F8DE
:1034100000140BE00179224A1144D1F8001402682B
:10342000914302791E4B1A44C2F8001470470021E0
:10343000016001710C2141710021817170471649B1
:10344000103109680143144A103211607047014677
:103450000020114A143212680A400AB1012000E02B
:10346000002070470C491431086070470146002065
:103470000022094B1B6803EA0102074B14331B6847
:103480000B4013B10AB1012000E00020704702494F
:10349000143108607047000000040140FFFF07007E
:1034A0000000014001460020FB4A106800F038008F
:1034B000084310607047F849096821F00801F64A8E
:1034C000116011460968014311607047F2490968AB
:1034D00021F01001F04A11601146096801431160A2
:1034E0007047EE48EC494860ED4848607047EA484C
:1034F000006940F08000E849086170470420E6490F
:10350000C96801F0010109B101200EE0E249C96872
:1035100001F0040109B1022007E0DF49C96801F0A8
:10352000100109B1032000E00420704708B5002015
:103530000090FF20009002E00098401E009000984C
:103540000028F9D108BD70B504460425FFF7D6FF61
:10355000054605E0FFF7EAFFFFF7D0FF0546641ECA
:10356000012D01D1002CF5D104B90525284670BDE7
:1035700070B50546042440F6FF70FFF7E4FF0446EB
:10358000042C19D1C448006940F00200C249086106
:1035900008464561006940F04000086140F6FF7050
:1035A000FFF7D1FF0446012C06D0BB48006941F665
:1035B000FD710840B8490861204670BD10B504246B
:1035C00040F6FF70FFF7BFFF0446042C18D1B24845
:1035D000006940F00400B04908610846006940F005
:1035E0004000086140F6FF70FFF7ADFF0446012C74
:1035F00006D0A948006941F6FB710840A649086158
:10360000204610BD10B5042440F6FF70FFF79BFF65
:103610000446042C3BD1A1489F498860A04888609B
:103620000846006940F0200008610846006940F043
:103630004000086140F6FF70FFF785FF0446042C48
:103640001CD19548006941F6DF7108409249086134
:103650000846006940F010000861A52091490880E3
:103660000F20FFF770FF0446012C10D08A48006934
:1036700041F6EF7108408849086108E0012C06D046
:103680008548006941F6EF7108408349086120468A
:1036900010BD70B505460E4604240F20FFF753FFFA
:1036A0000446042C25D17C48006940F001007A4989
:1036B00008612E800F20FFF746FF0446042C0FD12F
:1036C000300C68800F20FFF73EFF0446012C10D01D
:1036D0007148006941F6FE7108406F49086108E0D1
:1036E000012C06D06C48006941F6FE7108406A4919
:1036F0000861204670BD70B505460E4604240F20B3
:10370000FFF721FF0446042C13D16348006940F001
:103710000100614908612E800F20FFF714FF044665
:10372000012C06D05C48006941F6FE7108405A49F8
:103730000861204670BD70B505460E4604240F2072
:10374000FFF701FF0446042C17D154485249886002
:10375000534888600846006940F0100008612E80D8
:103760000F20FFF7F0FE0446012C06D04A480069FE
:1037700041F6EF71084048490861204670BD2DE9C7
:10378000F04704464FF6FF763746B046B14604256B
:10379000E443E6B2C4F30727C4F307484FEA1469C9
:1037A0000F20FFF7D0FE0546042D40D13B483A4993
:1037B00088603B4888600846006940F01000086156
:1037C000FF2E06D03748083006800F20FFF7BBFEDB
:1037D0000546042D08D1FF2F06D032480A30078055
:1037E0000F20FFF7B0FE0546042D0AD1B8F1FF0FF8
:1037F00007D02C480C30A0F800800F20FFF7A3FE64
:103800000546042D0AD1B9F1FF0F07D025480E3027
:10381000A0F800900F20FFF796FE0546012D06D078
:103820001D48006941F6EF7108401B4908612846B0
:10383000BDE8F08770B50546042440F6FF70FFF739
:1038400082FE0446042C4AD1144813498860144867
:1038500088600846006940F0200008610846006959
:1038600040F04000086140F6FF70FFF76CFE044630
:10387000042C2BD10848006941F6DF710840064945
:1038800008610846006940F01000086165B1002039
:10389000044908800BE00000002002402301674536
:1038A000AB89EFCD00F8FF1FA5204549088040F601
:1038B000FF70FFF748FE0446012C10D04148006914
:1038C00041F6EF7108403F49086108E0012C06D03D
:1038D0003C48006941F6DF7108403A4908612046DA
:1038E00070BD2DE9F04107460D46164604243648C2
:1038F00034498860354888600F20FFF724FE04466D
:10390000042C1AD12F48006940F010002D4908619D
:1039100047EA0500304340F0F8002949891C088037
:103920000F20FFF710FE0446012C06D02548006941
:1039300041F6EF710840234908612046BDE8F08157
:103940002048C069800870471E48006A7047002000
:103950001C49C96901F0020109B1012000E0002001
:10396000704700201749096801F0200109B10120C2
:1039700000E00020704729B1124A12690243114B3E
:103980001A6104E00F4A126982430E4B1A617047B4
:1039900001460020012908D10A4AD26902F0010239
:1039A0000AB1012008E0002006E0064AD2680A4079
:1039B0000AB1012000E0002070470249C86070474A
:1039C00000F8FF1F0020024023016745AB89EFCDBF
:1039D00010B50446C649601A8C422FD009DCC54890
:1039E000204480B1B0F5806F16D0B0F5006F4AD199
:1039F0001BE0B0F5806F2AD0B0F5006F30D0B0F585
:103A0000406F40D135E00121042000F0FFFA002191
:103A1000042000F0FBFA37E00121082000F0F6FA5C
:103A20000021082000F0F2FA2EE00121102000F021
:103A3000EDFA0021102000F0E9FA25E00121202014
:103A400000F0E4FA0021202000F0E0FA1CE001215F
:103A5000402000F0DBFA0021402000F0D7FA13E00C
:103A60000121802000F0D2FA0021802000F0CEFA5F
:103A70000AE00121080200F0C9FA00214FF4807029
:103A800000F0C4FA00E000BF00BF10BD10B5012176
:103A9000084600F0BBFA0021012000F0B7FA10BD83
:103AA0002DE9F041024600250026002000230024D5
:103AB000002791F803C00CF00F0591F803C00CF03B
:103AC000100CBCF1000F03D091F802C04CEA0505C0
:103AD00091F800C0BCF1000F31D0146800202BE039
:103AE0004FF0010C0CFA00F3B1F800C00CEA030629
:103AF0009E4220D183004FF00F0C0CFA03F7BC4319
:103B000005FA03FC4CEA040491F803C0BCF1280F49
:103B100006D14FF0010C0CFA00FCC2F814C00AE008
:103B200091F803C0BCF1480F05D14FF0010C0CFA1D
:103B300000FCC2F810C0401C0828D1D31460B1F8B2
:103B400000C0BCF1FF0F34DD546800202EE000F10E
:103B5000080C4FF0010808FA0CF3B1F800C00CEAA9
:103B600003069E4221D183004FF00F0C0CFA03F79D
:103B7000BC4305FA03FC4CEA040491F803C0BCF111
:103B8000280F05D100F1080C08FA0CF8C2F81480CF
:103B900091F803C0BCF1480F07D100F1080C4FF0B9
:103BA000010808FA0CF8C2F81080401C0828CED38F
:103BB0005460BDE8F0814FF6FF71018002218170F1
:103BC0000421C17070470246002093680B400BB17E
:103BD000012000E0002070470146886880B27047ED
:103BE00002460020D3680B400BB1012000E000200A
:103BF00070470146C86880B27047016170474161F3
:103C000070470AB1016100E041617047C1607047CF
:103C10004FF480320A4382618161826182698269E4
:103C2000704702460020344B18684FF680731840E6
:103C300040EA02100843304B186070472F49C861B2
:103C40007047F0B50A4600230024002100252A4EC3
:103C50007168C0F3034583B200F44016B6F5401F07
:103C600008D121F07061244E766826F07066224FEC
:103C70007E6012E000F48016B6F5801F06D10326A0
:103C800006FA05F4A14341F0706106E0460D3601E5
:103C900003FA06F6B14341F0706122B1460D3601D8
:103CA00003FA06F63143144E7160F0BD30B50022C0
:103CB0008B071C0F0F2303FA04F20F4B08338C10F1
:103CC00053F8243093430C4C08348D1044F82530BD
:103CD00023468C1053F824308C07240F00FA04F488
:103CE0002343054C08348D1044F8253030BD0000C6
:103CF0000014014000F8FEBF000001400000204217
:103D0000DE48006840F00100DC4908600846406871
:103D1000DB490840D949486008460068D94908404D
:103D2000D64908600846006820F4802008600846EC
:103D3000406820F4FE004860002088607047CF494A
:103D4000096821F48031CD4A11601146096821F4D7
:103D500080211160B0F5803F03D0B0F5802F0ED1E7
:103D600006E0C649096841F48031C44A116007E0A1
:103D7000C249096841F4A021C04A116000E000BFB7
:103D800000BF704710B501460022002300204A11F1
:103D9000012A02D1B94C236806E0022A02D1B74CAD
:103DA000236A01E0B54C636A01F01F0201249440CC
:103DB0001C400CB1012000E0002010BD38B50020EF
:103DC00000900024002500BF3120FFF7DBFF0546EF
:103DD0000098401C00901DB90098B0F5A06FF3D179
:103DE0003120FFF7CFFF08B1012400E00024204676
:103DF00038BD01460020A14A106820F0F80040EAD2
:103E0000C10010607047A04908607047024600205A
:103E10009A4B586820F47C1042EA01031843974BF0
:103E20005860704798490866704701460020934AD9
:103E3000506820F003000843506070478F48406886
:103E400000F00C007047014600208C4A506820F0BA
:103E5000F00008435060704701460020874A5068D0
:103E600020F4E06008435060704701460020834A18
:103E7000506820F4605040EAC1005060704729B19A
:103E80007E4A527A02437D4B5A7204E07B4A527A50
:103E900082437A4B5A7270477B49D8310860704729
:103EA00001460020754A506820F4404008435060A5
:103EB00070470021714A20321170704A82F8201038
:103EC000012802D004280AD104E001216B4A2032E3
:103ED000117005E00521694A2032117000E000BF31
:103EE00000BF70476949086070476449096A014327
:103EF000624A11627047654944390860704730B5BD
:103F000000210022002400235C4D6D6805F00C01A7
:103F100021B1042905D0082923D105E05C4D0560B5
:103F200022E05B4D05601FE0544D6D6805F4701292
:103F3000022505EB9242514D6D6805F480341CB9A1
:103F4000544D554305600BE04C4D6D6805F400354C
:103F50001DB1504D5543056002E04D4D5543056080
:103F600002E04B4D056000BF00BF444D6D6805F099
:103F7000F0010909484D6B5C0568DD4045603F4D27
:103F80006D6805F4E061090A434D6B5C4568DD40EE
:103F900085603A4D6D6805F46051C90A3E4D6B5C11
:103FA0004568DD40C560354D6D6805F44041890BBD
:103FB0003A4D6B5CC568B5FBF3F5056130BD29B1C1
:103FC0002E4A526902432D4B5A6104E02B4A526932
:103FD00082432A4B5A61704729B1284A92690243A9
:103FE000264B9A6104E0254A92698243234B9A61E9
:103FF000704729B1214AD2690243204BDA6104E0BB
:104000001E4AD26982431D4BDA61704729B11B4AAF
:10401000D2680243194BDA6004E0184AD26882433E
:10402000164BDA60704729B1144A12690243134BE8
:104030001A6104E0114A12698243104B1A617047F9
:1040400012494039086070470F49C86470470B49EE
:10405000C87170470948406A40F08070074948625B
:10406000704701460020054A92680A400AB10120C3
:1040700000E000207047014988727047001002403C
:104080000000FFF8FFFFF6FE0000424280044242BB
:1040900000127A0000093D00420100205201002078
:1040A00010B50446F749601A8C4245D00CDCB4F1D7
:1040B000804F1DD0F448204418B3B0F5806F29D04C
:1040C000B0F5006F54D12EE0B0F5806F3DD0B0F563
:1040D0008E3F03D0B0F5923F4AD13FE00121C802A4
:1040E000FFF794FF00214FF40060FFF78FFF40E0DF
:1040F00001210846FFF797FF00210120FFF793FFFA
:1041000037E001210220FFF78EFF00210220FFF798
:104110008AFF2EE001210420FFF785FF0021042003
:10412000FFF781FF25E001210820FFF77CFF002138
:104130000820FFF778FF1CE001211020FFF773FF34
:1041400000211020FFF76FFF13E001212020FFF76F
:104150006AFF00212020FFF766FF0AE001214803E3
:10416000FFF754FF00214FF40050FFF74FFF00E02E
:1041700000BF00BF10BD028802F08F020280CA8813
:104180004B881A4303881A4302808A8882850A88EA
:104190000285BE4A904202D0BD4A904201D10A7ABD
:1041A000028601228282704770B50024002200231B
:1041B000058C4FF6FE7635400584028C8388048B8F
:1041C0004FF68F752C400D882C43751E2A400D89A3
:1041D0002A434D882A43CD888586AC4DA84202D01B
:1041E000AB4DA84213D14FF6F7752A404D892A43AB
:1041F0004FF6FB752A408D882A4347F6FF652B4012
:1042000047F6FF552B408D892B43CD892B43838067
:104210000483028470BD70B5002400220023058C45
:104220004FF6EF7635400584028C8388048B48F680
:10423000FF752C400D884FF6FF7606EA05252C43C6
:104240004FF6DF752A400D8906EA05152A434D8889
:1042500006EA05152A43CD8805878C4DA84202D071
:104260008B4DA8421DD14FF67F752A404D894FF6E0
:10427000FF7606EA05152A434FF6BF752A408D885A
:1042800006EA05152A4347F6FF352B4047F2FF752E
:104290002B408D8906EA85052B43CD8906EA8505E5
:1042A0002B4383800483028470BD70B500240022F8
:1042B0000023058C4FF6FF6635400584028C838809
:1042C000848B4FF68F752C400D882C434FF6FF558D
:1042D0002A400D894FF6FF7606EA05252A434D88C8
:1042E00006EA05252A43CD888587684DA84202D075
:1042F000674DA8421DD14FF2FF752A404D894FF6F8
:10430000FF7606EA05252A434FF6FF352A408D88B9
:1043100006EA05252A4346F6FF752B4045F6FF754C
:104320002B408D8906EA05152B43CD8906EA051534
:104330002B4383808483028470BD70B500240022E7
:104340000023058C4EF6FF7635400584028C838869
:10435000848B48F6FF752C400D884FF6FF7606EAF1
:1043600005252C434DF6FF752A400D8906EA0535D3
:104370002A434D8806EA05352A43CD88A0F84050E7
:10438000424DA84202D0424DA84207D1C3F30D03CB
:104390008D894FF6FF7606EA85152B43838084834B
:1043A000028470BD828B4FF2FF331A408283828B6E
:1043B0004FF6FF7303EA01231A4382837047F0B577
:1043C0000C461546002100220026078C4EF6FF7C85
:1043D00007EA0C070784818B028C4FF6FF7707EA08
:1043E000043640F6FF4739404FF6FF7707EA0527C6
:1043F0004FF6FF7C0CEA033C47EA0C0739434DF6C5
:10440000FF773A4046F480573A4381830284F0BDF7
:10441000828B4FF6F3731A408283828B0A43828326
:104420007047F0B50C461546002100220026078C87
:104430004FF6FF6C07EA0C070784818B028C4FF65E
:10444000FF7707EA04264FF60C7739404FF6FF77DF
:1044500007EA03172F4339434FF6FF573A4046F414
:1044600080773A4381830284F0BD028B4FF2FF33A1
:104470001A400283028B4FF6FF7303EA01231A43AB
:10448000028370470010004000FCFFBF002C014079
:1044900000340140F0B50C461546002100220026EC
:1044A000078C4FF6EF7C07EA0C070784018B028C20
:1044B0004FF6FF7707EA041640F6FF4739404FF6FC
:1044C000FF7707EA033739434FF6FF7707EA0527F7
:1044D00039434FF6DF773A4046F010073A430183FD
:1044E0000284F0BD028B4FF6F3731A400283028BF5
:1044F0000A4302837047F0B50C461546002100229E
:10450000068C4FF6FE773E400684018B028C4FF6F8
:104510000C7631407E1C06EA03162E4331437E1E84
:10452000324044F00106324301830284F0BD70B58D
:1045300005460C46208850B92389A2886188284600
:10454000FFF7D9FFE1882846FFF7CCFF25E0208858
:1045500004280AD12389A28861882846FFF79AFF98
:10456000E1882846FFF781FF17E0208808280AD154
:104570002389A28861882846FFF753FFE1882846EF
:10458000FFF746FF09E02389A28861882846FFF7E4
:1045900016FFE1882846FFF705FF70BD2DE9F041C1
:1045A00005460C4600260127608808B9022600E06F
:1045B0000026A088012801D1022700E001272088D9
:1045C000A0B92389A28861882846FFF794FFE18873
:1045D0002846FFF787FF23893A4631462846FFF7EA
:1045E00059FFE1882846FFF740FF13E02389A2889E
:1045F00061882846FFF74EFFE1882846FFF735FF20
:1046000023893A4631462846FFF775FFE188284658
:10461000FFF768FFBDE8F0810A884B881A438B8852
:104620001A43CB881A430B891A434B891A438B8947
:104630001A43A0F8442070474FF6FF718180002193
:104640000180C1804180017270470021018041805A
:104650008180C180018141818181C18170470021B8
:1046600001804180012181800021C180018170474A
:104670000021018041808180C1800181418181814F
:10468000704721B1028842F00102028004E00288F2
:1046900040F2FE331A400280704731B1B0F8442036
:1046A00042F40042A0F8442005E0B0F84420C2F3F0
:1046B0000E02A0F8442070471AB183890B4383810E
:1046C00002E083898B43838170478182704741EA8E
:1046D0000203A0F8483070471AB183890B438381E5
:1046E00002E083898B438381704701894FF6F8721A
:1046F0001140018170470A46002101894FF68F73EE
:10470000194011430181704730B504460D462946D2
:104710002046FFF7F0FF208940F00700208130BDE0
:104720002DE9F04104460D4616461F46602D06D180
:104730003B46012231462046FFF7ACFE05E03B46F2
:10474000012231462046FFF7D6FE29462046FFF7D4
:10475000D2FF208940F007002081BDE8F08170B5CC
:104760000C4600210189C9B244EA02054FF6FF76E2
:1047700006EA032635432943018170BD2DE9F04146
:1047800005460E4617469846002443463A463146AB
:104790002846FFF7E4FF2C894FF6F870044044F0F8
:1047A00007044FF68F70044044F070042C81BDE87C
:1047B000F081F0B504460D4616461F463B4632468C
:1047C00029462046FFF7CBFF208940F48040208116
:1047D000F0BD0185828270470A460021018840F2BF
:1047E0008F331940114301807047F0B50C461546D0
:1047F0001E460021002200230189028B038C4FF604
:10480000F877394021434FF6FC473A4040F2011710
:104810003A434FF6DD773B404FF6FF7707EA06173E
:104820002F433B43018102830384F0BD0A460021EC
:10483000018B4FF68F7319401143018370470A466D
:104840000021018B48F6FF7319404FF6FF7303EA0E
:1048500002231943018370470A460021818B4FF6DA
:104860008F7319401143818370470A460021818B61
:1048700048F6FF7319404FF6FF7303EA022319430A
:104880008183704721B1028842F08002028004E0F7
:10489000028840F27F331A400280704721B182883B
:1048A00042F00402828004E082884FF6FB731A40D3
:1048B0008280704721B1828842F00802828004E041
:1048C00082884FF6F7731A408280704721B1828840
:1048D00042F00102828004E082884FF6FE731A40A3
:1048E000828070470A460021018B4FF6F77319400A
:1048F0001143018370470A460021018B4FF2FF7379
:1049000019404FF6FF7303EA0223194301837047EE
:104910000A460021818B4FF6F773194011438183BA
:1049200070470A460021818B4FF2FF7319404FF602
:10493000FF7303EA02231943818370470A4600216B
:10494000018B4FF6FB7319401143018370470A46F0
:104950000021018B4FF6FF3319404FF6FF7303EA36
:1049600002231943018370470A460021818B4FF6C9
:10497000FB7319401143818370470A460021818BE4
:104980004FF6FF3319404FF6FF7303EA0223194332
:10499000818370470A460021018B4FF67F731940CF
:1049A0001143018370470A460021018BC1F30E01B8
:1049B0004FF6FF7303EA02231943018370470A4647
:1049C0000021818B4FF67F7319401143818370471B
:1049D0000A460021818BC1F30E014FF6FF7303EAF3
:1049E00002231943818370470A460021018C4FF648
:1049F000FD7319401143018470470A460021018C60
:104A00004FF6F77319401143018470470A4600219D
:104A1000018C4FF6DF7319404FF6FF7303EA021360
:104A20001943018470470A460021018C4FF67F73B9
:104A300019404FF6FF7303EA0213194301847047CC
:104A40000A460021018C4FF6FF5319404FF6FF73C1
:104A500003EA02231943018470470A460021018CAE
:104A60004FF2FF7319404FF6FF7303EA0223194315
:104A7000018470470A460021018C4DF6FF731940EE
:104A80004FF6FF7303EA023319430184704710B5F0
:104A9000038C01248C40A3430384038C02FA01F4A9
:104AA000A4B22343038410BD10B5038C04248C40AE
:104AB000A3430384038C02FA01F4A4B223430384C6
:104AC00010BD30B5038C01248C40A343038409B18D
:104AD000082918D100F1180303EB61031B684FF696
:104AE0008F74234000F1180404EB6104236000F18B
:104AF000180303EB61031B68134300F1180404EB74
:104B0000610423601FE00B1FC3F34E0400F1180380
:104B10001B5948F6FF7423400C1FC4F34E0500F1E7
:104B2000180463510B1FC3F34E0400F118031B5903
:104B30004FF6FF7404EA022423430C1FC4F34E050E
:104B400000F11804635130BD21B1028842F0020225
:104B5000028004E0028840F2FD331A400280704770
:104B600021B1028842F00402028004E0028840F28F
:104B7000FB331A400280704721B1828842F08002E4
:104B8000828004E082884FF67F731A4082807047EB
:104B9000028840F2F7331A40028002880A430280FA
:104BA000704782884FF68F731A40828082880A434A
:104BB0008280704702894FF6F8731A400281028999
:104BC0000A430281704702894FF67F731A400281BF
:104BD00002890A430281704781847047818570474A
:104BE000818670470187704781877047A0F8401021
:104BF00070470288D2B2028002880A43028070475E
:104C00000146888E70470146088F70470146888F9D
:104C100070470146B1F8400070470146888C7047E4
:104C20000146088D704702460020138A0B400BB1E5
:104C3000012000E000207047CA430282704730B56F
:104C40000246002000230024158A05EA0103958905
:104C500005EA010413B10CB1012000E0002030BDD1
:104C6000CA4302827047000010B501214807FFF7D0
:104C7000DAF900214FF00050FFF7D5F910BD30B53B
:104C8000002200234D4C226840F6FE748440A2436B
:104C9000D1E900452C438D682C43CD6844EA0503D7
:104CA00003FA00F42243454C226030BD002101602C
:104CB00041608160C160704739B1404A1268012388
:104CC00083401A433D4B1A6006E03C4A12680123B8
:104CD00083409A43394B1A60704741B1374A126892
:104CE0004FF4805383401A43344B1A6007E0334A31
:104CF00012684FF4805383409A43304B1A607047D8
:104D000010B551B12D4A121D126804090123A340A8
:104D10001A432A4B1B1D1A6009E0284A121D12680B
:104D200004090123A3409A43244B1B1D1A6010BDA4
:104D300040B12249091D096841F003011F4A121DB3
:104D4000116007E01D49091D096821F003011B4A94
:104D5000121D1160704710B53AB1184B1B6801FA6B
:104D600000F42343154C236006E0144B1B6801FA42
:104D700000F4A343114C236010BD114A0244C2F851
:104D8000081470470E4A0244C2F81414704710B554
:104D90000023082802D142EA012301E042EA01434C
:104DA000074C0444C4F8203410BD0146044A02EB09
:104DB0009100D0F82C0480B27047000000740040CD
:104DC00000700040016821F00101016000210160D4
:104DD00041608160C160874A811A90425BD012DCD9
:104DE000854AA0EB020190423AD007DC8349014496
:104DF000D9B1142922D028297AD128E0142938D011
:104E0000282975D13EE0B1F56C7F5BD006DCB1F5A9
:104E1000627F49D0B1F5677F6AD14CE0B1F5717F0F
:104E200057D0B1F5767F63D15BE073494439496867
:104E300041F00F01704A443A51605AE06E494439DA
:104E4000496841F0F0016C4A443A516051E06A49C6
:104E50004439496841F47061674A443A516048E016
:104E600065494439496841F47041634A443A5160A4
:104E70003FE061494439496841F470215E4A443A4F
:104E8000516036E05C494439496841F470015A4A3E
:104E9000443A51602DE058494439496841F0706105
:104EA000554A443A516024E05549096841F00F01E0
:104EB000534A11601DE05249096841F0F001504A1F
:104EC000116016E04E49096841F470614C4A116066
:104ED0000FE04B49096841F47041494A116008E00C
:104EE00006E04749096841F47021454A116000E035
:104EF00000BF00BF704710B50022026847F6F0738C
:104F00009A430C6A8B6823430C6923434C692343FF
:104F10008C692343CC6923434C6A23438C6A234323
:104F20001A430260CB6843600B6883604B68C360C0
:104F300010BD0021016041608160C160016141617B
:104F40008161C161016241628162704721B1026881
:104F500042F00102026003E0026822F001020260F6
:104F600070471AB103680B43036002E003688B4388
:104F7000036070470146486880B2704701460020D0
:104F8000002201F080531BB11D4B1B1F1A6802E069
:104F9000194B443B1A6802EA01030BB1012000E0FF
:104FA0000020704700F0805111B11549086002E0FF
:104FB000114944394860704701460020002201F041
:104FC00080531BB10E4B1B1F1A6802E00A4B443B77
:104FD0001A6802EA01030BB1012000E000207047CB
:104FE00000F0805111B10649086002E002494439DD
:104FF000486070478000024044000240F8FFFDBF57
:1050000004040240704708488047084981F3088833
:1050100007480047FEE7FEE7FEE7FEE7FEE7FEE79C
:10502000FEE7FEE7FEE7FEE705500008E00F002080
:105030003101000840EA01039B0703D009E008C9D9
:10504000121F08C0042AFAD203E011F8013B00F84D
:10505000013B521EF9D27047064C074D06E0E0684E
:1050600040F0010394E8070098471034AC42F6D3AF
:10507000FBF762F81C5300083C53000870B58C180D
:1050800010F8015B15F0070301D110F8013B2A115C
:1050900006D110F8012B03E010F8016B01F8016B49
:1050A0005B1EF9D12B0705D40023521E0DD401F845
:1050B000013BFAE710F8013BCB1A921C03E013F80E
:1050C000015B01F8015B521EF9D5A142D8D3002043
:1050D00070BD02E008C8121F08C1002AFAD170474B
:1050E0007047002001E001C1121F002AFBD1704768
:1050F00000C8030800D0030800D8030800E0030834
:1051000000E8030800F0030800C1814001C08041AD
:1051100001C0804100C1814001C0804100C1814087
:1051200000C1814001C0804101C0804100C1814077
:1051300000C1814001C0804100C1814001C0804167
:1051400001C0804100C1814001C0804100C1814057
:1051500000C1814001C0804100C1814001C0804147
:1051600001C0804100C1814000C1814001C0804137
:1051700001C0804100C1814001C0804100C1814027
:1051800000C1814001C0804101C0804100C1814017
:1051900000C1814001C0804100C1814001C0804107
:1051A00001C0804100C1814000C1814001C08041F7
:1051B00001C0804100C1814001C0804100C18140E7
:1051C00000C1814001C0804100C1814001C08041D7
:1051D00001C0804100C1814001C0804100C18140C7
:1051E00000C1814001C0804101C0804100C18140B7
:1051F00000C1814001C0804100C1814001C08041A7
:1052000001C0804100C1814000C0C101C30302C28E
:10521000C60607C705C5C404CC0C0DCD0FCFCE0EF6
:105220000ACACB0BC90908C8D81819D91BDBDA1A66
:105230001EDEDF1FDD1D1CDC14D4D515D71716D6D6
:10524000D21213D311D1D010F03031F133F3F23246
:1052500036F6F737F53534F43CFCFD3DFF3F3EFEB6
:10526000FA3A3BFB39F9F83828E8E929EB2B2AEA26
:10527000EE2E2FEF2DEDEC2CE42425E527E7E62696
:1052800022E2E323E12120E0A06061A163A3A26206
:1052900066A6A767A56564A46CACAD6DAF6F6EAE76
:1052A000AA6A6BAB69A9A86878B8B979BB7B7ABAE6
:1052B000BE7E7FBF7DBDBC7CB47475B577B7B67656
:1052C00072B2B373B17170B05090915193535292C6
:1052D00096565797559594549C5C5D9D5F9F9E5E36
:1052E0005A9A9B5B99595898884849894B8B8A4AA6
:1052F0004E8E8F4F8D4D4C8C448485458747468616
:10530000824243834181804000A24A0400A24A04B1
:1053100000A24A040051250200A24A043C5300089E
:1053200000000020580100007C500008B85300081D
:1053300058010020880E0000E250000823803E1B28
:105340008025041A0C04190C4B2C010211327D2209
:105350004B4BC012081210120812011A80022202CE
:10536000130220124022042A01061A0218191F3BB8
:1053700080202429041A801E111A141D69041A1091
:10538000049A0810A9141A18045A0C0C2904290CA0
:1053900009121069045940321032083280196E1116
:1053A000057A040307062D01020304041808060702
:0853B00008090204069900003F
:0400000508000131BD
:00000001FF
