:020000040800F2
:10000000000400201353000851260008532600085E
:10001000572600085B2600085F2600080000000045
:10002000000000000000000000000000632600083F
:100030006526000800000000672600086926000801
:100040003353000833530008335300083353000878
:100050003353000833530008335300083353000868
:1000600033530008C92400089124000833530008C2
:100070001D2600083353000833530008335300088B
:100080003353000833530008335300083353000838
:100090003353000833530008335300080125000888
:1000A0003353000833530008335300083353000818
:1000B00081190008651C0008C11E000833530008A0
:1000C00033530008335300083353000833530008F8
:1000D0003353000833530008335300081526000833
:1000E00091250008335300083353000833530008A8
:1000F00033530008335300083353000833530008C8
:100100003353000833530008B92100083353000863
:1001100033530008335300083353000833530008A7
:100120003353000833530008335300083353000897
:10013000DFF80CD005F016F900480047D516000886
:10014000F00F002000B585B00121042004F0CAF8AA
:100150000121480704F0D3F81020ADF8000000207A
:100160008DF803006946FE4803F020FE0020019050
:1001700002904FF4006003900020049001A904F065
:1001800004FF0121002004F01DFF0021084604F0B7
:100190007AFF05B000BD00B585B00121042004F050
:1001A000A1F80121480704F0AAF82020ADF80000CA
:1001B00000208DF803006946E94803F0F7FD0020B0
:1001C000019002904FF4006003900020049001A978
:1001D000102004F0DAFE0121102004F0F3FE0021CB
:1001E000084604F055FF05B000BD30B589B005469E
:1001F0000C46012142F2100004F074F8C020ADF862
:10020000200018208DF8230003208DF8220008A973
:10021000D44803F0CBFDADF81850ADF814400020E1
:10022000ADF81A00ADF8160005A9CF4804F029F979
:100230006020ADF804000120ADF806000020ADF804
:100240000A00ADF80C0001A9C74804F033F960209A
:10025000ADF804000120ADF806000020ADF80A005A
:10026000ADF80C0001A9C04804F05BF90121BE48BB
:1002700004F099FB0821BC4804F0BAFC0821BA48F4
:1002800004F0BFFC0021B84804F030FE0021B6485D
:1002900004F02EFE0121B44804F07AFC0121B2489A
:1002A00004F075FB09B030BD70B5064606EB0620BC
:1002B00000EB40004FF47A7190FBF1F540F693505B
:1002C000854200D90546ACB22146002004F0DBFE91
:1002D00070BD70B5064606EB062000EB40004FF4FB
:1002E0007A7190FBF1F540F69350854200D90546AE
:1002F000ACB22146002004F0CBFE70BD70B50646BE
:1003000041F6160070434FF47A7190FBF1F546F612
:100310006340854200D90546ACB22146924804F0BC
:10032000E7FD70BD70B5064641F6160070434FF408
:100330007A7190FBF1F546F66340854200D9054697
:10034000ACB22146884804F0D1FD70BD10B501243F
:100350001CE0621E854B33F81210854B53F82200C7
:1003600003F0D1FD621E834B33F81210824B53F819
:10037000220003F0C8FD621E804B33F81210804B40
:1003800053F8220003F0BFFD601CC4B2052CE0DB73
:100390004FF480417B4803F0B6FD4FF4805179481B
:1003A00003F0B1FD4FF48041774803F0ACFD4FF40A
:1003B0008051754803F0A7FD4FF40041714803F0E8
:1003C000A2FD4FF400516F4803F09DFD4FF4004132
:1003D0006D4803F098FD4FF400516B4803F093FD16
:1003E00000244CE0694850F8240004EB840101EB40
:1003F000C401674A02EB410108604FF4C86004EB96
:10040000840101EBC40102EB41014860C82004EB08
:10041000840101EBC40102EB4101088104EB84017A
:1004200001EBC40102EB41014881642004EB84012B
:1004300001EBC40102EB410188814FF47A7004EBB7
:10044000840101EBC40102EB4101C881002004EBEF
:10045000840101EBC40102EB4101088204EB840139
:1004600001EBC40102EB4101C1F8120004EB84016D
:1004700001EBC40102EB4101C882601CC4B2042C30
:10048000B0DB10BD2DE9F04104460E4615461F466F
:10049000DDF81880002E29DA601E3E4951F8200050
:1004A000002805DC0121601E3B4A1154BDE8F081A3
:1004B0000121601E00EB400202EBC000374A02EB54
:1004C00040004170621E2B4B33F812102A4B53F838
:1004D000220003F018FD621E284B33F81210284B3F
:1004E00053F8220003F011FD764261E0601E2949B5
:1004F00051F8201000EB800202EBC000244A02EB0E
:1005000040000068814209DC621E254B33F812105E
:10051000244B53F8220003F0DCFC20B90121601EBB
:10052000214A1154C2E70021601E1F4A115400EBFA
:10053000400202EBC000194A02EB40004170621E0B
:100540000C4B33F812100C4B53F8220003F0DDFC77
:10055000621E0A4B33F81210094B53F8220025E0B3
:100560000008014000100140003401402800002034
:100570007800002030000020880000203800002093
:100580009800002000140140000C014000000020F1
:100590007703002050010020D000002070010020CF
:1005A0004000002058000020CC00002003F0ADFCEB
:1005B000012C06D0022C13D0032C20D0042C3CD1CB
:1005C0002CE04FF48051FE4803F083FCFD49087095
:1005D0004FF40051FA4803F07CFCFB4908702CE012
:1005E0004FF48041F64803F074FCF64948704FF42C
:1005F0000041F34803F06DFCF34948701DE04FF4EF
:100600008071F24803F065FCEE4988704FF4007188
:10061000EE4803F05EFCEC4988700EE04FF4806118
:10062000EA4803F056FCE749C8704FF40061E74818
:1006300003F04FFCE449C87000BF00BF0021601EFA
:10064000E34A1154E34A1154E34A115400EB4001C8
:1006500001EBC000E14901EB4000C0F81260E8196D
:10066000B04205DD304606EBD071C1F34F052F4691
:10067000012E5DD10221601E00EB400202EBC000A2
:10068000D64A02F810104FF47A71601E00EB400257
:1006900002EBC000D14A02EB4000C0F80210012C6E
:1006A00006D0022C09D0032C0ED0042C1AD112E053
:1006B0000A2041078886888514E00A20C8490880F6
:1006C000C749083908800DE00A20C6490880C54995
:1006D0000839088006E00A20C3490880C249083961
:1006E000088000BF00BF0121601EC04A1154012CC8
:1006F00006D0022C09D0032C0DD0042C17D110E009
:100700000121880704F043F911E00121B44834388D
:1007100004F03DF90BE00121B248343804F037F918
:1007200005E00121B048343804F031F900BFAEE1F2
:10073000002EFCD0C8F164000A2101EB400081B218
:10074000601E00EB400202EBC000A44A02EB400036
:10075000C181601E00EB400101EBC000114601EBBE
:100760004000C0890A2809DA0A21601E00EB400215
:1007700002EBC000994A02EB4000C181B5F57A7FD7
:1007800017DD601E00EB400101EBC000934901EB57
:100790004000C089C0F57A7090FBF5F081B2601E10
:1007A00000EB400202EBC0008C4A02EB400081816A
:1007B00045E0601E00EB400101EBC000874901EB02
:1007C0004000C089A8420ADD0121601E00EB400202
:1007D00002EBC000814A02EB400081812FE0642DD2
:1007E00017DA601E00EB400101EBC0007B4901EB12
:1007F0004000C089C0F1640090FBF5F081B2601E3A
:1008000000EB400202EBC000744A02EB4000818121
:1008100015E0601E00EB400101EBC0006F4901EBE9
:100820004000C089281A90FBF5F081B2601E00EBF1
:10083000400202EBC000694A02EB40008181601E69
:1008400000EB400101EBC000644901EB40008089EE
:10085000002809DC0121601E00EB400202EBC00011
:100860005E4A02EB40008181B7F57A7F17DD601E9A
:1008700000EB400101EBC000584901EB4000C0898A
:10088000C0F57A7090FBF7F081B2601E00EB400279
:1008900002EBC000514A02EB4000418145E0601E7E
:1008A00000EB400101EBC0004C4901EB4000C08966
:1008B000B8420ADD0121601E00EB400202EBC000DD
:1008C000464A02EB400041812FE0642F17DA601E98
:1008D00000EB400101EBC000404901EB4000C08942
:1008E000C0F1640090FBF7F081B2601E00EB4002A3
:1008F00002EBC000394A02EB4000418115E0601E66
:1009000000EB400101EBC000344901EB4000C0891D
:10091000381A90FBF7F081B2601E00EB400202EB48
:10092000C0002E4A02EB40004181601E00EB4001F6
:1009300001EBC000294901EB40004089002809DC97
:100940000121601E00EB400202EBC000234A02EBD3
:1009500040004181B5F57A7F0CDD4FF47A71601E5D
:1009600000EB400202EBC0001C4A02EB4000C0F862
:10097000021017E0642D0BDA6421601E00EB4002C8
:1009800002EBC000154A02EB4000C0F8021009E07B
:10099000601E00EB400101EBC000104901EB40007C
:1009A000C0F80250F11B601E00EB400202EBC000D9
:1009B0000A4A02EB4000C0F806100121601E17E051
:1009C00000180140F8000020FC0000200014014045
:1009D000D4000020D0000020CC00002070010020B6
:1009E0003404004034080040340C00400201002070
:1009F00000EB400202EBC000FE4A02F81010601E3D
:100A0000FD4A1154012C06D0022C09D0032C0ED023
:100A1000042C1AD112E00A2041078886888514E048
:100A20000A20F6490880F549083908800DE00A20B7
:100A3000F3490880F2490839088006E00A20F149A4
:100A40000880F0490839088000BF00BF012C06D09B
:100A5000022C09D0032C0DD0042C17D110E0012159
:100A6000880703F094FF11E00121E448343803F0D3
:100A70008EFF0BE00121E248343803F088FF05E0E7
:100A80000121E048343803F082FF00BF00BF00BFFF
:100A90000CE52DE9F84304460D4616461F46DDF8E1
:100AA0002080601ED84951F820002D1A3B4632465E
:100AB00029462046CDF80080FFF7E4FCBDE8F88326
:100AC000F8B5044604EB840000EBC400CF4901EB09
:100AD0004000C089B0F57A6F09DD4FF47A6004EB0D
:100AE000840101EBC401C94A02EB4101C88134B160
:100AF000012C0FD0022C18D0032C2CD120E004EBB9
:100B0000840101EBC401C14A02EB4101C889FFF72E
:100B1000E0FB20E004EB840101EBC401BB4A02EBE3
:100B20004101C889FFF7C0FB15E004EB840101EB2C
:100B3000C401B64A02EB4101C889FFF7DFFB0AE0B6
:100B400004EB840101EBC401B04A02EB4101C88906
:100B5000FFF7E8FB00BF00BF04EB440000EBC4005C
:100B6000A44911F81000002876D104EB840000EBB2
:100B7000C400A64901EB4000008A00286CD004EBB9
:100B8000840000EBC40001EB4000008A01282CD156
:100B9000002004EB840101EBC4019C4A02EB4101FB
:100BA000088304EB840000EBC400114601EB400015
:100BB000007B04EB840505EBC4050E4606EB4505FA
:100BC00000906B8904EB840505EBC40506EB450535
:100BD0002A8904EB840505EBC40506EB4505696825
:100BE000651CE8B2FFF74EFCD5E004EB840000EB97
:100BF000C400864901EB4000008A02282DD1002064
:100C000004EB840101EBC401804A02EB410108833B
:100C100004EB840000EBC400114601EB4000007BB4
:100C200004EB840505EBC4050E4606EB4505009074
:100C30006B8904EB840505EBC40506EB45052A89A1
:100C400004EB840505EBC40506EB45056968651CE6
:100C5000E8B2FFF71EFF9EE081E004EB840000EBAA
:100C6000C4006A4901EB4000008A03280CD100202F
:100C700004EB840101EBC401644A02EB41010883E7
:100C800001206349085586E004EB840000EBC400B2
:100C90005E4901EB4000008A072849D1012004EB9E
:100CA000840101EBC401594A02EB4101088304EBC2
:100CB000840000EBC400114601EB400040680028AE
:100CC00008DA544804EB840101EBC40102EB410152
:100CD000486009E04F48404204EB840101EBC40145
:100CE0004A4A02EB4101486004EB840000EBC40077
:100CF000464901EB4000007B04EB840505EBC4058D
:100D00000E4606EB450500906B8904EB840505EB68
:100D1000C40506EB45052A8904EB840505EBC405EB
:100D200006EB45056968651CE8B2FFF7ABFB32E0EE
:100D300004EB840000EBC400344901EB4000008A5E
:100D4000082828D1002004EB840101EBC4012F4ABC
:100D500002EB4101088301202F4908551BE026487A
:100D6000005DC0B104EB840000EBC400274901EB37
:100D70004000008A04280ED1002004EB840101EB1E
:100D8000C401224A02EB410108830120234908558E
:100D9000002021490855002004EB840101EBC40127
:100DA0001A4A02EB41010882204601F091FDF8BD8C
:100DB00008B51148807860B1194A9188194A90683D
:100DC00003F087F828B901201449887000201249DF
:100DD00088700948C07860B1114AD188114AD0683A
:100DE00003F077F828B901200C49C87000200A499F
:100DF000C87019E070010020020100203404004096
:100E000034080040340C00405001002077030020DB
:100E1000EC000020006CCA88F0000020D400002004
:100E20004800002068000020FE48007870B9FE4AA3
:100E30001188FE4A106803F04CF838B96420C823C2
:100E40001A46FB4900900120FFF71CFBF54800788B
:100E500078B9F54A5188F54A506803F03AF840B934
:100E60006420C8231A46F249494200900120FFF746
:100E700009FB08BDF8B50446601EC4B2ED48005D2C
:100E8000052871D2DFE800F00304101945006BE07B
:100E9000E448005D38B90120E7490855E548005DA0
:100EA000401CE44908555FE0E348005D20B9E14893
:100EB000005D401CDF49085556E0DA48005D38BB4C
:100EC00004EB840000EBC400DC4901EB4000007B34
:100ED00004EB840505EBC4050E4606EB45050090C2
:100EE0006B8904EB840505EBC40506EB45052A89EF
:100EF00004EB840505EBC40506EB45056968651C34
:100F0000E8B2FFF7BFFACB48005D401CC94908555D
:100F10002AE0C448005D30BB04EB840000EBC40051
:100F2000C64901EB4000007B04EB840505EBC405DA
:100F30000E4606EB450500906B8904EB840505EB36
:100F4000C40506EB45052A8904EB840505EBC405B9
:100F500006EB45056D686942651CE8B2FFF792FA39
:100F60000320B449085500BF00BFF8BD38B504469A
:100F7000601EC4B2B048005D052804D2DFE800F06E
:100F80000304A4DDF20026E1A648005D00285BD141
:100F9000AB4A32F81410AB4A52F8240002F099FF21
:100FA000002852D00020A849085534B1012C0BD09C
:100FB000022C10D0032C1CD114E0A448006840F08F
:100FC0001000A249086014E0A048006840F0080042
:100FD0009E4908600DE09D48006840F080009B49F4
:100FE000086006E09948006840F0400097490860B2
:100FF00000BF00BF04EB840000EBC4008F4901EB8D
:101000004000006800F5C860914941F8240004EBF5
:10101000840000EBC400894901EB4000007B04EB35
:10102000840202EBC4020B4603EB420200901268FA
:1010300002F5C8625142621CD0B2C8231A46FFF7BB
:1010400021FA03207C4908553DE034B1012C0BD036
:10105000022C10D0032C1CD114E07C48006820F036
:1010600010007A49086014E07848006820F0080011
:10107000764908600DE07548006820F080007349EB
:10108000086006E07148006820F040006F49086081
:1010900000BF00BF4FF4E1606D4941F8240004EB4C
:1010A000840000EBC400654901EB4000007B611C3B
:1010B0000090C8B2C8231A46D900FFF7E3F902210D
:1010C000601E5D4A115486E05648005DA0BB0020BA
:1010D0005D49085534B1012C0BD0022C10D0032CE3
:1010E0001CD114E05948006840F0100057490860CE
:1010F00014E05648006840F00800544908600DE0CC
:101100005248006840F080005049086006E04F48AF
:10111000006840F040004D49086000BF00BF142047
:10112000611C0090C8B24FF496731A464949FFF704
:10113000A9F90320404908554DE03A48005DE0BB5D
:101140004148005DC8B334B1012C0CD0022C11D041
:10115000032C1DD115E03D48006820F010003B49EC
:10116000086015E02AE03948006820F00800374997
:1011700008600DE03548006820F0800033490860C1
:1011800006E03248006820F040003049086000BFA7
:1011900000BF0020304908552D4941F82400142093
:1011A0002E4A009032F81410621CD0B264231A4602
:1011B000FFF768F90420204908550CE01948005D44
:1011C00040B900201C490855214941F82400244910
:1011D00041F8240000BF00BF38BD10B50446601EB2
:1011E00000EB400101EBC0001E4901EB40004078DC
:1011F000F0BB601E164951F8201000EB800202EB94
:10120000C0000E4A02EB40000068814209DC621E09
:10121000154B33F81210154B53F8220002F059FE0B
:1012200030BB26E0020100204800002068000020BA
:1012300000E20400F0000020EC0000207703002012
:1012400050000020A8000020E80000200004014019
:1012500050010020F8F8FFFFD4000020100000200B
:10126000C80100207001002040000020580000202C
:1012700004E00121601EFE4A115403E00021601EBB
:10128000FB4A1154601EFB4951F82000002804DD80
:101290000021601EF84A11540EE0601E00EB400170
:1012A00001EBC000F54901EB40004078012803D173
:1012B0000121601EF04A115410BD08B54FF4407072
:1012C00001F0B0FF00214FF0006001F0E2FF2520A7
:1012D0008DF8000004208DF8010001208DF8030036
:1012E000684601F0A4FF09208DF8000002208DF867
:1012F00001008DF8020001208DF80300684601F01E
:1013000096FF0A208DF80000684601F090FF172034
:101310008DF80000684601F08AFF28208DF8000053
:10132000684601F084FF08BD0EB50121092002F0D6
:10133000D9FF0121D24802F00AFE1820ADF80800BA
:1013400004208DF80B0002A9CE4802F02FFD0121E8
:10135000212002F0C7FFC020ADF8080004208DF85E
:101360000B0002A9C84802F021FD0321012002F070
:1013700023FE0421012002F01FFE0621032002F0BB
:101380001BFE0721032002F017FED820009000204A
:101390008DF804000C208DF8050001208DF8060062
:1013A000684602F073F9082002F0F7F9102002F005
:1013B000F4F9402002F0F1F9802002F0EEF90EBDC0
:1013C0007FB505460C460121082002F098FFADF8D4
:1013D0000850ADF804400020ADF80A00ADF8060052
:1013E00001A9AA4803F04DF832208DF80000002032
:1013F0008DF8010003208DF8020001208DF8030014
:10140000684601F014FF0121A04803F0AFFD01225E
:1014100011469E4803F0D6FA7FBD7FB505460C46BF
:101420000121042002F06BFFADF80850ADF8044034
:101430000020ADF80A00ADF8060001A9944803F0B9
:1014400020F801221146924803F0BCFA1E208DF8C4
:10145000000000208DF8010002208DF8020001201C
:101460008DF80300684601F0E2FE0121884803F090
:101470007DFD01221146864803F0A4FA7FBD7FB5A9
:1014800005460C460121022002F039FFADF8085054
:10149000ADF804400020ADF80A00ADF8060001A93F
:1014A0007C4802F0EEFF012211467A4803F08AFAE6
:1014B0001D208DF8000000208DF8010001208DF81E
:1014C00002008DF80300684601F0B1FE0121714869
:1014D00003F04CFD012211466E4803F073FA7FBD04
:1014E0007FB505460C460121084602F008FFADF81D
:1014F0000850ADF804400020ADF80A00ADF8060031
:1015000001A94FF0804002F0BCFF01221146900774
:1015100003F058FA1C208DF8000001208DF801001E
:1015200000208DF8020001208DF80300684601F0CC
:101530007EFE0121880703F019FD01221146900764
:1015400003F040FA7FBD08B50121042002F0CAFE75
:101550004FF40040ADF8000048208DF803006946C4
:101560004D4802F023FCFE20ADF8000010208DF85D
:10157000030003208DF802006946474802F016FC7C
:101580000121082002F0AEFE0121880402F0B7FE1E
:101590004FF48060ADF8000003208DF802001820A1
:1015A0008DF803006946374802F000FC4FF40060F4
:1015B000ADF8000004208DF803006946314802F0C0
:1015C000F5FB1820ADF8000048208DF803006946AF
:1015D0002C4802F0EBFB4FF2E330ADF80000102096
:1015E0008DF8030003208DF802006946254802F0BB
:1015F000DDFB0121102002F075FE4FF48050ADF8A4
:10160000000048208DF803006946244802F0CEFB14
:10161000F020ADF8000010208DF8030003208DF8B5
:10162000020069461D4802F0C1FB0121202002F0A2
:1016300059FE40F6FF70ADF8000048208DF8030019
:101640006946114802F0B2FB4FF47040ADF800005B
:1016500010208DF8030003208DF8020069460A4827
:1016600002F0A4FB0121402002F03CFE18E0000043
:10167000CC00002050010020D0000020700100208C
:1016800000023000000C014000140140000C00403A
:101690000008004000040040000801400010014024
:1016A0004FF47040ADF8000048208DF80300694603
:1016B000FD4802F07BFB40F68370ADF8000010207F
:1016C0008DF8030003208DF802006946F64802F009
:1016D0006DFB08BDFFF737FFFEF738FE01F070FD28
:1016E00040214FF47A70FFF7FBFE40214FF47A70EF
:1016F000FFF7C5FE40214FF47A70FFF78EFE4021C0
:101700004FF47A70FFF75CFEFFF70EFEFFF7D5FD92
:10171000FEF718FDFEF73FFD01F062FA00214FF4DD
:101720000040FEF762FD4FF47A70FEF7D2FD4FF4F1
:101730007A70FEF7B9FD4FF47A70FEF7DFFD4FF4D3
:101740007A70FEF7EFFD00240FE0D84800EB44006C
:101750000088B0F5C86F06DAD44800EB4400008872
:10176000D34921F81400601CC4B2042CEDDB69E0FD
:1017700001241FE02046FFF730FD2046FFF7F6FB6F
:101780002046FFF777FBCB4850F8240004EB840198
:1017900001EBC401C84A02EB4101C1F81200C7487D
:1017A000005D04EB840101EBC40102EB4101C8823E
:1017B000601CC4B2052CDDDB4FF48051BA4802F046
:1017C00088FB28B14FF48041BD4802F09CFB04E047
:1017D0004FF48041BA4802F098FB4FF48041B24880
:1017E00002F077FB28B14FF40041B54802F08BFBC3
:1017F00004E04FF40041B24802F087FBB1480078A2
:1018000001280BD1002404E02046FFF759F9601CA1
:10181000C4B2042CF8DB0020AA490870AA4800785A
:10182000012804D101F0A7FC0020A7490870FFF7A8
:10183000BFFAA6480078012804D101F0FAF9002087
:10184000A249087094E770B504460D46E1B2A0487D
:1018500001F075FE00BF40219D4801F0C7FE002841
:10186000F9D0204670BD10B588B00121084602F0BD
:1018700046FD0121022002F042FD0121042002F078
:101880003EFD0121082002F03AFD4FF6FF70ADF851
:1018900018000020ADF81400ADF81A00ADF81600DD
:1018A00005A98C4802F0EDFD05A94FF0804002F03B
:1018B000E8FD05A9884802F0E4FD05A9874802F083
:1018C000E0FD8748006840088649B0FBF1F0401E03
:1018D00084B201222146900703F001F9012221463A
:1018E0007C4803F0FCF8012221467B4803F0F7F81E
:1018F00001222146794803F0F2F81020ADF80400E7
:101900000120ADF806000A20ADF80A000020ADF86D
:101910000C0001A94FF0804002F0CCFD01A96D48F8
:1019200002F0C8FD01A96C4802F0C4FD01A96B4892
:1019300002F0C0FD0121880703F004FB0121654886
:1019400003F000FB0121644803F0FCFA0121634825
:1019500003F0F8FA01221146900703F033F8012250
:1019600011465C4803F02EF8012211465A4803F054
:1019700029F801221146594803F024F808B010BD97
:1019800010B50121880703F0E0FA18B1012188079A
:1019900003F0ECFA544840884FF080418886524862
:1019A000408888855048007870B110214F4802F077
:1019B0009DFA012804D110214C4802F0A6FA03E058
:1019C00010214A4802F09FFA4948007810B10128D6
:1019D00038D115E04FF48051334802F07AFA454986
:1019E000097888420BD042480078401C4049087072
:1019F0004FF480512C4802F06CFA3E49087021E007
:101A00004FF40051284802F064FA3B4909788842B3
:101A100017D03548407828B938480068401C374905
:101A2000086004E035480068401E34490860002022
:101A30002F4908704FF400511B4802F04AFA2E4912
:101A4000087000BF00BF2E480078401C2C49087069
:101A500008460078022870D10020087022480078DB
:101A600030B1012812D0022868D003280DD193E0AC
:101A700000202449086000214FF0804002F087FFD9
:101A800000200E49087020490870E9E01D480068F0
:101A9000401C1C49086014484078B8BB05480068E1
:101AA000401C0449086037E000180140E3050020AD
:101AB00010000020500100207703002002010020C8
:101AC00000140140340100203301002035010020C2
:101AD000003801400004004000080040000C0040B5
:101AE0001856000840420F0070010020001001400D
:101AF000F4000020F8000020FC000020C8010020B5
:101B00001801002014010020D8000020FFE7FE4843
:101B10000068401EFC490860FC48D0F80200FB4900
:101B2000898988420BDDF948D0F80200F749898994
:101B3000401AF649C1F8020006E092E05FE0F3487F
:101B4000C089F249C1F80200F148007828B9F1488B
:101B5000007810B9F048007840B1EC48D0F80600A1
:101B6000EE4908600220E949087014E0E748D0F81F
:101B70000600EA490968884203D80220E349087050
:101B800009E0E248D0F80200E049C989884202DC55
:101B90000320DE49087063E0E0480068401CDF492C
:101BA0000860DA48407828B9D7480068401CD64910
:101BB000086004E0D4480068401ED3490860D44857
:101BC000007828B9D348007810B9D348007840B1DC
:101BD000CE48D0F80600D14908600220CB490870F1
:101BE0000CE0CF48008B48B9C848D0F80600CB4974
:101BF0000968884202D80220C449087030E0C7480A
:101C00000068401CC5490860C048407828B9BE48F3
:101C10000068401CBC49086004E0BB480068401EE6
:101C2000B9490860B948D0F80200B8494989084460
:101C3000B649C1F802000846D0F80200B0F57A7F34
:101C400003DD4FF47A70C1F80200B048D0F81200FA
:101C5000B2490968884202D80020AC49087000BF28
:101C600000BF10BD10B50121AE4803F06EF918B1E8
:101C70000121AC4803F07AF9A448008BA94934311A
:101C80000880A248008BA7492C3108809F48807D9E
:101C900070B10821A44802F029F9012804D10821D3
:101CA000A14802F032F903E008219F4802F02BF925
:101CB0009E48407810B1012838D115E04FF480419A
:101CC0009B4802F006F99B49497888420BD0974817
:101CD0004078401C954948704FF48041944802F088
:101CE000F8F89449487021E04FF40041904802F020
:101CF000F0F891494978884217D08448C07D28B9C6
:101D00008E484068401C8D49486004E08B4840681C
:101D1000401E8A4948600020844948704FF40041C1
:101D2000834802F0D6F88449487000BF00BF844859
:101D30000078401C824908700846007802287DD14E
:101D4000002008707148807D30B1012811D0022830
:101D500075D003280CD152E000207A490860002198
:101D6000704802F014FE00207749487077494870A7
:101D7000A4E074480068401C724908606348C07D54
:101D800028B961484068401C5F49486004E05E48EB
:101D90004068401E5C4948605C488169408C8142D3
:101DA00006DD5A488169408C091A5848816102E071
:101DB0005648818C81615648407828B9554840780A
:101DC00010B95548407838B15048C0695D4908603D
:101DD00002204E49887511E04C48C069594909688C
:101DE000884203D802204949887507E0474881693D
:101DF000808C814202DC0320444988755EE05148B2
:101E00000068401C4F4908604048C07D28B93E48E2
:101E10004068401C3C49486004E03B484068401E24
:101E2000394948603A48407828B93A48407810B96A
:101E30003948407850B13548C06901E03FE012E0D0
:101E4000404908600220314988750BE03448408ED3
:101E500040B92E48C0693B490968884202D802202F
:101E60002A4988752AE037480068401C35490860CF
:101E70002648C07D28B924484068401C2249486053
:101E800004E021484068401E1F4948601F4881699E
:101E9000008C01441D4881618069B0F57A7F03DDC3
:101EA0004FF47A71194881611848806A2549096898
:101EB000884202D800201549887500BF00BF10BDB8
:101EC00010B50121224803F040F818B10121204843
:101ED00003F04CF80D48C08D1D49343108800B4883
:101EE000C08D1B492C310880084890F82C0050B157
:101EF00001210F4801F0FAFF01282BD101210C48E4
:101F000002F003F82AE029E05001002070010020CF
:101F1000D4000020CC000020D000002014010020BC
:101F2000770300200004004000080140F400002076
:101F300000180140F8000020FC000020C80100202B
:101F4000200100201C01002002010020D8000020F8
:101F5000000800400121FA4801F0D5FFF9488078D7
:101F600010B1012839D115E04FF48071F64801F025
:101F7000B0FFF649897888420BD0F2488078401C3F
:101F8000F04988704FF48071EF4801F0A2FFEF49EB
:101F9000887022E04FF40071EB4801F09AFFEC49A1
:101FA0008978884218D0EB4890F82D0028B9EA4883
:101FB0008068401CE849886004E0E7488068401E6B
:101FC000E54988600020DF4988704FF40071DE48E1
:101FD00001F07FFFDE49887000BF00BFDF48007856
:101FE000401CDE4908700846007802286FD10020A6
:101FF0000870D84890F82C0030B1012811D0022880
:1020000075D003280CD163E00020D5490860002179
:10201000D44802F0BCFC0020D3498870D3498870B2
:10202000C8E0CF480068401CCD490860C94890F816
:102030002D0028B9CE488068401CCD49886004E056
:10204000CB488068401ECA498860C248D0F82E102C
:10205000008F814208DDBF48D0F82E10008F091A8A
:10206000BC48C0F82E1003E0BA48418FC0F82E10CB
:10207000C048807820B10020B64981F82C0025E0C6
:10208000BD48807810B9BD48807848B1B148D0F8D3
:102090003200B34908600220AE4981F82C0015E0F7
:1020A000AC48D0F83200AE490968884204D8022012
:1020B000A84981F82C0009E0A648D0F82E10408FDE
:1020C000814203DC0320A34981F82C0072E072E016
:1020D000A3480068401CA24908609E4890F82D0063
:1020E00030B9A3488068401CA149886005E02CE015
:1020F0009F488068401E9E4988609E48807820B135
:102100000020944981F82C001EE09B48807810B98B
:102110009A48807848B18F48D0F8320090490860DA
:1021200002208C4981F82C000EE09548B0F84C0054
:1021300050B98848D0F8320089490968884203D8E4
:102140000220844981F82C0034E085480068401C56
:10215000834908607F4890F82D0028B9844880683A
:10216000401C8349886004E081488068401E8049A3
:1021700088607848D0F82E10C08E01447548C0F8A9
:102180002E10D0F82E00B0F57A7F04DD4FF47A716E
:102190007048C0F82E106F48D0F83E0070490968AA
:1021A000884202D97348807818B10020694981F8C3
:1021B0002C0000BF00BF10BD10B50121714802F016
:1021C000C4FE18B101216F4802F0D0FE6148B0F89A
:1021D00044006C49343108805E48B0F844006949D5
:1021E0002C3108805B4890F8420070B1802166482D
:1021F00001F07CFE012804D18021634801F085FEB6
:1022000003E08021604801F07EFE4E48C07810B1A6
:10221000012839D115E04FF480614B4801F059FE97
:102220004A49C97888420BD04648C078401C454985
:10223000C8704FF48061444801F04BFE4349C870B8
:1022400022E04FF40061404801F043FE4049C97864
:10225000884218D03F4890F8430028B93E48C068EB
:10226000401C3D49C86004E03B48C068401E3A49F4
:10227000C86000203349C8704FF48061324801F0D3
:1022800028FE3349C87000BF00BF40480078401C9A
:102290003E4908700846007802287BD1002008706B
:1022A0002C4890F8420030B1012811D0022873D098
:1022B00003280CD187E0002035490860002131480F
:1022C00002F065FB00202849C8702849C870DDE08D
:1022D0002F480068401C2E4908601E4890F84300B3
:1022E00028B92348C068401C2149C86004E0204840
:1022F000C068401E1E49C8601648416CB0F84E00C8
:10230000814207DD1348416CB0F84E00091A1148AC
:10231000416403E00F48B0F8501041641548C0789C
:1023200028B91548C07810B91448C07898B309483E
:10233000806C174908600220064981F8420041E09C
:1023400000180140F400002000140140F8000020B3
:10235000FC00002070010020C8010020280100209E
:10236000240100200008004002010020D8000020C5
:1023700050010020D4000020CC000020D00000201C
:1023800077030020000C0040000C014030010020C9
:102390002C0100207BE000E04AE0A248806CA249CA
:1023A0000968884204D802209E4981F8420009E069
:1023B0009C48416CB0F85000814203DC03209949ED
:1023C00081F8420062E098480068401C9649086025
:1023D000944890F8430028B99448C068401C934939
:1023E000C86004E09148C068401E9049C8609048A9
:1023F000C07828B98F48C07810B98F48C07840B1EC
:102400008848806C884908600220864981F842002B
:102410000DE08A48B0F8660048B98248806C82496D
:102420000968884203D802207E4981F842002DE0E5
:102430007D480068401C7C4908607A4890F8430059
:1024400028B97A48C068401C7849C86004E07748D9
:10245000C068401E7549C8607248416CB0F84C00B5
:10246000014470484164406CB0F57A7F03DD4FF45D
:102470007A716C4841646B48406D6B4909688842C9
:1024800003D80020674981F8420000BF00BF10BD9B
:1024900010B5102001F070F9A8B1644800686849CF
:1024A00008600120674908706748007810B1012072
:1024B0005F490870102001F070F96448006820F04E
:1024C00010006249086010BD10B5082001F054F9F1
:1024D000A8B1564840685A49486001205949487097
:1024E0005948407810B1012051494870082001F046
:1024F00054F95648006820F008005449086010BD9F
:1025000010B5802001F038F9A8B1484880684C49DE
:10251000886001204B4988704B48807810B10120B9
:1025200043498870802001F038F94848006820F05D
:10253000800046490860402001F01EF9A8B13B48E0
:10254000C0683F49C86001203E49C8703E48C07815
:1025500010B101203649C870402001F01EF93B48F7
:10256000006820F04000394908604FF4807001F0A5
:1025700003F918B14FF4807001F00FF94FF40070B7
:1025800001F0FAF818B14FF4007001F006F910BD2F
:1025900010B54FF4806001F0EFF818B14FF480608F
:1025A00001F0FBF84FF4006001F0E6F818B14FF4C9
:1025B000006001F0F2F84FF4805001F0DDF840B116
:1025C0002248006820F4805020490860881401F0F7
:1025D000E4F84FF4005001F0CFF840B11B48006818
:1025E00020F4005019490860481401F0D6F84FF45F
:1025F000804001F0C1F818B14FF4804001F0CDF8EF
:102600004FF4004001F0B8F818B14FF4004001F069
:10261000C4F810BD10B500F06DFC10BD10B500F091
:102620000CF910BD700100202C0100205001002089
:10263000D4000020CC000020D00000207703002030
:1026400060010020E8000020020100200004014099
:10265000704700BFFEE700BFFEE700BFFEE700BF18
:10266000FEE77047704770477047000030B502467C
:102670000B464FF6FF700021002400BF12E0555CAE
:10268000684000240AE000F0010525B140104AF23C
:102690000105684000E04010651CACB2082CF2DB7C
:1026A0004D1CA9B29942EADB30BD01460806000C78
:1026B00040EA1120704708B54FF4E06000F0B2FD29
:1026C00027208DF8000002208DF8010000208DF8F1
:1026D000020001208DF80300684600F0A8FD08BD47
:1026E00008B54FF4C06000F09DFD0C208DF800008F
:1026F00001208DF801008DF802008DF80300684676
:1027000000F095FD08BD00B58BB00121084601F031
:10271000DCFDFE4802F0DCFCFD480090FD48019025
:10272000002002904FF480600390002004908020ED
:102730000590002006900790202008900002099044
:1027400000200A906946F14802F05BFD0122022157
:10275000EE4802F08CFD01220821EC4802F087FDD2
:1027600001224021EA48001F00F0ADFE0121E748A8
:1027700002F072FD0BB000BD1FB5044600940020AE
:10278000ADF80400ADF80600ADF80800ADF80C0097
:102790000C20ADF80A006946DD48001F00F0F9FD85
:1027A000012240F22441DA48001F00F06CFE0121B2
:1027B000D748001F00F05BFEFFF77DFF01210846B0
:1027C00001F083FDFFF78CFFFFF79DFF1FBD30B5C4
:1027D0008BB004460D460120CF490870CC480090CC
:1027E0000195102002900394002004908020059011
:1027F00000200690079008904FF480500990002028
:102800000A90C248143802F063FC6946BF48143885
:1028100002F0F7FC0121BD48143802F01DFD012231
:102820000221BA48143802F022FD01228021B84862
:10283000001F00F048FE0BB030BD10B5202002F0A4
:1028400023FD01280DD1202002F032FD0021AF48E8
:10285000143802F001FD0220B04908700020AE4992
:10286000087010BD70B5044600250026032000EB5B
:102870004400C6B23146AA48FFF7F8FE0546A9480B
:102880004179A748C01C00EB41000580A449897824
:10289000481DA349FFF79BFF70BD10B5A149082053
:1028A000FFF795FF10BD70B50025002406242146D2
:1028B0009C48FFF7DBFE05469A48C580A21C0146EE
:1028C000974802F03DFD9649A01CFFF780FF70BDC0
:1028D00010B5024602EB4200830002EB820101EBDD
:1028E000C201914C04EB4101088AFFF7DEFE03F1BF
:1028F00008018E4C04EB4101088010BD70B5002228
:10290000CDE002EB4200830002EB820000EBC2004C
:10291000854901EB400000684FF6FF7101EA204451
:1029200002EB820000EBC2007F4901EB400000880F
:1029300085B22046FFF7B9FE7C4901EB43010880D0
:102940002846FFF7B2FE591C784E06EB410108807D
:1029500002EB820000EBC200734901EB40004068CB
:102960004FF6FF7101EA204402EB820000EBC20047
:102970006D4901EB4000808885B22046FFF795FE47
:10298000991C06EB410108802846FFF78EFED91CF2
:1029900006EB4101088002EB820101EBC201624EAD
:1029A00006EB41010889FFF780FE191D5F4E06EB1B
:1029B0004101088002EB820101EBC2015A4E06EB95
:1029C00041014889FFF771FE591D584E06EB410140
:1029D000088002EB820101EBC201534E06EB41017C
:1029E0008889FFF762FE991D504E06EB4101088071
:1029F00002EB820101EBC2014B4E06EB4101C8899B
:102A0000FFF753FED91D494E06EB4101088002EB4A
:102A1000820101EBC201444E06EB4101088AFFF737
:102A200044FE03F10801414E06EB4101088002EB30
:102A3000820000EBC2003C4901EB4000D0F81200DC
:102A40004FF6FF7101EA204402EB820000EBC20066
:102A5000354901EB4000408A85B22046FFF725FE4C
:102A600003F1090106EB410108802846FFF71DFE2E
:102A700003F10A0106EB4101088002EB820101EB40
:102A8000C201294E06EB4101C88AFFF70EFE03F191
:102A90000B01264E06EB41010880501CC2B2042AED
:102AA000FFF62FAF70BD70B5002395E003EB430038
:102AB00082001E4901EB42010888FFF7F6FD04463B
:102AC000511C1A4E06EB41010888FFF7EEFD054642
:102AD00045EA044003EB830101EBC301124E06EB10
:102AE00041010860911C114E06EB41010888FFF777
:102AF000DCFD0446D11C06EB41010888FFF7D5FD3B
:102B0000054645EA044003EB830111E03000024032
:102B100004480040ED05002032010020360100206D
:102B2000F40100207702002077030020DF0300205B
:102B300001EBC301FE4E06EB41014860111DFD4E45
:102B400006EB41010888FFF7B0FD03EB830101EBC1
:102B5000C301F74E06EB41010881511DF54E06EB0E
:102B600041010888FFF7A1FD03EB830101EBC301DD
:102B7000EF4E06EB41014881911DEE4E06EB4101FF
:102B80000888FFF792FD03EB830101EBC301E84ED8
:102B900006EB41018881D11DE64E06EB4101088814
:102BA000FFF783FD03EB830101EBC301E04E06EB6E
:102BB0004101C88102F10801DE4E06EB410108889F
:102BC000FFF773FD03EB830101EBC301D84E06EB66
:102BD00041010882581CC3B2042BFFF667AF70BDD9
:102BE00010B5D548408820B94FF41650FFF7C4FD02
:102BF0001EE0D1484088012804D14FF49640FFF7E9
:102C0000BBFD15E0CC484088022804D14FF41640A3
:102C1000FFF7B2FD0CE0C8484088032804D14FF408
:102C20006140FFF7A9FD03E04FF4E130FFF7A4FD99
:102C300010BD70B5C1480288C149C24802F080FB8E
:102C4000BE480078801EC1B2BE48FFF70FFD0646A1
:102C5000BA480088801EBA49095CB8480088401EFE
:102C6000B74A105C41EA0020B0427DD1B5480078F7
:102C7000B1490988884203D0B2480078C828F4D105
:102C8000B0484078032876D1AE48C078602802D09A
:102C9000612838D11BE0AB484079012800DD69E0AC
:102CA000A5490888FFF701FDA749A1F80300A54839
:102CB00000780870A34840784870A24840794006E0
:102CC000000E88709F494879FFF7CCFD52E09D487F
:102CD0004079012800DD4DE097494888FFF7E5FC81
:102CE0009949A1F803009748007808709548407802
:102CF0004870944840794006000E887091494879A0
:102D0000FFF7B0FD36E08F48C078302800DD31E0B5
:102D10008C48C078C0F1300085B28A484079A8421A
:102D200000DD27E0FFF7EAFD00240DE08548C078CC
:102D30002044804901EB400001888348C01C00EB1F
:102D400044000180601CC4B2AC42EFDB7D480078D7
:102D50007D4908707B48407848707A484079400641
:102D6000000E8870774901E0C2E004E04879FFF77F
:102D700079FD00BFBCE07348407806287CD17148DB
:102D8000C07851287BD006DC4E2827D04F283FD072
:102D9000502873D156E0602802D06128F9D10DE0A7
:102DA000684840796749097940EA0120624908800A
:102DB000FFF773FD0120654908707BE061484079A9
:102DC0006049097940EA01205B494880FFF765FDC9
:102DD000FFF706FF01205D4908706BE05948407914
:102DE0005849097940EA012053498880084680887B
:102DF000B0F5C86F02DD4FF4C86088804E48808807
:102E000053490880FFF749FD01205049087051E0FF
:102E10004C4840794B49097940EA01214648C18034
:102E2000C088B0F5C86F03DD4FF4C8614248C18067
:102E30004148C08846494880FFF72FFD012043499B
:102E4000087037E03F4840793E49097940EA01215E
:102E5000394801810089B0F5C86F03DD4FF4C861BE
:102E6000354801813448008939498880FFF715FDCC
:102E70000120364908701DE020E000E019E03148EB
:102E800040793049097940EA01212B484181408944
:102E9000B0F5C86F03DD4FF4C8612748418126486B
:102EA00040892B49C880FFF7F8FC012027490870AA
:102EB00000E000BF00BFFFF7F0FC19E021484078B8
:102EC000102815D11F48C0782F2800DD70BD1D497E
:102ED0008A79C978174B03EB41001A49C91D02F0E2
:102EE0002FFAFFF7E0FD01201A490870FFF7DBFC1D
:102EF00000BFEBE710B540F22441174800F082FB19
:102F0000A8B10021154802F0A7F9134800F01BFBF7
:102F1000124802F0B5F9C0F58060084908800846FB
:102F20000088802802DA01200D4908701AE02AE0A2
:102F300077030020DF030020DF0500203801002098
:102F4000ED05002077020020F4010020330100206D
:102F500010000020340100200048004030000240F2
:102F6000350100204FF4706002F0A2F94FF4806048
:102F70000D49486301210C48303002F06DF90B48CF
:102F80000488001D04884FF45A71084800F03AFB89
:102F900020B14FF45A71054800F05AFB40F2244129
:102FA000024800F055FB10BD000002400048004000
:102FB0000146088870472DE9F04105460E46174640
:102FC000002407E036F81410284600F01AFDAD1C66
:102FD000601C84B2BC42F5DBBDE8F08130B503462D
:102FE0000C461546002207E01846FFF7E1FF24F8DB
:102FF00012009B1C501C82B2AA42F5DB30BD2DE9A9
:10300000F05F80468A461746B8F1006F02D37F48CA
:10301000804501D3BDE8F09F00F0E9FBA8F1006B0B
:103020004FEA9B25CBF34809C9F50074A74200DCA1
:103030003C464DE04FF0006101EB85208A14744955
:10304000FFF7CCFF00260BE009EB0600704931F8D2
:1030500010004FF6FF71884200D003E0701C86B26A
:10306000A642F1DB00BFA6421BDA4FF0006101EB84
:10307000852000F003FC002608E03AF8160006EB75
:103080000901634A22F81100701C86B2A642F4DBE3
:103090004FF0006101EB85208A145D49FFF78BFF3B
:1030A00004E0224651464046FFF785FFA74200D183
:1030B0000FE06D1C4FF000090AEB440AA044381BD6
:1030C00087B2B7F5007F02DD4FF4007400E03C46A4
:1030D000B0E700BF00F091FB00BF9BE770B5024670
:1030E0000D46FF21FF23002409E012F8010B80EABE
:1030F00001044848005D80EA03014748035D281E3B
:10310000A5F10106B5B2F0D143EA012070BD13B5B7
:103110000446012201A92046FFF771FF1CBD10B52E
:103120000346002000BF05E031F8104023F81040AE
:10313000441CA0B29042F7DB10BD30B503460C46EC
:10314000002100BF08E033F8110034F81150A84204
:1031500000D003E0481C81B29142F4DB00BF9142F1
:1031600001D1012030BD0020FCE701202B4908805F
:1031700003204880704730B5ADF2044D03240E257E
:10318000A81E81B22548FFF7A9FF2449888100F0D5
:103190002EFB2A46214901A802F0D2F8204951F815
:1031A000240000F06BFB1E4951F824004FF400721C
:1031B00001A9FFF700FF00F020FB0DF2044D30BD28
:1031C00070B5ADF5806D03250E2400F010FB144999
:1031D00051F825004FF400726946FFF7FFFE00F03A
:1031E0000CFB224669460D4802F0AAF8A01E81B2E7
:1031F0000A48FFF773FF064608488089B04201D0AD
:10320000FFF7B3FF0DF5806D70BD000000000208F0
:10321000EE0900201454000814550008DF050020B2
:10322000FC53000831490143314A1160704770B5C1
:10323000002100230F22C47804B32D4C246804F429
:10324000E064C4F5E064210AC1F10403CA40447893
:1032500004FA03F18478144021430901254C0678CF
:10326000A155047804F01F050124AC4005786D11C8
:10327000AD0005F1E025C5F8004109E0047804F04F
:103280001F050124AC401C4D0678761145F82640F8
:1032900070BD1A4A0A400243154B1B1F1A60704743
:1032A00039B1134A121D12680243114B1B1D1A60DB
:1032B00006E00F4A121D126882430D4B1B1D1A6057
:1032C0007047042808D14FF0E021096941F004015A
:1032D0004FF0E022116107E04FF0E021096921F091
:1032E00004014FF0E0221161704700000000FA0570
:1032F0000CED00E000E400E080E100E080FFFF1F53
:1033000010B50446D749601A8C422BD006DCD6484B
:10331000204498B1B0F5806F38D119E0B0F5806FD6
:103320002AD0B0F56C4F31D10121880300F0F4FFB1
:1033300000214FF4804000F0EFFF28E00121480415
:1033400000F0F7FF00214FF4003000F0F2FF1EE024
:103350000121880400F0EDFF00214FF4802000F0EF
:10336000E8FF14E00121C80400F0E3FF00214FF45E
:10337000002000F0DEFF0AE00121080500F0D9FF7F
:1033800000214FF4801000F0D4FF00E000BF00BF28
:1033900010BD2DE9F04786B005460E460024A24632
:1033A00000BF00BF00272F462C8A4CF6FF70044058
:1033B000F08804432C82AC894EF6F3100440B088A8
:1033C00031890843718908430443AC81AC8A4FF6C4
:1033D000FF400440B0890443AC8201A800F015FF0F
:1033E000A248874202D1DDF810A001E0DDF80CA070
:1033F0000AEBCA0000EB0A1031688900B0FBF1F853
:103400006420B8FBF0F004012009642101FB10895D
:10341000322000EB0910B0FBF1F000F00F00044384
:103420002C8106B0BDE8F0874FF4165101600021F1
:103430008180C18001810C214181002181817047FF
:1034400010B502460020108A4FF2FF0318400B8887
:103450004C8823438C882343CC8823431843108211
:1034600010BD0021018041808180C180704721B161
:10347000828942F40052828104E082894DF6FF7312
:103480001A4082817047F0B50346002400260025CB
:1034900000201846C1F3421401F01F06012707FA65
:1034A00006F5012C01D10C3004E0022C01D11030C2
:1034B00000E014301AB107682F43076002E0076884
:1034C000AF430760F0BD1AB1838A0B43838202E0E9
:1034D000838A8B4383827047028A4FF6F0731A40C7
:1034E0000282028A0A430282704782894FF2FF7386
:1034F0001A40828182890A438281704721B1828980
:1035000042F00202828104E082894FF6FD731A4084
:1035100082817047028A4FF6DF731A400282028A64
:103520000A430282704721B1028A42F48042028239
:1035300004E0028A4BF6FF731A4002827047C1F31F
:1035400008028280704701468888C0F308007047EF
:10355000818941F0010181817047028BD2B20283DF
:10356000028B42EA012202837047028B02F47F42FF
:103570000283028B0A430283704721B1828A42F0A0
:103580002002828204E0828A4FF6DF731A40828230
:10359000704721B1828A42F01002828204E0828A5E
:1035A0004FF6EF731A408282704721B1828A42F04F
:1035B0000802828204E0828A4FF6F7731A40828200
:1035C0007047828A4FF6FB731A408282828A0A43CE
:1035D0008282704721B1828A42F00202828204E034
:1035E000828A4FF6FD731A4082827047024600209D
:1035F00013880B400BB1012000E000207047CA4344
:103600000280704770B502460B4600240021002559
:103610000020C3F3421503F01F01012606FA01F151
:10362000012D02D19689314006E0022D02D1168A81
:10363000314001E0968A31401C12012606FA04F45A
:103640001688344011B10CB1012000E0002070BD9B
:1036500010B5002200230A1201249440A3B2DC43D7
:10366000048010BD004C004000BCFFBF003801408A
:1036700000204C490860091D0860091D0860091DEB
:10368000086049484749143108607047817900292A
:1036900046D04449096802689143424A1160111DAD
:1036A0000968026891433F4A121D116001793F4A3F
:1036B0001144D1F800140268114302793B4B1A44BB
:1036C000C2F8001437490831096802689143354A45
:1036D00008321160111D096802689143314A0C32A9
:1036E0001160417910290ED1111F09680268114338
:1036F0002C4A08321160111D096802681143294AD9
:103700000C32116018E04179284A1144D1F80014B4
:10371000026811434279254B1A44C2F800140BE0A9
:103720000179224A1144D1F80014026891430279C8
:103730001E4B1A44C2F80014704700210160017149
:103740000C214171002181717047164910310968BF
:103750000143144A10321160704701460020114A9B
:10376000143212680A400AB1012000E000207047BC
:103770000C49143108607047014600200022094BB3
:103780001B6803EA0102074B14331B680B4013B19B
:103790000AB1012000E0002070470249143108609E
:1037A0007047000000040140FFFF070000000140D7
:1037B00001460020FB4A106800F038000843106002
:1037C0007047F849096821F00801F64A116011466E
:1037D0000968014311607047F249096821F010013E
:1037E000F04A116011460968014311607047EE48C4
:1037F000EC494860ED4848607047EA48006940F08D
:103800008000E849086170470420E649C96801F072
:10381000010109B101200EE0E249C96801F004018B
:1038200009B1022007E0DF49C96801F0100109B1C0
:10383000032000E00420704708B500200090FF201E
:10384000009002E00098401E009000980028F9D1F6
:1038500008BD70B504460425FFF7D6FF054605E010
:10386000FFF7EAFFFFF7D0FF0546641E012D01D1E7
:10387000002CF5D104B90525284670BD70B5054664
:10388000042440F6FF70FFF7E4FF0446042C19D12E
:10389000C448006940F00200C24908610846456119
:1038A000006940F04000086140F6FF70FFF7D1FF6B
:1038B0000446012C06D0BB48006941F6FD71084062
:1038C000B8490861204670BD10B5042440F6FF7069
:1038D000FFF7BFFF0446042C18D1B248006940F03E
:1038E0000400B04908610846006940F040000861E2
:1038F00040F6FF70FFF7ADFF0446012C06D0A94843
:10390000006941F6FB710840A6490861204610BDD8
:1039100010B5042440F6FF70FFF79BFF0446042C0B
:103920003BD1A1489F498860A0488860084600694B
:1039300040F0200008610846006940F0400008613E
:1039400040F6FF70FFF785FF0446042C1CD1954814
:10395000006941F6DF710840924908610846006934
:1039600040F010000861A520914908800F20FFF762
:1039700070FF0446012C10D08A48006941F6EF71AF
:1039800008408849086108E0012C06D08548006994
:1039900041F6EF71084083490861204610BD70B5BB
:1039A00005460E4604240F20FFF753FF0446042C5F
:1039B00025D17C48006940F001007A4908612E80D9
:1039C0000F20FFF746FF0446042C0FD1300C68800F
:1039D0000F20FFF73EFF0446012C10D0714800690C
:1039E00041F6FE7108406F49086108E0012C06D0DD
:1039F0006C48006941F6FE7108406A49086120463A
:103A000070BD70B505460E4604240F20FFF721FF58
:103A10000446042C13D16348006940F00100614959
:103A200008612E800F20FFF714FF0446012C06D0FA
:103A30005C48006941F6FE7108405A490861204619
:103A400070BD70B505460E4604240F20FFF701FF38
:103A50000446042C17D15448524988605348886062
:103A60000846006940F0100008612E800F20FFF723
:103A7000F0FE0446012C06D04A48006941F6EF7179
:103A8000084048490861204670BD2DE9F0470446CA
:103A90004FF6FF763746B046B1460425E443E6B21A
:103AA000C4F30727C4F307484FEA14690F20FFF750
:103AB000D0FE0546042D40D13B483A4988603B483A
:103AC00088600846006940F010000861FF2E06D0AB
:103AD0003748083006800F20FFF7BBFE0546042D4F
:103AE00008D1FF2F06D032480A3007800F20FFF799
:103AF000B0FE0546042D0AD1B8F1FF0F07D02C48BF
:103B00000C30A0F800800F20FFF7A3FE0546042D1F
:103B10000AD1B9F1FF0F07D025480E30A0F8009068
:103B20000F20FFF796FE0546012D06D01D480069BF
:103B300041F6EF7108401B4908612846BDE8F0874F
:103B400070B50546042440F6FF70FFF782FE044678
:103B5000042C4AD1144813498860144888600846E8
:103B6000006940F0200008610846006940F040000C
:103B7000086140F6FF70FFF76CFE0446042C2BD161
:103B80000848006941F6DF710840064908610846A7
:103B9000006940F01000086165B100200449088008
:103BA0000BE000000020024023016745AB89EFCD08
:103BB00000F8FF1FA5204549088040F6FF70FFF779
:103BC00048FE0446012C10D04148006941F6EF71CF
:103BD00008403F49086108E0012C06D03C480069D4
:103BE00041F6DF7108403A490861204670BD2DE971
:103BF000F04107460D46164604243648344988608D
:103C0000354888600F20FFF724FE0446042C1AD1A3
:103C10002F48006940F010002D49086147EA05006F
:103C2000304340F0F8002949891C08800F20FFF735
:103C300010FE0446012C06D02548006941F6EF71BC
:103C40000840234908612046BDE8F0812048C0694A
:103C5000800870471E48006A704700201C49C969E7
:103C600001F0020109B1012000E0002070470020AE
:103C70001749096801F0200109B1012000E0002086
:103C8000704729B1124A12690243114B1A6104E0CC
:103C90000F4A126982430E4B1A6170470146002099
:103CA000012908D10A4AD26902F001020AB10120B1
:103CB00008E0002006E0064AD2680A400AB1012066
:103CC00000E0002070470249C860704700F8FF1FFD
:103CD0000020024023016745AB89EFCD10B50446B3
:103CE000C649601A8C422FD009DCC548204480B1F7
:103CF000B0F5806F16D0B0F5006F4AD11BE0B0F57B
:103D0000806F2AD0B0F5006F30D0B0F5406F40D151
:103D100035E00121042000F0FFFA0021042000F02A
:103D2000FBFA37E00121082000F0F6FA0021082014
:103D300000F0F2FA2EE00121102000F0EDFA00214F
:103D4000102000F0E9FA25E00121202000F0E4FA3B
:103D50000021202000F0E0FA1CE00121402000F0CA
:103D6000DBFA0021402000F0D7FA13E00121802087
:103D700000F0D2FA0021802000F0CEFA0AE0012102
:103D8000080200F0C9FA00214FF4807000F0C4FA74
:103D900000E000BF00BF10BD10B50121084600F0D3
:103DA000BBFA0021012000F0B7FA10BD2DE9F04167
:103DB000024600250026002000230024002791F859
:103DC00003C00CF00F0591F803C00CF0100CBCF10F
:103DD000000F03D091F802C04CEA050591F800C02D
:103DE000BCF1000F31D0146800202BE04FF0010C23
:103DF0000CFA00F3B1F800C00CEA03069E4220D191
:103E000083004FF00F0C0CFA03F7BC4305FA03FCD8
:103E10004CEA040491F803C0BCF1280F06D14FF01E
:103E2000010C0CFA00FCC2F814C00AE091F803C0BF
:103E3000BCF1480F05D14FF0010C0CFA00FCC2F8A0
:103E400010C0401C0828D1D31460B1F800C0BCF1E8
:103E5000FF0F34DD546800202EE000F1080C4FF015
:103E6000010808FA0CF3B1F800C00CEA03069E4200
:103E700021D183004FF00F0C0CFA03F7BC4305FA75
:103E800003FC4CEA040491F803C0BCF1280F05D1EF
:103E900000F1080C08FA0CF8C2F8148091F803C07D
:103EA000BCF1480F07D100F1080C4FF0010808FAE7
:103EB0000CF8C2F81080401C0828CED35460BDE82E
:103EC000F0814FF6FF710180022181700421C170E1
:103ED00070470246002093680B400BB1012000E0C0
:103EE000002070470146886880B270470246002073
:103EF000D3680B400BB1012000E000207047014661
:103F0000C86880B2704701617047416170470AB16B
:103F1000016100E041617047C16070474FF4803239
:103F20000A438261816182618269826970470246C7
:103F30000020344B18684FF68073184040EA021096
:103F40000843304B186070472F49C8617047F0B57F
:103F50000A4600230024002100252A4E7168C0F380
:103F6000034583B200F44016B6F5401F08D121F096
:103F70007061244E766826F07066224F7E6012E0F3
:103F800000F48016B6F5801F06D1032606FA05F464
:103F9000A14341F0706106E0460D360103FA06F6D2
:103FA000B14341F0706122B1460D360103FA06F6C5
:103FB0003143144E7160F0BD30B500228B071C0FE9
:103FC0000F2303FA04F20F4B08338C1053F82430FC
:103FD00093430C4C08348D1044F8253023468C1044
:103FE00053F824308C07240F00FA04F42343054CC3
:103FF00008348D1044F8253030BD00000014014015
:1040000000F8FEBF0000014000002042DE480068CA
:1040100040F00100DC49086008464068DB49084080
:10402000D949486008460068D9490840D64908601F
:104030000846006820F4802008600846406820F4A4
:10404000FE004860002088607047CF49096821F46D
:104050008031CD4A11601146096821F48021116038
:10406000B0F5803F03D0B0F5802F0ED106E0C649F1
:10407000096841F48031C44A116007E0C249096807
:1040800041F4A021C04A116000E000BF00BF7047AA
:1040900010B501460022002300204A11012A02D156
:1040A000B94C236806E0022A02D1B74C236A01E02A
:1040B000B54C636A01F01F02012494401C400CB10E
:1040C000012000E0002010BD38B500200090002441
:1040D000002500BF3120FFF7DBFF05460098401C9C
:1040E00000901DB90098B0F5A06FF3D13120FFF713
:1040F000CFFF08B1012400E00024204638BD01466E
:104100000020A14A106820F0F80040EAC1001060C9
:104110007047A04908607047024600209A4B5868D3
:1041200020F47C1042EA01031843974B5860704713
:1041300098490866704701460020934A506820F06D
:1041400003000843506070478F48406800F00C003F
:104150007047014600208C4A506820F0F000084368
:104160005060704701460020874A506820F4E060A4
:1041700008435060704701460020834A506820F48D
:10418000605040EAC1005060704729B17E4A527ABF
:1041900002437D4B5A7204E07B4A527A82437A4B47
:1041A0005A7270477B49D831086070470146002039
:1041B000754A506820F44040084350607047002121
:1041C000714A20321170704A82F82010012802D002
:1041D00004280AD104E001216B4A2032117005E065
:1041E0000521694A2032117000E000BF00BF70470E
:1041F0006949086070476449096A0143624A11626B
:104200007047654944390860704730B50021002285
:10421000002400235C4D6D6805F00C0121B10429D8
:1042200005D0082923D105E05C4D056022E05B4DF7
:1042300005601FE0544D6D6805F47012022505EB12
:104240009242514D6D6805F480341CB9544D55436C
:1042500005600BE04C4D6D6805F400351DB1504D07
:104260005543056002E04D4D5543056002E04B4D5E
:10427000056000BF00BF444D6D6805F0F0010909FD
:10428000484D6B5C0568DD4045603F4D6D6805F449
:10429000E061090A434D6B5C4568DD4085603A4D3D
:1042A0006D6805F46051C90A3E4D6B5C4568DD40A0
:1042B000C560354D6D6805F44041890B3A4D6B5C26
:1042C000C568B5FBF3F5056130BD29B12E4A5269C9
:1042D00002432D4B5A6104E02B4A526982432A4B18
:1042E0005A61704729B1284A92690243264B9A6164
:1042F00004E0254A92698243234B9A61704729B1B1
:10430000214AD2690243204BDA6104E01E4AD26995
:1043100082431D4BDA61704729B11B4AD2680243C0
:10432000194BDA6004E0184AD2688243164BDA600F
:10433000704729B1144A12690243134B1A6104E011
:10434000114A12698243104B1A6170471249403971
:10435000086070470F49C86470470B49C8717047BF
:104360000948406A40F0807007494862704701463A
:104370000020054A92680A400AB1012000E00020AE
:104380007047014988727047001002400000FFF832
:10439000FFFFF6FE000042428004424200127A0013
:1043A00000093D003A0100204A01002010B50446F2
:1043B000F749601A8C4245D00CDCB4F1804F1DD017
:1043C000F448204418B3B0F5806F29D0B0F5006FE1
:1043D00054D12EE0B0F5806F3DD0B0F58E3F03D0C4
:1043E000B0F5923F4AD13FE00121C802FFF794FFA8
:1043F00000214FF40060FFF78FFF40E001210846E5
:10440000FFF797FF00210120FFF793FF37E001211D
:104410000220FFF78EFF00210220FFF78AFF2EE027
:1044200001210420FFF785FF00210420FFF781FF11
:1044300025E001210820FFF77CFF00210820FFF77D
:1044400078FF1CE001211020FFF773FF00211020EE
:10445000FFF76FFF13E001212020FFF76AFF002123
:104460002020FFF766FF0AE001214803FFF754FF11
:1044700000214FF40050FFF74FFF00E000BF00BFE6
:1044800010BD028802F08F020280CA884B881A434E
:1044900003881A4302808A8882850A880285BE4A78
:1044A000904202D0BD4A904201D10A7A028601228E
:1044B0008282704770B5002400220023058C4FF6DD
:1044C000FE7635400584028C8388048B4FF68F7509
:1044D0002C400D882C43751E2A400D892A434D8897
:1044E0002A43CD888586AC4DA84202D0AB4DA84268
:1044F00013D14FF6F7752A404D892A434FF6FB75C5
:104500002A408D882A4347F6FF652B4047F6FF5522
:104510002B408D892B43CD892B43838004830284D8
:1045200070BD70B5002400220023058C4FF6EF7695
:1045300035400584028C8388048B48F6FF752C4037
:104540000D884FF6FF7606EA05252C434FF6DF75FA
:104550002A400D8906EA05152A434D8806EA051505
:104560002A43CD8805878C4DA84202D08B4DA842A6
:104570001DD14FF67F752A404D894FF6FF7606EA2A
:1045800005152A434FF6BF752A408D8806EA0515A2
:104590002A4347F6FF352B4047F2FF752B408D89A4
:1045A00006EA85052B43CD8906EA85052B438380E2
:1045B0000483028470BD70B5002400220023058CA2
:1045C0004FF6FF6635400584028C8388848B4FF656
:1045D0008F752C400D882C434FF6FF552A400D89CE
:1045E0004FF6FF7606EA05252A434D8806EA05259B
:1045F0002A43CD888587684DA84202D0674DA842DE
:104600001DD14FF2FF752A404D894FF6FF7606EA1D
:1046100005252A434FF6FF352A408D8806EA0525F1
:104620002A4346F6FF752B4045F6FF752B408D89D2
:1046300006EA05152B43CD8906EA05152B43838031
:104640008483028470BD70B5002400220023058C91
:104650004EF6FF7635400584028C8388848B48F6BD
:10466000FF752C400D884FF6FF7606EA05252C4392
:104670004DF6FF752A400D8906EA05352A434D8817
:1046800006EA05352A43CD88A0F84050424DA8429D
:1046900002D0424DA84207D1C3F30D038D894FF6D6
:1046A000FF7606EA85152B4383808483028470BDE0
:1046B000828B4FF2FF331A408283828B4FF6FF7357
:1046C00003EA01231A4382837047F0B50C4615466E
:1046D000002100220026078C4EF6FF7C07EA0C071B
:1046E0000784818B028C4FF6FF7707EA043640F689
:1046F000FF4739404FF6FF7707EA05274FF6FF7C63
:104700000CEA033C47EA0C0739434DF6FF773A4081
:1047100046F480573A4381830284F0BD828B4FF682
:10472000F3731A408283828B0A4382837047F0B509
:104730000C461546002100220026078C4FF6FF6C20
:1047400007EA0C070784818B028C4FF6FF7707EA94
:1047500004264FF60C7739404FF6FF7707EA031728
:104760002F4339434FF6FF573A4046F480773A4398
:1047700081830284F0BD028B4FF2FF331A40028323
:10478000028B4FF6FF7303EA01231A43028370473B
:104790000010004000FCFFBF002C0140003401402D
:1047A000F0B50C461546002100220026078C4FF676
:1047B000EF7C07EA0C070784018B028C4FF6FF772A
:1047C00007EA041640F6FF4739404FF6FF7707EA3D
:1047D000033739434FF6FF7707EA052739434FF68A
:1047E000DF773A4046F010073A4301830284F0BD78
:1047F000028B4FF6F3731A400283028B0A43028343
:104800007047F0B50C46154600210022068C4FF685
:10481000FE773E400684018B028C4FF60C763140C9
:104820007E1C06EA03162E4331437E1E324044F0BE
:104830000106324301830284F0BD70B505460C4683
:10484000208850B92389A28861882846FFF7D9FFBC
:10485000E1882846FFF7CCFF25E0208804280AD10C
:104860002389A28861882846FFF79AFFE1882846B5
:10487000FFF781FF17E0208808280AD12389A28842
:1048800061882846FFF753FFE1882846FFF746FF77
:1048900009E02389A28861882846FFF716FFE1888E
:1048A0002846FFF705FF70BD2DE9F04105460C468F
:1048B00000260127608808B9022600E00026A088AB
:1048C000012801D1022700E001272088A0B923890F
:1048D000A28861882846FFF794FFE1882846FFF701
:1048E00087FF23893A4631462846FFF759FFE1887A
:1048F0002846FFF740FF13E02389A28861882846F5
:10490000FFF74EFFE1882846FFF735FF23893A4637
:1049100031462846FFF775FFE1882846FFF768FF14
:10492000BDE8F0810A884B881A438B881A43CB88EC
:104930001A430B891A434B891A438B891A43A0F8EF
:10494000442070474FF6FF71818000210180C180B3
:104950004180017270470021018041808180C180C7
:10496000018141818181C1817047002101804180A5
:10497000012181800021C1800181704700210180D7
:1049800041808180C180018141818181704721B155
:10499000028842F00102028004E0028840F2FE3305
:1049A0001A400280704731B1B0F8442042F400420E
:1049B000A0F8442005E0B0F84420C2F30E02A0F8AD
:1049C000442070471AB183890B43838102E08389B5
:1049D0008B43838170478182704741EA0203A0F8CC
:1049E000483070471AB183890B43838102E0838981
:1049F0008B438381704701894FF6F8721140018122
:104A000070470A46002101894FF68F731940114300
:104A10000181704730B504460D4629462046FFF710
:104A2000F0FF208940F00700208130BD2DE9F041E2
:104A300004460D4616461F46602D06D13B46012210
:104A400031462046FFF7ACFE05E03B4601223146E9
:104A50002046FFF7D6FE29462046FFF7D2FF2089E1
:104A600040F007002081BDE8F08170B50C460021C0
:104A70000189C9B244EA02054FF6FF7606EA032629
:104A800035432943018170BD2DE9F04105460E46AD
:104A900017469846002443463A4631462846FFF7D3
:104AA000E4FF2C894FF6F870044044F007044FF6F9
:104AB0008F70044044F070042C81BDE8F081F0B5A3
:104AC00004460D4616461F463B46324629462046BA
:104AD000FFF7CBFF208940F480402081F0BD0185A5
:104AE000828270470A460021018840F28F331940C4
:104AF000114301807047F0B50C4615461E46002153
:104B0000002200230189028B038C4FF6F87739408D
:104B100021434FF6FC473A4040F201173A434FF623
:104B2000DD773B404FF6FF7707EA06172F433B43FD
:104B3000018102830384F0BD0A460021018B4FF6F8
:104B40008F7319401143018370470A460021018B7E
:104B500048F6FF7319404FF6FF7303EA0223194327
:104B6000018370470A460021818B4FF68F731940ED
:104B70001143818370470A460021818B48F6FF73F9
:104B800019404FF6FF7303EA0223194381837047EC
:104B900021B1028842F08002028004E0028840F2E3
:104BA0007F331A400280704721B1828842F00402AC
:104BB000828004E082884FF6FB731A40828070473F
:104BC00021B1828842F00802828004E082884FF698
:104BD000F7731A408280704721B1828842F0010247
:104BE000828004E082884FF6FE731A40828070470C
:104BF0000A460021018B4FF6F773194011430183D8
:104C000070470A460021018B4FF2FF7319404FF69F
:104C1000FF7303EA02231943018370470A46002108
:104C2000818B4FF6F77319401143818370470A4611
:104C30000021818B4FF2FF7319404FF6FF7303EA97
:104C400002231943818370470A460021018B4FF6E6
:104C5000FB7319401143018370470A460021018B01
:104C60004FF6FF3319404FF6FF7303EA022319434F
:104C7000018370470A460021818B4FF6FB73194070
:104C80001143818370470A460021818B4FF6FF3321
:104C900019404FF6FF7303EA0223194381837047DB
:104CA0000A460021018B4FF67F731940114301839F
:104CB00070470A460021018BC1F30E014FF6FF73C6
:104CC00003EA02231943018370470A460021818BBE
:104CD0004FF67F7319401143818370470A460021C4
:104CE000818BC1F30E014FF6FF7303EA02231943D0
:104CF000818370470A460021018C4FF6FD731940ED
:104D00001143018470470A460021018C4FF6F77366
:104D100019401143018470470A460021018C4FF667
:104D2000DF7319404FF6FF7303EA0213194301843E
:104D300070470A460021018C4FF67F7319404FF6E9
:104D4000FF7303EA02131943018470470A460021E6
:104D5000018C4FF6FF5319404FF6FF7303EA02230D
:104D60001943018470470A460021018C4FF2FF73FA
:104D700019404FF6FF7303EA022319430184704779
:104D80000A460021018C4DF6FF7319404FF6FF7360
:104D900003EA023319430184704710B5038C0124E0
:104DA0008C40A3430384038C02FA01F4A4B223438E
:104DB000038410BD10B5038C04248C40A3430384EA
:104DC000038C02FA01F4A4B22343038410BD30B56E
:104DD000038C01248C40A343038409B1082918D112
:104DE00000F1180303EB61031B684FF68F74234037
:104DF00000F1180404EB6104236000F1180303EBD5
:104E000061031B68134300F1180404EB6104236081
:104E10001FE00B1FC3F34E0400F118031B5948F6A3
:104E2000FF7423400C1FC4F34E0500F118046351B6
:104E30000B1FC3F34E0400F118031B594FF6FF7408
:104E400004EA022423430C1FC4F34E0500F11804A6
:104E5000635130BD21B1028842F00202028004E0B9
:104E6000028840F2FD331A400280704721B1028867
:104E700042F00402028004E0028840F2FB331A4050
:104E80000280704721B1828842F08002828004E073
:104E900082884FF67F731A4082807047028840F202
:104EA000F7331A40028002880A43028070478288E2
:104EB0004FF68F731A40828082880A43828070473F
:104EC00002894FF6F8731A40028102890A4302816F
:104ED000704702894FF67F731A40028102890A43A4
:104EE0000281704781847047818570478186704751
:104EF0000187704781877047A0F84010704702888B
:104F0000D2B2028002880A43028070470146888E2E
:104F100070470146088F70470146888F70470146E9
:104F2000B1F8400070470146888C70470146088DF3
:104F3000704702460020138A0B400BB1012000E0AD
:104F400000207047CA430282704730B502460020F5
:104F500000230024158A05EA0103958905EA010466
:104F600013B10CB1012000E0002030BDCA43028221
:104F70007047000010B501214807FFF7DAF900215A
:104F80004FF00050FFF7D5F910BD30B500220023D7
:104F90004D4C226840F6FE748440A243D1E900459E
:104FA0002C438D682C43CD6844EA050303FA00F4D2
:104FB0002243454C226030BD002101604160816088
:104FC000C160704739B1404A1268012383401A43D7
:104FD0003D4B1A6006E03C4A1268012383409A4325
:104FE000394B1A60704741B1374A12684FF4805309
:104FF00083401A43344B1A6007E0334A12684FF477
:10500000805383409A43304B1A60704710B551B1BA
:105010002D4A121D126804090123A3401A432A4B8A
:105020001B1D1A6009E0284A121D12680409012399
:10503000A3409A43244B1B1D1A6010BD40B1224966
:10504000091D096841F003011F4A121D116007E0A4
:105050001D49091D096821F003011B4A121D116039
:10506000704710B53AB1184B1B6801FA00F423439E
:10507000154C236006E0144B1B6801FA00F4A343AF
:10508000114C236010BD114A0244C2F80814704745
:105090000E4A0244C2F81414704710B500230828C1
:1050A00002D142EA012301E042EA0143074C0444F1
:1050B000C4F8203410BD0146044A02EB9100D0F838
:1050C0002C0480B270470000007400400070004063
:1050D000016821F0010101600021016041608160EF
:1050E000C160874A811A90425BD012DC854AA0EBEE
:1050F000020190423AD007DC83490144D9B1142916
:1051000022D028297AD128E0142938D0282975D12D
:105110003EE0B1F56C7F5BD006DCB1F5627F49D033
:10512000B1F5677F6AD14CE0B1F5717F57D0B1F529
:10513000767F63D15BE073494439496841F00F01E0
:10514000704A443A51605AE06E494439496841F026
:10515000F0016C4A443A516051E06A494439496867
:1051600041F47061674A443A516048E06549443906
:10517000496841F47041634A443A51603FE06149F3
:105180004439496841F470215E4A443A516036E03E
:105190005C494439496841F470015A4A443A5160C3
:1051A0002DE058494439496841F07061554A443A04
:1051B000516024E05549096841F00F01534A1160DC
:1051C0001DE05249096841F0F001504A116016E0B3
:1051D0004E49096841F470614C4A11600FE04B4937
:1051E000096841F47041494A116008E006E0474906
:1051F000096841F47021454A116000E000BF00BF1A
:10520000704710B50022026847F6F0739A430C6AA3
:105210008B6823430C6923434C6923438C692343E4
:10522000CC6923434C6A23438C6A23431A430260AC
:10523000CB6843600B6883604B68C36010BD00217E
:10524000016041608160C160016141618161C16152
:10525000016241628162704721B1026842F001023D
:10526000026003E0026822F00102026070471AB196
:1052700003680B43036002E003688B4303607047DD
:105280000146486880B2704701460020002201F0C4
:1052900080531BB11D4B1B1F1A6802E0194B443B86
:1052A0001A6802EA01030BB1012000E000207047F8
:1052B00000F0805111B11549086002E011494439EC
:1052C0004860704701460020002201F080531BB166
:1052D0000E4B1B1F1A6802E00A4B443B1A6802EA95
:1052E00001030BB1012000E00020704700F0805165
:1052F00011B10649086002E002494439486070472C
:105300008000024044000240F8FFFDBF0404024058
:10531000704708488047084981F3088807480047D4
:10532000FEE7FEE7FEE7FEE7FEE7FEE7FEE7FEE755
:10533000FEE7FEE711530008F00F002031010008DE
:1053400040EA01039B0703D009E008C9121F08C007
:10535000042AFAD203E011F8013B00F8013B521E87
:10536000F9D27047064C074D06E0E06840F00103B3
:1053700094E8070098471034AC42F6D3FAF7DCFE05
:10538000285600084856000870B58C1810F8015BC4
:1053900015F0070301D110F8013B2A1106D110F8CE
:1053A000012B03E010F8016B01F8016B5B1EF9D1D2
:1053B0002B0705D40023521E0DD401F8013BFAE758
:1053C00010F8013BCB1A921C03E013F8015B01F8C3
:1053D000015B521EF9D5A142D8D3002070BD02E076
:1053E00008C8121F08C1002AFAD170477047002070
:1053F00001E001C1121F002AFBD1704700C8030859
:1054000000D0030800D8030800E0030800E8030800
:1054100000F0030800C1814001C0804101C080410B
:1054200000C1814001C0804100C1814000C1814074
:1054300001C0804101C0804100C1814000C1814064
:1054400001C0804100C1814001C0804101C0804154
:1054500000C1814001C0804100C1814000C1814044
:1054600001C0804100C1814001C0804101C0804134
:1054700000C1814000C1814001C0804101C0804124
:1054800000C1814001C0804100C1814000C1814014
:1054900001C0804101C0804100C1814000C1814004
:1054A00001C0804100C1814001C0804101C08041F4
:1054B00000C1814000C1814001C0804101C08041E4
:1054C00000C1814001C0804100C1814000C18140D4
:1054D00001C0804100C1814001C0804101C08041C4
:1054E00000C1814001C0804100C1814000C18140B4
:1054F00001C0804101C0804100C1814000C18140A4
:1055000001C0804100C1814001C0804101C0804193
:1055100000C1814000C0C101C30302C2C60607C763
:1055200005C5C404CC0C0DCD0FCFCE0E0ACACB0BD3
:10553000C90908C8D81819D91BDBDA1A1EDEDF1F03
:10554000DD1D1CDC14D4D515D71716D6D21213D3F3
:1055500011D1D010F03031F133F3F23236F6F737A3
:10556000F53534F43CFCFD3DFF3F3EFEFA3A3BFB93
:1055700039F9F83828E8E929EB2B2AEAEE2E2FEF43
:105580002DEDEC2CE42425E527E7E62622E2E323B3
:10559000E12120E0A06061A163A3A26266A6A767E3
:1055A000A56564A46CACAD6DAF6F6EAEAA6A6BAB53
:1055B00069A9A86878B8B979BB7B7ABABE7E7FBF83
:1055C0007DBDBC7CB47475B577B7B67672B2B37373
:1055D000B17170B050909151935352929656579723
:1055E000559594549C5C5D9D5F9F9E5E5A9A9B5B13
:1055F00099595898884849894B8B8A4A4E8E8F4FC3
:105600008D4D4C8C44848545874746868242438332
:105610004181804000A24A0400A24A0400A24A0438
:105620000051250200A24A0448560008000000204C
:105630005001000088530008C456000850010020A3
:10564000A00E0000EE53000823803E1B8025041AA4
:105650000C04190C4B2C010211327D224B4BC01251
:10566000081210120812011A8002220213022012DC
:105670004022042A01061A0218191F3B80202429FF
:10568000041A801E111A141D69041A10049A0810B5
:10569000A9141A18045A0C0C2904290C09121069AF
:1056A000045940321032083280196E110572040319
:1056B00007062D010203040418080607080902045E
:0456C000069100004F
:0400000508000131BD
:00000001FF
