:020000040800F2
:10000000000400205F4F0008E5230008E7230008F4
:10001000EB230008EF230008F32300080000000092
:10002000000000000000000000000000F7230008AE
:10003000F923000800000000FB230008FD2300084E
:100040007F4F00087F4F00087F4F00087F4F000858
:100050007F4F00087F4F00087F4F00087F4F000848
:100060007F4F00082F220008F72100087F4F00086B
:10007000D72300087F4F00087F4F00087F4F0008FC
:100080007F4F00087F4F00087F4F00087F4F000818
:100090007F4F00087F4F00087F4F0008672200084D
:1000A0007F4F00087F4F00087F4F00087F4F0008F8
:1000B00081170008F9190008A71C00087F4F0008E5
:1000C0007F4F00087F4F00087F4F00087F4F0008D8
:1000D0007F4F00087F4F00087F4F0008CF230008A4
:1000E000F72200087F4F00087F4F00087F4F00086D
:1000F0007F4F00087F4F00087F4F00087F4F0008A8
:100100007F4F00087F4F00087D1F00087F4F0008C9
:100110007F4F00087F4F00087F4F00087F4F000887
:100120007F4F00087F4F00087F4F00087F4F000877
:10013000DFF810D004F03CFF00480047CB14000863
:10014000AFF30080E00F002000B585B0012104204E
:1001500003F0EEFE0121480703F0F7FE1020ADF892
:10016000000000208DF803006946F94803F044FCC4
:100170000020019002904FF4006003900020049052
:1001800001A904F028FD0121002004F041FD002117
:10019000084604F09EFD05B000BD00B585B0012104
:1001A000042003F0C5FE0121480703F0CEFE202005
:1001B000ADF8000000208DF803006946E44803F024
:1001C0001BFC0020019002904FF40060039000207F
:1001D000049001A9102004F0FEFC0121102004F07D
:1001E00017FD0021084604F079FD05B000BD30B5CB
:1001F00089B005460C46012142F2100003F098FE3A
:10020000C020ADF8200018208DF8230003208DF8C1
:10021000220008A9CF4803F0EFFBADF81850ADF865
:1002200014400020ADF81A00ADF8160005A9CA4820
:1002300003F04DFF6020ADF804000120ADF806008A
:100240000020ADF80A00ADF80C0001A9C24803F087
:1002500057FF6020ADF804000120ADF80600002033
:10026000ADF80A00ADF80C0001A9BB4803F07FFF10
:100270000121B94804F0BDF90821B74804F0DEFABD
:100280000821B54804F0E3FA0021B34804F054FC17
:100290000021B14804F052FC0121AF4804F09EFA5D
:1002A0000121AD4804F099F909B030BD70B506469A
:1002B00006EB062000EB40004FF47A7190FBF1F55D
:1002C00040F69350854200D90546ACB22146002045
:1002D00004F0FFFC70BD70B5064606EB062000EB8F
:1002E00040004FF47A7190FBF1F540F6935085424F
:1002F00000D90546ACB22146002004F0EFFC70BDE9
:1003000070B5064641F6160070434FF47A7190FBC3
:10031000F1F546F66340854200D90546ACB2214668
:100320008D4804F00BFC70BD70B5064641F6160012
:1003300070434FF47A7190FBF1F546F663408542C5
:1003400000D90546ACB22146834804F0F5FB70BDE8
:1003500010B501241CE0621E804B33F81210804B54
:1003600053F8220003F0F5FB621E7E4B33F81210A7
:100370007D4B53F8220003F0ECFB621E7B4B33F8FD
:1003800012107B4B53F8220003F0E3FB601CC4B255
:10039000052CE0DB4FF48041764803F0DAFB4FF4A4
:1003A0008051744803F0D5FB4FF48041724803F04C
:1003B000D0FB4FF48051704803F0CBFB4FF4004169
:1003C0006C4803F0C6FB4FF400516A4803F0C1FBD0
:1003D0004FF40041684803F0BCFB4FF400516648FD
:1003E00003F0B7FB00243AE0644850F8240004EB23
:1003F0004401634A02EBC10108604FF4C86004EB9A
:10040000440102EBC1014860C82004EB440102EB47
:10041000C101088104EB440102EBC1014881642061
:1004200004EB440102EBC10188814FF47A7004EBC4
:10043000440102EBC101C881002004EB440102EB3E
:10044000C101088204EB440102EBC101C1F81200B2
:1004500004EB440102EBC101C882601CC4B2042C4D
:10046000C2DB10BD2DE9F04104460F4615461E467D
:10047000DDF81880002F29DA601E424951F820006B
:10048000002805DC0121601E3F4A1154BDE8F081BF
:100490000121601E00EB400202EBC0003B4A02EB70
:1004A00040004170621E2F4B33F812102E4B53F850
:1004B000220003F04EFB621E2C4B33F812102C4B23
:1004C00053F8220003F047FB7F4238E0601E2D49BD
:1004D00051F8201000EB4000294A02EBC0000068F0
:1004E000814209DC621E2A4B33F81210294B53F863
:1004F000220003F014FB20B90121601E264A11548A
:10050000C4E70021601E244A115400EB400202EBB4
:10051000C0001E4A02EB40004170621E114B33F8CE
:100520001210114B53F8220003F015FB621E0F4B03
:1005300033F812100E4B53F8220003F00CFB012C81
:100540002CD0022C39D0032C46D0042C62D152E09E
:100550000008014000100140003401402800002044
:1005600078000020300000208800002038000020A3
:100570009800002000140140000C01400000002001
:100580007B03002054010020D000002074010020D3
:100590004000002058000020CC0000204FF4805183
:1005A000FE4803F0BCFAFE4908704FF40051FB48C6
:1005B00003F0B5FAFB4908702CE04FF48041F7488E
:1005C00003F0ADFAF64948704FF40041F34803F0E8
:1005D000A6FAF44948701DE04FF48071F24803F028
:1005E0009EFAEF4988704FF40071EF4803F097FAD4
:1005F000EC4988700EE04FF48061EB4803F08FFA0D
:10060000E749C8704FF40061E74803F088FAE5490C
:10061000C87000BF00BF0021601EE44A1154E44AC4
:100620001154E44A115400EB400101EBC000E249CF
:1006300001EB4000C0F81270012F5DD10221601E55
:1006400000EB400202EBC000DB4A02F810104FF44E
:100650007A71601E00EB400202EBC000D64A02EB4A
:100660004000C0F80210012C06D0022C09D0032C47
:100670000ED0042C1AD112E00A2041078886888502
:1006800014E00A20CD490880CC49083908800DE0E3
:100690000A20CB490880CA490839088006E00A20A8
:1006A000C8490880C7490839088000BF00BF012138
:1006B000601EC54A1154012C06D0022C09D0032C0F
:1006C0000DD0042C17D110E00121880703F085FF1D
:1006D00011E00121B948343803F07FFF0BE001211C
:1006E000B748343803F079FF05E00121B5483438C4
:1006F00003F073FF00BFAEE1002FFCD0C8F164002F
:100700000A2101EB400081B2601E00EB400202EBC7
:10071000C000A94A02EB4000C181601E00EB40010D
:1007200001EBC000114601EB4000C0890A2809DA3C
:100730000A21601E00EB400202EBC0009E4A02EB61
:100740004000C181B5F57A7F17DD601E00EB4001E6
:1007500001EBC000984901EB4000C089C0F57A70F8
:1007600090FBF5F081B2601E00EB400202EBC0008E
:10077000914A02EB4000818145E0601E00EB4001A0
:1007800001EBC0008C4901EB4000C089A8420ADDA2
:100790000121601E00EB400202EBC000864A02EB22
:1007A000400081812FE0642D17DA601E00EB4001CC
:1007B00001EBC000804901EB4000C089C0F164003A
:1007C00090FBF5F081B2601E00EB400202EBC0002E
:1007D000794A02EB4000818115E0601E00EB400188
:1007E00001EBC000744901EB4000C089281A90FB5E
:1007F000F5F081B2601E00EB400202EBC0006E4AD1
:1008000002EB40008181601E00EB400101EBC00063
:10081000694901EB40008089002809DC0121601E44
:1008200000EB400202EBC000634A02EB4000818112
:10083000B6F57A7F17DD601E00EB400101EBC000CA
:100840005D4901EB4000C089C0F57A7090FBF6F07D
:1008500081B2601E00EB400202EBC000564A02EB80
:100860004000418145E0601E00EB400101EBC0000B
:10087000514901EB4000C089B0420ADD0121601EF0
:1008800000EB400202EBC0004B4A02EB400041810A
:100890002FE0642E17DA601E00EB400101EBC00070
:1008A000454901EB4000C089C0F1640090FBF6F0BF
:1008B00081B2601E00EB400202EBC0003E4A02EB38
:1008C0004000418115E0601E00EB400101EBC000DB
:1008D000394901EB4000C089301A90FBF6F081B233
:1008E000601E00EB400202EBC000334A02EB400006
:1008F0004181601E00EB400101EBC0002E4901EB7D
:1009000040004089002809DC0121601E00EB400204
:1009100002EBC000284A02EB40004181B5F57A7F26
:100920000CDD4FF47A71601E00EB400202EBC00058
:10093000214A02EB4000C0F8021017E0642D0BDAE8
:100940006421601E00EB400202EBC0001A4A02EB79
:100950004000C0F8021009E0601E00EB400101EB0E
:10096000C000154901EB4000C0F80250B91B601EE1
:1009700000EB400202EBC0000F4A02EB4000C0F85F
:1009800006100121601E00EB400202EBC0000A4A83
:1009900002F81010601E0C4A115417E000180140B4
:1009A000F8000020FC00002000140140D4000020CA
:1009B000D0000020CC00002074010020340400404E
:1009C00034080040340C004002010020012C06D005
:1009D000022C09D0032C0ED0042C1AD112E00A20CC
:1009E00041078886888514E00A20F9490880F8497B
:1009F000083908800DE00A20F6490880F5490839D1
:100A0000088006E00A20F4490880F3490839088084
:100A100000BF00BF012C06D0022C09D0032C0DD042
:100A2000042C17D110E00121880703F0D6FD11E056
:100A30000121E748343803F0D0FD0BE00121E548FF
:100A4000343803F0CAFD05E00121E348343803F0EF
:100A5000C4FD00BF00BF00BF18E52DE9F843044600
:100A60000D4616461F46DDF82080601EDB4951F812
:100A700020002D1A3B46324629462046CDF80080FC
:100A8000FFF7F0FCBDE8F883F8B5044604EB44003A
:100A9000D34901EBC000C089B0F57A6F07DD4FF490
:100AA0007A6004EB4401CE4A02EBC101C88134B143
:100AB000012C0DD0022C14D0032C24D11AE004EB0D
:100AC0004401C74A02EBC101C889FFF704FC1AE0E0
:100AD00004EB4401C24A02EBC101C889FFF7E6FBFF
:100AE00011E004EB4401BE4A02EBC101C889FFF7E3
:100AF00007FC08E004EB4401B94A02EBC101C889D4
:100B0000FFF712FC00BF00BF04EB440000EBC40081
:100B1000B44911F81000002864D104EB4400B04936
:100B200001EBC000008A00285CD004EB440001EB1C
:100B3000C000008A01281AD104EB440001EBC00078
:100B4000007B04EB44050E4606EBC50500906B895F
:100B500004EB440506EBC5052A8904EB440506EBC6
:100B6000C5056968651CE8B2FFF77CFC4BE004EB47
:100B700044009B4901EBC000008A02281AD104EB13
:100B8000440001EBC000007B04EB44050E4606EB7D
:100B9000C50500906B8904EB440506EBC5052A8961
:100BA00004EB440506EBC5056968651CE8B2FFF770
:100BB00054FF28E004EB4400894901EBC000008A9F
:100BC000032803D10120884908551CE004EB4400A8
:100BD000834901EBC000008A082814D10120834911
:100BE000085510E08248005D68B104EB44007C4980
:100BF00001EBC000008A042805D101207D49085579
:100C000000207A490855002004EB4401744A02EBA5
:100C1000C1010882204601F025FDF8BD08B57448E1
:100C2000807860B1744A9188744A906802F077FFC6
:100C300028B901206F49887000206C4988706C4881
:100C4000C07860B16C4AD1886C4AD06802F067FF06
:100C500028B901206749C87000206449C8706448F9
:100C6000007870B9644A1188644A106802F057FF2E
:100C700038B96420C8231A46614900900120FFF763
:100C8000F1FB5B48007878B95B4A51885B4A506851
:100C900002F045FF40B96420C8231A46584949422A
:100CA00000900120FFF7DEFB08BDF8B50446601E8A
:100CB000C4B24E48005D052861D2DFE800F00304AD
:100CC00010193D005BE04A48005D38B901204649F3
:100CD00008554648005D401C444908554FE04248CD
:100CE000005D20B94148005D401C4049085546E080
:100CF0003F48005DF8B904EB4400394901EBC000FE
:100D0000007B04EB44050E4606EBC50500906B899D
:100D100004EB440506EBC5052A8904EB440506EB04
:100D2000C5056968651CE8B2FFF79CFB2F48005DAC
:100D3000401C2E49085522E02D48005DF0B904EB17
:100D40004400274901EBC000007B04EB44050E463C
:100D500006EBC50500906B8904EB440506EBC50561
:100D60002A8904EB440506EBC5056D686942651CDC
:100D7000E8B2FFF777FB03201C49085500BF00BF0E
:100D8000F8BD38B50446601EC4B21748005D05289A
:100D900004D2DFE800F00304B2EBF90034E11448B8
:100DA000005D002870D1174A32F81410164A52F824
:100DB000240002F0B4FE002867D000201349085533
:100DC00034B3012C2BD0022C30D0032C3CD134E096
:100DD0003404004034080040340C0040540100202A
:100DE0007B03002074010020EC000020F0000020B4
:100DF00002010020D40000204800002068000020EC
:100E000000E2040050000020A8000020E8000020BC
:100E1000F948006840F01000F749086014E0F6480F
:100E2000006840F00800F44908600DE0F2480068EE
:100E300040F08000F049086006E0EF48006840F0AC
:100E40004000ED49086000BF00BF04EB4400EB49DF
:100E500001EBC000006800F5C860E94941F82400D2
:100E6000642004EB4402E54B03EBC20200901268DD
:100E700002F5C8625142621CD0B2C8231A46FFF77D
:100E8000F1FA0320DF49085536E034B1012C0BD0CC
:100E9000022C10D0032C1CD114E0D748006820F09D
:100EA0001000D549086014E0D348006820F008001D
:100EB000D14908600DE0D048006820F08000CE499C
:100EC000086006E0CC48006820F04000CA4908608D
:100ED00000BF00BF4FF4E160C94941F8240064201D
:100EE000611C0090C8B2C8231A46D900FFF7BAFAAD
:100EF0000221601EC34A115486E0C348005DA0BBB6
:100F00000020C249085534B1012C0BD0022C10D05E
:100F1000032C1CD114E0B848006840F01000B6491A
:100F2000086014E0B448006840F00800B249086066
:100F30000DE0B148006840F08000AF49086006E06D
:100F4000AD48006840F04000AB49086000BF00BFFA
:100F50003220611C0090C8B24FF496731A46AC4917
:100F6000FFF780FA0320A74908554DE0A648005D29
:100F7000E0BBA648005DC8B33CB1012C0CD0022CEC
:100F800011D0032C1DD115E031E09B48006820F002
:100F900010009949086014E09748006820F00800A4
:100FA000954908600DE09448006820F0800092495F
:100FB000086006E09048006820F040008E49086014
:100FC00000BF00BF0020934908558D4941F8240017
:100FD0001420914A009032F81410621CD0B264239D
:100FE0001A46FFF73FFA0420864908550CE0864868
:100FF000005D40B9002083490855814941F824002B
:10100000864941F8240000BF00BF38BD10B5044632
:10101000601E00EB400101EBC000814901EB400084
:101020004078D0B9601E764951F8201000EB40009E
:10103000724A02EBC0000068814209DC621E794BF3
:1010400033F81210784B53F8220002F068FD20B9F3
:101050000121601E754A115403E00021601E734A8D
:101060001154601E664951F82000002804DD00215B
:10107000601E6F4A11540EE0601E00EB400101EB50
:10108000C000674901EB40004078012803D10121ED
:10109000601E674A115410BD08B54FF4407001F04E
:1010A000E7FE00214FF0006001F019FF25208DF8C8
:1010B000000004208DF8010001208DF8030068462F
:1010C00001F0DBFE09208DF8000002208DF8010000
:1010D0008DF8020001208DF80300684601F0CDFE76
:1010E0000A208DF80000684601F0C7FE17208DF831
:1010F0000000684601F0C1FE28208DF80000684617
:1011000001F0BBFE08BD0EB50121092002F010FF61
:101110000121484802F041FD1820ADF808000420E4
:101120008DF80B0002A9444802F066FC0121212041
:1011300002F0FEFEC020ADF8080004208DF80B0080
:1011400002A93E4802F058FC0321012002F05AFD9A
:101150000421012002F056FD0621032002F052FD79
:101160000721032002F04EFDD820009000208DF8CA
:1011700004000C208DF8050001208DF8060068465B
:1011800002F0AAF8082002F02EF9102002F02BF944
:10119000402002F028F9802002F025F90EBD7FB52D
:1011A00005460C460121082002F0CFFEADF808509C
:1011B000ADF804400020ADF80A00ADF8060001A922
:1011C0001F4802F084FF32208DF8000000208DF8C7
:1011D000010003208DF8020001208DF8030068460D
:1011E00001F04BFE0121164803F0E6FC01221146F6
:1011F000134803F00DFA7FBD000401407B0300207B
:1012000054010020EC00002002010020E800002032
:10121000F8F8FFFFD400002010000020CC010020CF
:10122000740100204000002058000020CC00002065
:10123000D000002000023000000C014000140140EA
:10124000000C00407FB505460C460121042002F049
:101250007CFEADF80850ADF804400020ADF80A005F
:10126000ADF8060001A9FE4802F031FF0122114647
:10127000FB4803F0CDF91E208DF8000000208DF80A
:10128000010002208DF8020001208DF8030068465D
:1012900001F0F3FD0121F24803F08EFC012211461A
:1012A000EF4803F0B5F97FBD7FB505460C46012137
:1012B000022002F04AFEADF80850ADF804400020CC
:1012C000ADF80A00ADF8060001A9E64802F0FFFEFD
:1012D00001221146E34803F09BF91D208DF8000020
:1012E00000208DF8010001208DF802008DF8030028
:1012F000684601F0C2FD0121DA4803F05DFC0122DD
:101300001146D84803F084F97FBD7FB505460C46E9
:101310000121084602F019FEADF80850ADF804406E
:101320000020ADF80A00ADF8060001A94FF080409A
:1013300002F0CDFE01221146900703F069F91C204E
:101340008DF8000001208DF8010000208DF80200CA
:1013500001208DF80300684601F08FFD0121880708
:1013600003F02AFC01221146900703F051F97FBDDA
:1013700008B50121042002F0DBFD4FF40040ADF878
:10138000000048208DF803006946B74802F034FB9E
:10139000FE20ADF8000010208DF8030003208DF82A
:1013A00002006946B04802F027FB0121082002F044
:1013B000BFFD0121880402F0C8FD4FF48060ADF844
:1013C000000003208DF8020018208DF80300694604
:1013D000A64802F011FB4FF40060ADF800000420B5
:1013E0008DF803006946A14802F006FB1820ADF80D
:1013F000000048208DF8030069469C4802F0FCFA82
:101400004FF2E330ADF8000010208DF80300032008
:101410008DF802006946954802F0EEFA012110208D
:1014200002F086FD4FF48050ADF8000048208DF8A2
:10143000030069468E4802F0DFFAF020ADF80000A4
:1014400010208DF8030003208DF8020069468848BB
:1014500002F0D2FA0121202002F06AFD40F6FF706E
:10146000ADF8000048208DF803006946814802F07D
:10147000C3FA4FF47040ADF8000010208DF803005F
:1014800003208DF8020069467A4802F0B5FA01217E
:10149000402002F04DFD4FF47040ADF800004820B0
:1014A0008DF803006946744802F0A6FA40F683708E
:1014B000ADF8000010208DF8030003208DF8020025
:1014C00069466D4802F098FA08BDFFF751FFFEF734
:1014D0003FFF01F09BFC40214FF47A70FFF715FFAE
:1014E00040214FF47A70FFF7DFFE40214FF47A700D
:1014F000FFF7A8FE40214FF47A70FFF750FEFFF788
:1015000002FEFFF7C9FDFEF71FFEFEF746FE01F0E3
:101510000AFA00214FF40040FEF769FE4FF47A709A
:10152000FEF7D9FE4FF47A70FEF7C0FE4FF47A70E2
:10153000FEF7E6FE4FF47A70FEF7F6FE65E0012452
:101540001BE02046FFF762FD2046FFF71AFC20460D
:10155000FFF7ABFB494850F8240004EB4401484A2C
:1015600002EBC101C1F812004648005D04EB4401E2
:1015700002EBC101C882601CC4B2052CE1DB4FF450
:1015800080513D4802F0CBFA28B14FF480413948F0
:1015900002F0DFFA04E04FF48041364802F0DBFA53
:1015A0004FF48041344802F0BAFA28B14FF40041B8
:1015B000304802F0CEFA04E04FF400412D4802F02A
:1015C000CAFA3148007801280BD1002404E02046F3
:1015D000FFF75AFA601CC4B2042CF8DB00202A4939
:1015E00008702A480078012804D101F0EAFB0020A5
:1015F00026490870FFF712FB25480078012804D11E
:1016000001F0BAF900202249087098E770B5044645
:101610000D46E1B21F4801F0B8FD00BF40211D4852
:1016200001F00AFE0028F9D0204670BD10B588B040
:101630000121084602F089FC0121022002F085FC0C
:101640000121042002F081FC0121082002F07DFC30
:101650004FF6FF70ADF818000020ADF814001BE045
:10166000000800400004004000080140000C014058
:1016700000100140001401400018014054010020F6
:101680007B030020020100203A01002039010020E4
:101690003B01002000380140ADF81A00ADF81600FB
:1016A00005A9FE4802F013FD05A94FF0804002F0A5
:1016B0000EFD05A9FA4802F00AFD05A9F94802F055
:1016C00006FDF94800684008F849B0FBF1F0401EFB
:1016D00084B201222146900703F027F80122214617
:1016E000EE4803F022F801222146ED4803F01DF8F0
:1016F00001222146EB4803F018F81020ADF8040051
:101700000120ADF806000A20ADF80A000020ADF86F
:101710000C0001A94FF0804002F0F2FC01A9DF4863
:1017200002F0EEFC01A9DE4802F0EAFC01A9DD4866
:1017300002F0E6FC0121880703F02AFA0121D748CC
:1017400003F026FA0121D64803F022FA0121D548F8
:1017500003F01EFA01221146900702F059FF012200
:101760001146CE4802F054FF01221146CC4802F047
:101770004FFF01221146CB4802F04AFF08B010BDCE
:1017800010B50121880703F006FA18B10121880776
:1017900003F012FAC64840884FF080418886C4485A
:1017A00040888885C248007870B11021C14802F095
:1017B000C3F9012804D11021BE4802F0CCF903E09E
:1017C0001021BC4802F0C5F9BB48007810B10128CF
:1017D00038D115E04FF48051B84802F0A0F9B8496B
:1017E000097888420BD0B4480078401CB249087090
:1017F0004FF48051B14802F092F9B149087021E0EC
:101800004FF40051AD4802F08AF9AE490978884298
:1018100017D0A748407828B9AB480068401CAA49AF
:10182000086004E0A8480068401EA749086000203E
:10183000A14908704FF40051A04802F070F9A14985
:10184000087000BF00BFA1480078401C9F49087085
:1018500008460078022878D1002008709448007863
:1018600030B1012812D0022870D003280DD15EE0DB
:1018700000209749086000214FF0804002F0ADFE43
:1018800000209449087094490870B3E090480068BB
:10189000401C8F4908608648407828B98F48006806
:1018A000401C8E49086004E08C480068401E8B494B
:1018B00008607F48D0F802007D498989884209DDA7
:1018C0007B48D0F802007A498989401A7849C1F8E2
:1018D000020004E07648C0897549C1F802008048DA
:1018E000007828B97F48007810B97F48007840B167
:1018F0006F48D0F806007649086002206C490870ED
:1019000014E06B48D0F8060071490968884203D892
:1019100002206749087009E06548D0F80200644970
:10192000C989884202DC03206149087062E0684886
:101930000068401C664908605D48407838B96748CF
:101940000068401C6549086006E054E021E06348F7
:101950000068401E614908606148007828B9614804
:10196000007810B96048007840B15148D0F80600BE
:101970005749086002204E49087009E04C48D0F8E9
:10198000060053490968884202D802204849087075
:1019900030E04F480068401C4D490860444840789A
:1019A00028B94E480068401C4C49086004E04B4888
:1019B0000068401E494908603D48D0F802003C4993
:1019C000498908443A49C1F802000846D0F80200A3
:1019D000B0F57A7F03DD4FF47A70C1F80200344825
:1019E000D0F812003A490968884202D800203049EC
:1019F000087000BF00BF10BD10B50121274803F0DB
:101A0000CAF818B10121254803F0D6F82848008B00
:101A10002249343108802648008B20492C31088027
:101A20002348807D70B10821304802F085F80128F4
:101A300004D108212D4802F08EF803E008212B483C
:101A400002F087F81C48407810B1012864D115E0F5
:101A50004FF48041194802F062F8194949788842E8
:101A60000BD015484078401C134948704FF4804112
:101A7000124802F054F8124948704DE04FF400410A
:101A80000E4802F04CF80F494978884243D0084884
:101A9000C07D68BB0C484068401C2AE00004004040
:101AA00000080040000C00406452000840420F0053
:101AB0007401002000100140F400002000180140D3
:101AC000F8000020FC000020CC01002018010020BC
:101AD0001401002002010020D80000205401002041
:101AE000D4000020CC000020D000002000080140DD
:101AF00002E0FC49486004E0FA484068401EF949A9
:101B000048600020F84948704FF40041F74802F05F
:101B100006F8F749487000BF00BFF6480078401C3F
:101B2000F44908700846007802287DD1002008702A
:101B3000F148807D30B1012811D0022875D00328EA
:101B40000CD152E00020ED4908600021EC4802F081
:101B500044FD0020EB494870EB494870A1E0E7489C
:101B60000068401CE5490860E348C07D28B9E748A3
:101B70004068401CE549486004E0E4484068401E75
:101B8000E2494860DC488169408C814206DDDA48E0
:101B90008169408C091AD848816102E0D648818C5D
:101BA0008161DB48407828B9DA48407810B9DA48D2
:101BB000407838B1D048C069D04908600220CE4989
:101BC000887511E0CC48C069CC490968884203D8BF
:101BD0000220C949887507E0C7488169808C814225
:101BE00002DC0320C44988755BE0C4480068401CDF
:101BF000C2490860C048C07D28B9C4484068401C3C
:101C0000C249486004E0C1484068401EBF4948607E
:101C1000BF48407828B9BF48407810B9BE484078DE
:101C200050B1B548C06901E03CE00FE0B34908603D
:101C30000220B149887508E0AF48C069AF4909681A
:101C4000884202D80220AC4988752AE0AB48006877
:101C5000401CAA490860A848C07D28B9AB48406824
:101C6000401CAA49486004E0A8484068401EA749B3
:101C70004860A1488169008C01449F488161806966
:101C8000B0F57A7F03DD4FF47A719B4881619A4801
:101C9000806A9A490968884202D800209649887566
:101CA00000BF00BF10BD10B501219C4802F073FFBA
:101CB00018B10121994802F07FFF8F48C08D9749E4
:101CC000343108808C48C08D94492C3108808A4872
:101CD00090F82C0070B10121844801F02DFF0128FB
:101CE00004D10121814801F036FF03E001217F4842
:101CF00001F02FFF7C48807810B1012839D115E020
:101D00004FF48071864801F00AFF8649897888423D
:101D10000BD075488078401C734988704FF48071EF
:101D20007F4801F0FCFE7F49887022E04FF400718B
:101D30007B4801F0F4FE6E498978884218D06E48DD
:101D400090F82D0028B967488068401C6549886074
:101D500004E064488068401E62498860002062494F
:101D600088704FF400716E4801F0D9FE60498870A8
:101D700000BF00BF6C480078401C6B4908700846E3
:101D80000078022879D1002008705B4890F82C0078
:101D900030B1012811D0022870D003280CD15DE0A9
:101DA00000206249086000215C4802F016FC002017
:101DB0005449887054498870DEE05C480068401CD3
:101DC0005A4908604C4890F82D0028B94F4880685F
:101DD000401C4E49886004E04C488068401E4B49D6
:101DE00088604548D0F82E10008F814208DD4248B7
:101DF000D0F82E10008F091A3F48C0F82E1003E0CB
:101E00003D48418FC0F82E104148807828B941489C
:101E1000807810B94048807848B13748D0F832000F
:101E2000424908600220344981F82C0015E032480C
:101E3000D0F832003D490968884204D802202E4972
:101E400081F82C0009E02C48D0F82E10408F8142F8
:101E500003DC0320284981F82C008DE0334800681A
:101E6000401C32490860244890F82D0038B92748B2
:101E70008068401C2549886006E07EE023E0234816
:101E80008068401E214988602148807828B921480F
:101E9000807810B92048807848B11748D0F83200CF
:101EA000224908600220144981F82C000AE01248F7
:101EB000D0F832001D490968884203D802200E4933
:101EC00081F82C0058E019480068401C1749086048
:101ED000094890F82D0058BB0C488068401C0B49FD
:101EE00088602BE0CC010020F400002000180140A5
:101EF000FC00002020010020740100201C010020B3
:101F00000004004002010020D800002054010020FD
:101F1000D4000020CC000020D000002000080040A9
:101F200000140140F80000202801002024010020B6
:101F3000FFE7FE488068401EFC498860FC48D0F8F6
:101F40002E10C08E0144FA48C0F82E10D0F82E0092
:101F5000B0F57A7F04DD4FF47A71F548C0F82E10A1
:101F6000F348D0F83E00F3490968884203D80020BE
:101F7000EF4981F82C0000BF00BF10BD10B5012152
:101F8000ED4802F008FE18B10121EB4802F014FE02
:101F9000E748B0F84400E84934310880E448B0F834
:101FA0004400E5492C310880E14890F8420070B1C6
:101FB0008021E24801F0C0FD012804D18021DF48E2
:101FC00001F0C9FD03E08021DC4801F0C2FDDC48DE
:101FD000C07810B1012839D115E04FF48061D9489B
:101FE00001F09DFDD849C97888420BD0D448C0780B
:101FF000401CD349C8704FF48061D24801F08FFD76
:10200000D149C87022E04FF40061CE4801F087FD4D
:10201000CE49C978884218D0C54890F8430028B9FD
:10202000CB48C068401CCA49C86004E0C848C068C2
:10203000401EC749C8600020C149C8704FF4806184
:10204000C04801F06CFDC149C87000BF00BFC14865
:102050000078401CBF49087008460078022876D1F5
:1020600000200870B24890F8420030B1012811D029
:1020700002286DD003280CD15AE00020B649086030
:102080000021AD4802F0A9FA0020B449C870B44953
:10209000C870AEE0B0480068401CAF490860A44872
:1020A00090F8430028B9A148C068401C9F49C86007
:1020B00004E09E48C068401E9C49C8609C48416C32
:1020C000B0F84E00814207DD9948416CB0F84E00EF
:1020D000091A9748416403E09548B0F850104164EC
:1020E000A048C07828B9A048C07810B99F48C078E7
:1020F00040B18F48806C9849086002208C4981F873
:10210000420014E08A48806C93490968884204D8E8
:102110000220874981F8420009E08548416CB0F807
:102120005000814203DC0320814981F8420060E0D5
:1021300089480068401C884908607D4890F8430041
:1021400038B97A48C068401C7849C86006E051E058
:1021500021E07648C068401E7449C8608148C07854
:1021600028B98148C07810B98048C07840B170481B
:10217000806C7949086002206D4981F8420009E0CD
:102180006B48806C74490968884203D8022068490A
:1021900081F842002DE070480068401C6E490860DC
:1021A000634890F8430028B96048C068401C5F4904
:1021B000C86004E05D48C068401E5C49C8605C4877
:1021C000416CB0F84C00014459484164406CB0F592
:1021D0007A7F03DD4FF47A71554841645448406D6D
:1021E0005D490968884203D80020514981F84200BE
:1021F00000BF00BF10BD10B5102001F0E3F8A8B17A
:102200004A4800685A49086001205A4908705348F2
:10221000007810B1012053490870102001F0E3F854
:102220005548006820F010005349086010BD10B5F3
:10223000082001F0C7F8A8B13C4840684C49486004
:1022400001204C4948704548407810B1012045496B
:102250004870082001F0C7F84748006820F00800DF
:102260004549086010BD10B5802001F0ABF8A8B159
:102270002E4880683E49886001203E498870374872
:10228000807810B1012037498870802001F0ABF8C8
:102290003948006820F0800037490860402001F08C
:1022A00091F8A8B12148C0683149C860012031497E
:1022B000C8702A48C07810B101202A49C87040204F
:1022C00001F091F82C48006820F040002A4908608D
:1022D0004FF4807001F076F818B14FF4807001F07F
:1022E00082F84FF4007001F06DF818B14FF40070EF
:1022F00001F079F810BD10B54FF4806001F062F87C
:1023000018B14FF4806001F06EF84FF4006001F0F6
:1023100059F818B14FF4006001F065F84FF480509F
:1023200001F050F850B31448006828E05401002030
:102330007401002024010020000C0040000C01402A
:10234000F400002000140140F8000020FC000020F0
:10235000CC010020300100202C01002002010020CF
:10236000D8000020D4000020CC000020D0000020A5
:1023700064010020E80000200004014006E020F491
:10238000805017490860881401F02DF84FF4005070
:1023900001F018F840B11248006820F400501049CC
:1023A0000860481401F01FF84FF4804001F00AF86B
:1023B00018B14FF4804001F016F84FF4004001F0DE
:1023C00001F818B14FF4004001F00DF810BD10B540
:1023D00000F0BEFB10BD10B500F0F9F810BD000014
:1023E00000040140704700BFFEE700BFFEE700BFEA
:1023F000FEE700BFFEE77047704770477047000078
:1024000030B502460B464FF6FF700021002400BF96
:1024100012E0555C684000240AE000F0010525B197
:1024200040104AF20105684000E04010651CACB263
:10243000082CF2DB4D1CA9B29942EADB30BD014603
:102440000806000C40EA1120704708B54FF4E06020
:1024500000F00EFD27208DF8000002208DF801000D
:1024600000208DF8020001208DF80300684600F07E
:1024700004FD08BD08B54FF4C06000F0F9FC0C2065
:102480008DF8000001208DF801008DF802008DF814
:102490000300684600F0F1FC08BD00B58BB00121D7
:1024A000084601F038FDFE4802F038FCFD48009077
:1024B000FD480190002002904FF4806003900020BE
:1024C000049080200590002006900790202008901E
:1024D0000002099000200A906946F14802F0B7FC1A
:1024E00001220221EE4802F0E8FC01220821EC481A
:1024F00002F0E3FC01224021EA48001F00F009FE3F
:102500000121E74802F0CEFC0BB000BD1FB5044628
:1025100000940020ADF80400ADF80600ADF8080006
:10252000ADF80C000C20ADF80A006946DD48001F2C
:1025300000F055FD012240F22441DA48001F00F06E
:10254000C8FD0121D748001F00F0B7FDFFF77DFF50
:102550000121084601F0DFFCFFF78CFFFFF79DFF2C
:102560001FBD30B58BB004460D460120CF49087021
:10257000CC48009001951020029003940020049014
:102580008020059000200690079008904FF480501E
:10259000099000200A90C248143802F0BFFB694637
:1025A000BF48143802F053FC0121BD48143802F032
:1025B00079FC01220221BA48143802F07EFC012283
:1025C0008021B848001F00F0A4FD0BB030BD10B54D
:1025D000202002F07FFC01280DD1202002F08EFC8B
:1025E0000021AF48143802F05DFC0220B0490870A9
:1025F0000020AE49087010BD70B5044600250026C5
:10260000032000EB4400C6B23146AA48FFF7F8FEAB
:102610000546A9484179A748C01C00EB4100058048
:10262000A4498978481DA349FFF79BFF70BD10B5E9
:10263000A1490820FFF795FF10BD70B500250024C3
:10264000062421469C48FFF7DBFE05469A48C580D4
:10265000A21C0146974802F099FC9649A01CFFF77E
:1026600080FF70BD10B5024602EB4200830002EB12
:102670004201924C04EBC101088AFFF7E0FE03F12E
:1026800008018F4C04EB4101088010BD70B5002299
:10269000B5E002EB4200830002EB4200874901EB08
:1026A000C00000684FF6FF7101EA204402EB4200CF
:1026B000824901EBC000008885B22046FFF7BFFECB
:1026C0007F4901EB430108802846FFF7B8FE591CFB
:1026D0007B4E06EB4101088002EB4200774901EB9B
:1026E000C00040684FF6FF7101EA204402EB42004F
:1026F000724901EBC000808885B22046FFF79FFE3B
:10270000991C06EB410108802846FFF798FED91C6A
:1027100006EB4101088002EB4201684E06EBC10165
:102720000889FFF78CFE191D654E06EB41010880F4
:1027300002EB4201614E06EBC1014889FFF77FFEC3
:10274000591D5F4E06EB4101088002EB42015B4ED2
:1027500006EBC1018889FFF772FE991D584E06EB02
:102760004101088002EB4201544E06EBC101C889C9
:10277000FFF765FED91D524E06EB4101088002EBC2
:1027800042014E4E06EBC101088AFFF758FE03F1E5
:1027900008014B4E06EB4101088002EB420047491D
:1027A00001EBC000D0F812004FF6FF7101EA20449F
:1027B00002EB4200414901EBC000408A85B220464D
:1027C000FFF73DFE03F1090106EB410108802846B1
:1027D000FFF735FE03F10A0106EB4101088002EB29
:1027E0004201364E06EBC101C88AFFF728FE03F10D
:1027F0000B01334E06EB41010880501CC2B2042A83
:10280000FFF647AF70BD70B5002388E003EB4300CF
:1028100082002B4901EB42010888FFF710FE0446B5
:10282000511C274E06EB41010888FFF708FE0546BC
:1028300045EA044003EB4301204E06EBC10108606A
:10284000911C1F4E06EB41010888FFF7F8FD044676
:10285000D11C06EB41010888FFF7F1FD054645EA6A
:10286000044003EB4301154E06EBC1014860111D06
:10287000134E06EB41010888FFF7E1FD03EB43012E
:102880000E4E06EBC1010881511D0D4E06EB4101B4
:102890000888FFF7D4FD03EB4301084E12E0000067
:1028A0003000024004480040DB05002038010020D1
:1028B0003C010020F80100207B0200207B03002067
:1028C000DB03002006EBC1014881911DBF4E06EBE2
:1028D00041010888FFF7B3FD03EB4301BC4E06EB53
:1028E000C1018881D11DB94E06EB41010888FFF76F
:1028F000A6FD03EB4301B64E06EBC101C88102F110
:102900000801B24E06EB41010888FFF798FD03EB82
:102910004301AF4E06EBC1010882581CC3B2042B21
:10292000FFF674AF70BD10B5AA48408820B94FF4C7
:102930001650FFF7EBFD1EE0A6484088012804D1A1
:102940004FF49640FFF7E2FD15E0A24840880228C8
:1029500004D14FF41640FFF7D9FD0CE09D484088A4
:10296000032804D14FF46140FFF7D0FD03E04FF49A
:10297000E130FFF7CBFD10BD70B59748028897494D
:10298000974802F003FB94480078801EC1B2944837
:10299000FFF736FD064690480088801E8F49095C87
:1029A0008D480088401E8D4A105C41EA0020B042EC
:1029B0007ED18B48007887490988884203D08848AF
:1029C0000078C828F4D186484078032876D1844816
:1029D000C078602802D0612838D11BE08048407957
:1029E000012800DD69E07B490888FFF728FD7D4963
:1029F000A1F803007A480078087079484078487058
:102A0000774840794006000E887075494879FFF78D
:102A1000F3FD52E072484079012800DD4DE06D4938
:102A20004888FFF70CFD6F49A1F803006C48007857
:102A300008706B4840784870694840794006000E3D
:102A4000887067494879FFF7D7FD36E06448C07859
:102A5000302800DD31E06248C078C0F1300085B236
:102A60005F484079A84200DD27E0FFF70FFE002411
:102A70000DE05B48C0782044544901EB40000188D8
:102A80005848C01C00EB44000180601CC4B2AC423A
:102A9000EFDB53480078534908705148407848703C
:102AA0004F4840794006000E88704D49487901E052
:102AB0004CE003E0FFF7A0FD00BF47E04848407846
:102AC000062829D14648C078602802D061281ED146
:102AD0000DE0434840794249097940EA01203D49E7
:102AE0000880FFF7A4FD01203F49087010E03C4832
:102AF00040793B49097940EA012036494880FFF78F
:102B000096FDFFF710FF01203749087000E000BF75
:102B100000BFFFF78CFD19E031484078102815D12F
:102B20002F48C0782F2800DD70BD2D498A79C978DB
:102B3000264B03EB41002A49C91D02F027FAFFF793
:102B400062FE012029490870FFF777FD00BFEBE71F
:102B500010B540F22441264800F07AFB28B300214A
:102B6000244802F09FF9224800F013FB214802F0AC
:102B7000ADF9C0F5806018490880084600888028B3
:102B800002DA01201C4908704FF4706002F0B6F9B7
:102B90004FF480601749303948630121154802F02D
:102BA00081F913480488001D04884FF45A711048B5
:102BB00000F04EFB20B14FF45A710D4800F06EFB4F
:102BC00040F224410A4800F069FB10BDDB030020FD
:102BD0007B030020320100203E010020DB050020A5
:102BE0007B020020F8010020390100203A0100207A
:102BF00000480040300002403B01002001460888A8
:102C000070472DE9F04105460E461746002407E0BF
:102C100036F81410284600F01AFDAD1C601C84B272
:102C2000BC42F5DBBDE8F08130B503460C461546E5
:102C3000002207E01846FFF7E1FF24F812009B1C72
:102C4000501C82B2AA42F5DB30BD2DE9F05F804610
:102C50008A461746B8F1006F02D37F48804501D3FA
:102C6000BDE8F09F00F0E9FBA8F1006B4FEA9B255F
:102C7000CBF34809C9F50074A74200DC3C464DE09F
:102C80004FF0006101EB85208A147449FFF7CCFFF7
:102C900000260BE009EB0600704931F810004FF6F2
:102CA000FF71884200D003E0701C86B2A642F1DBBF
:102CB00000BFA6421BDA4FF0006101EB852000F057
:102CC00003FC002608E03AF8160006EB0901634A07
:102CD00022F81100701C86B2A642F4DB4FF00061AE
:102CE00001EB85208A145D49FFF78BFF04E0224643
:102CF00051464046FFF785FFA74200D10FE06D1C0B
:102D00004FF000090AEB440AA044381B87B2B7F51C
:102D1000007F02DD4FF4007400E03C46B0E700BFE6
:102D200000F091FB00BF9BE770B502460D46FF2106
:102D3000FF23002409E012F8010B80EA010448484F
:102D4000005D80EA03014748035D281EA5F10106E6
:102D5000B5B2F0D143EA012070BD13B5044601229B
:102D600001A92046FFF771FF1CBD10B503460020E6
:102D700000BF05E031F8104023F81040441CA0B219
:102D80009042F7DB10BD30B503460C46002100BF72
:102D900008E033F8110034F81150A84200D003E0E5
:102DA000481C81B29142F4DB00BF914201D1012065
:102DB00030BD0020FCE701202B490880032048801B
:102DC000704730B5ADF2044D03240625A81E81B22C
:102DD0002548FFF7A9FF2449888000F02EFB2A46EA
:102DE000214901A802F0D2F8204951F8240000F04E
:102DF0006BFB1E4951F824004FF4007201A9FFF744
:102E000000FF00F020FB0DF2044D30BD70B5ADF5B4
:102E1000806D0325062400F010FB144951F82500AD
:102E20004FF400726946FFF7FFFE00F00CFB2246EC
:102E300069460D4802F0AAF8A01E81B20A48FFF7C1
:102E400073FF064608488088B04201D0FFF7B3FF01
:102E50000DF5806D70BD000000000208DC09002047
:102E600060500008605100083201002048500008FE
:102E700031490143314A1160704770B50021002388
:102E80000F22C47804B32D4C246804F4E064C4F524
:102E9000E064210AC1F10403CA40447804FA03F152
:102EA0008478144021430901254C0678A155047803
:102EB00004F01F050124AC4005786D11AD0005F14B
:102EC000E025C5F8004109E0047804F01F0501245D
:102ED000AC401C4D0678761145F8264070BD1A4A64
:102EE0000A400243154B1B1F1A60704739B1134A41
:102EF000121D12680243114B1B1D1A6006E00F4A97
:102F0000121D126882430D4B1B1D1A607047042866
:102F100008D14FF0E021096941F004014FF0E022AF
:102F2000116107E04FF0E021096921F004014FF041
:102F3000E0221161704700000000FA050CED00E08E
:102F400000E400E080E100E080FFFF1F10B50446D0
:102F5000D749601A8C422BD006DCD648204498B161
:102F6000B0F5806F38D119E0B0F5806F2AD0B0F598
:102F70006C4F31D10121880300F0F4FF00214FF4A0
:102F8000804000F0EFFF28E00121480400F0F7FF47
:102F900000214FF4003000F0F2FF1EE00121880410
:102FA00000F0EDFF00214FF4802000F0E8FF14E076
:102FB0000121C80400F0E3FF00214FF4002000F0DD
:102FC000DEFF0AE00121080500F0D9FF00214FF4DF
:102FD000801000F0D4FF00E000BF00BF10BD2DE95D
:102FE000F04786B005460E460024A24600BF00BF4B
:102FF00000272F462C8A4CF6FF700440F0880443CB
:103000002C82AC894EF6F3100440B0883189084315
:10301000718908430443AC81AC8A4FF6FF400440F9
:10302000B0890443AC8201A800F015FFA248874292
:1030300002D1DDF810A001E0DDF80CA00AEBCA0017
:1030400000EB0A1031688900B0FBF1F86420B8FB8E
:10305000F0F004012009642101FB1089322000EB0B
:103060000910B0FBF1F000F00F0004432C8106B012
:10307000BDE8F0874FF41651016000218180C180C6
:1030800001810C21418100218181704710B50246E8
:103090000020108A4FF2FF0318400B884C8823430E
:1030A0008C882343CC8823431843108210BD002111
:1030B000018041808180C180704721B1828942F4C2
:1030C0000052828104E082894DF6FF731A408281AA
:1030D0007047F0B50346002400260025002018465E
:1030E000C1F3421401F01F06012707FA06F5012C6F
:1030F00001D10C3004E0022C01D1103000E014307A
:103100001AB107682F43076002E00768AF43076002
:10311000F0BD1AB1838A0B43838202E0838A8B431A
:1031200083827047028A4FF6F0731A400282028A45
:103130000A430282704782894FF2FF731A408281EC
:1031400082890A438281704721B1828942F002025A
:10315000828104E082894FF6FD731A4082817047B4
:10316000028A4FF6DF731A400282028A0A43028201
:10317000704721B1028A42F48042028204E0028A4E
:103180004BF6FF731A4002827047C1F30802828037
:10319000704701468888C0F308007047818941F074
:1031A000010181817047028BD2B20283028B42EA15
:1031B000012202837047028B02F47F420283028B5A
:1031C0000A430283704721B1828A42F02002828240
:1031D00004E0828A4FF6DF731A408282704721B181
:1031E000828A42F01002828204E0828A4FF6EF73F4
:1031F0001A408282704721B1828A42F0080282829C
:1032000004E0828A4FF6F7731A4082827047828AFE
:103210004FF6FB731A408282828A0A438282704789
:1032200021B1828A42F00202828204E0828A4FF651
:10323000FD731A40828270470246002013880B40BB
:103240000BB1012000E000207047CA4302807047A4
:1032500070B502460B460024002100250020C3F370
:10326000421503F01F01012606FA01F1012D02D1DA
:103270009689314006E0022D02D1168A314001E0E4
:10328000968A31401C12012606FA04F4168834404E
:1032900011B10CB1012000E0002070BD10B500227A
:1032A00000230A1201249440A3B2DC43048010BD21
:1032B000004C004000BCFFBF0038014000204C49DA
:1032C0000860091D0860091D0860091D086049485B
:1032D00047491431086070478179002946D0444934
:1032E000096802689143424A1160111D0968026829
:1032F00091433F4A121D116001793F4A1144D1F8B0
:1033000000140268114302793B4B1A44C2F80014BE
:1033100037490831096802689143354A083211601B
:10332000111D096802689143314A0C3211604179DC
:1033300010290ED1111F0968026811432C4A083266
:103340001160111D096802681143294A0C3211608D
:1033500018E04179284A1144D1F800140268114359
:103360004279254B1A44C2F800140BE00179224A35
:103370001144D1F800140268914302791E4B1A449B
:10338000C2F8001470470021016001710C214171E5
:103390000021817170471649103109680143144AB0
:1033A00010321160704701460020114A1432126831
:1033B0000A400AB1012000E0002070470C49143196
:1033C00008607047014600200022094B1B6803EA91
:1033D0000102074B14331B680B4013B10AB10120E3
:1033E00000E0002070470249143108607047000077
:1033F00000040140FFFF07000000014001460020DB
:10340000FB4A106800F03800084310607047F84924
:10341000096821F00801F64A116011460968014364
:1034200011607047F249096821F01001F04A1160FB
:1034300011460968014311607047EE48EC49486045
:10344000ED4848607047EA48006940F08000E8496C
:10345000086170470420E649C96801F0010109B11B
:1034600001200EE0E249C96801F0040109B102201F
:1034700007E0DF49C96801F0100109B1032000E04D
:103480000420704708B500200090FF20009002E063
:103490000098401E009000980028F9D108BD70B532
:1034A00004460425FFF7D6FF054605E0FFF7EAFFCF
:1034B000FFF7D0FF0546641E012D01D1002CF5D188
:1034C00004B90525284670BD70B50546042440F6AC
:1034D000FF70FFF7E4FF0446042C19D1C4480069CB
:1034E00040F00200C249086108464561006940F0A9
:1034F0004000086140F6FF70FFF7D1FF0446012C41
:1035000006D0BB48006941F6FD710840B849086122
:10351000204670BD10B5042440F6FF70FFF7BFFFD2
:103520000446042C18D1B248006940F00400B049A8
:1035300008610846006940F04000086140F6FF70ED
:10354000FFF7ADFF0446012C06D0A948006941F6FB
:10355000FB710840A6490861204610BD10B504243F
:1035600040F6FF70FFF79BFF0446042C3BD1A148B7
:103570009F498860A04888600846006940F02000A4
:1035800008610846006940F04000086140F6FF709D
:10359000FFF785FF0446042C1CD19548006941F6CD
:1035A000DF710840924908610846006940F0100048
:1035B0000861A520914908800F20FFF770FF04469D
:1035C000012C10D08A48006941F6EF710840884903
:1035D000086108E0012C06D08548006941F6EF71CA
:1035E000084083490861204610BD70B505460E4667
:1035F00004240F20FFF753FF0446042C25D17C48F8
:10360000006940F001007A4908612E800F20FFF721
:1036100046FF0446042C0FD1300C68800F20FFF7C2
:103620003EFF0446012C10D07148006941F6FE713E
:1036300008406F49086108E0012C06D06C48006919
:1036400041F6FE7108406A490861204670BD70B5B8
:1036500005460E4604240F20FFF721FF0446042CE4
:1036600013D16348006940F00100614908612E8070
:103670000F20FFF714FF0446012C06D05C480069B8
:1036800041F6FE7108405A490861204670BD70B588
:1036900005460E4604240F20FFF701FF0446042CC4
:1036A00017D15448524988605348886008460069D9
:1036B00040F0100008612E800F20FFF7F0FE044656
:1036C000012C06D04A48006941F6EF71084048498C
:1036D0000861204670BD2DE9F04704464FF6FF769D
:1036E0003746B046B1460425E443E6B2C4F30727A3
:1036F000C4F307484FEA14690F20FFF7D0FE0546D0
:10370000042D40D13B483A4988603B4888600846D0
:10371000006940F010000861FF2E06D037480830DD
:1037200006800F20FFF7BBFE0546042D08D1FF2FB2
:1037300006D032480A3007800F20FFF7B0FE05465A
:10374000042D0AD1B8F1FF0F07D02C480C30A0F897
:1037500000800F20FFF7A3FE0546042D0AD1B9F122
:10376000FF0F07D025480E30A0F800900F20FFF77C
:1037700096FE0546012D06D01D48006941F6EF7101
:1037800008401B4908612846BDE8F08770B505462A
:10379000042440F6FF70FFF782FE0446042C4AD151
:1037A000144813498860144888600846006940F04E
:1037B000200008610846006940F04000086140F6BA
:1037C000FF70FFF76CFE0446042C2BD108480069FB
:1037D00041F6DF710840064908610846006940F07B
:1037E0001000086165B10020044908800BE000006A
:1037F0000020024023016745AB89EFCD00F8FF1F91
:10380000A5204549088040F6FF70FFF748FE0446B2
:10381000012C10D04148006941F6EF7108403F4942
:10382000086108E0012C06D03C48006941F6DF71D0
:1038300008403A490861204670BD2DE9F04107462D
:103840000D46164604243648344988603548886059
:103850000F20FFF724FE0446042C1AD12F480069DC
:1038600040F010002D49086147EA0500304340F060
:10387000F8002949891C08800F20FFF710FE044634
:10388000012C06D02548006941F6EF710840234914
:1038900008612046BDE8F0812048C0698008704773
:1038A0001E48006A704700201C49C96901F00201E6
:1038B00009B1012000E00020704700201749096885
:1038C00001F0200109B1012000E00020704729B17A
:1038D000124A12690243114B1A6104E00F4A12693D
:1038E00082430E4B1A61704701460020012908D11E
:1038F0000A4AD26902F001020AB1012008E0002060
:1039000006E0064AD2680A400AB1012000E0002021
:1039100070470249C860704700F8FF1F002002404E
:1039200023016745AB89EFCD10B50446C649601A3F
:103930008C422FD009DCC548204480B1B0F5806F9F
:1039400016D0B0F5006F4AD11BE0B0F5806F2AD0D9
:10395000B0F5006F30D0B0F5406F40D135E00121B7
:10396000042000F0FFFA0021042000F0FBFA37E009
:103970000121082000F0F6FA0021082000F0F2FAF8
:103980002EE00121102000F0EDFA0021102000F0BF
:10399000E9FA25E00121202000F0E4FA00212020AE
:1039A00000F0E0FA1CE00121402000F0DBFA0021E9
:1039B000402000F0D7FA13E00121802000F0D2FA75
:1039C0000021802000F0CEFA0AE00121080200F078
:1039D000C9FA00214FF4807000F0C4FA00E000BF83
:1039E00000BF10BD10B50121084600F0BBFA002150
:1039F000012000F0B7FA10BD2DE9F0410246002584
:103A00000026002000230024002791F803C00CF0BA
:103A10000F0591F803C00CF0100CBCF1000F03D09F
:103A200091F802C04CEA050591F800C0BCF1000F06
:103A300031D0146800202BE04FF0010C0CFA00F399
:103A4000B1F800C00CEA03069E4220D183004FF07B
:103A50000F0C0CFA03F7BC4305FA03FC4CEA040410
:103A600091F803C0BCF1280F06D14FF0010C0CFAFD
:103A700000FCC2F814C00AE091F803C0BCF1480F82
:103A800005D14FF0010C0CFA00FCC2F810C0401C2C
:103A90000828D1D31460B1F800C0BCF1FF0F34DDA9
:103AA000546800202EE000F1080C4FF0010808FADD
:103AB0000CF3B1F800C00CEA03069E4221D183004A
:103AC0004FF00F0C0CFA03F7BC4305FA03FC4CEA69
:103AD000040491F803C0BCF1280F05D100F1080CD3
:103AE00008FA0CF8C2F8148091F803C0BCF1480F32
:103AF00007D100F1080C4FF0010808FA0CF8C2F8E1
:103B00001080401C0828CED35460BDE8F0814FF6E9
:103B1000FF710180022181700421C170704702464B
:103B2000002093680B400BB1012000E0002070479B
:103B30000146886880B2704702460020D3680B4077
:103B40000BB1012000E0002070470146C86880B238
:103B5000704701617047416170470AB1016100E03F
:103B600041617047C16070474FF480320A438261FF
:103B70008161826182698269704702460020344B0C
:103B800018684FF68073184040EA02100843304B23
:103B9000186070472F49C8617047F0B50A46002386
:103BA0000024002100252A4E7168C0F3034583B22A
:103BB00000F44016B6F5401F08D121F07061244E84
:103BC000766826F07066224F7E6012E000F4801660
:103BD000B6F5801F06D1032606FA05F4A14341F08D
:103BE000706106E0460D360103FA06F6B14341F076
:103BF000706122B1460D360103FA06F63143144EC8
:103C00007160F0BD30B500228B071C0F0F2303FA43
:103C100004F20F4B08338C1053F8243093430C4CB0
:103C200008348D1044F8253023468C1053F8243086
:103C30008C07240F00FA04F42343054C08348D103C
:103C400044F8253030BD00000014014000F8FEBFEC
:103C50000000014000002042DE48006840F0010002
:103C6000DC49086008464068DB490840D94948609B
:103C700008460068D9490840D649086008460068E7
:103C800020F4802008600846406820F4FE00486068
:103C9000002088607047CF49096821F48031CD4AFF
:103CA00011601146096821F480211160B0F5803F50
:103CB00003D0B0F5802F0ED106E0C649096841F463
:103CC0008031C44A116007E0C249096841F4A0216B
:103CD000C04A116000E000BF00BF704710B5014648
:103CE0000022002300204A11012A02D1B94C236886
:103CF00006E0022A02D1B74C236A01E0B54C636AA0
:103D000001F01F02012494401C400CB1012000E08E
:103D1000002010BD38B5002000900024002500BF11
:103D20003120FFF7DBFF05460098401C00901DB9CD
:103D30000098B0F5A06FF3D13120FFF7CFFF08B1A5
:103D4000012400E00024204638BD01460020A14A9D
:103D5000106820F0F80040EAC10010607047A049E8
:103D600008607047024600209A4B586820F47C1087
:103D700042EA01031843974B586070479849086618
:103D8000704701460020934A506820F00300084322
:103D9000506070478F48406800F00C007047014643
:103DA00000208C4A506820F0F000084350607047B3
:103DB00001460020874A506820F4E06008435060C4
:103DC000704701460020834A506820F4605040EA62
:103DD000C1005060704729B17E4A527A02437D4B40
:103DE0005A7204E07B4A527A82437A4B5A72704785
:103DF0007B49D8310860704701460020754A5068F9
:103E000020F440400843506070470021714A20323E
:103E10001170704A82F82010012802D004280AD1BB
:103E200004E001216B4A2032117005E00521694A46
:103E30002032117000E000BF00BF70476949086080
:103E400070476449096A0143624A116270476549D3
:103E500044390860704730B5002100220024002357
:103E60005C4D6D6805F00C0121B1042905D00829CD
:103E700023D105E05C4D056022E05B4D05601FE04D
:103E8000544D6D6805F47012022505EB9242514DB8
:103E90006D6805F480341CB9544D554305600BE042
:103EA0004C4D6D6805F400351DB1504D554305600E
:103EB00002E04D4D5543056002E04B4D056000BFEB
:103EC00000BF444D6D6805F0F0010909484D6B5C79
:103ED0000568DD4045603F4D6D6805F4E061090A05
:103EE000434D6B5C4568DD4085603A4D6D6805F477
:103EF0006051C90A3E4D6B5C4568DD40C560354D7B
:103F00006D6805F44041890B3A4D6B5CC568B5FBA3
:103F1000F3F5056130BD29B12E4A526902432D4B9C
:103F20005A6104E02B4A526982432A4B5A61704716
:103F300029B1284A92690243264B9A6104E0254A36
:103F400092698243234B9A61704729B1214AD26911
:103F50000243204BDA6104E01E4AD26982431D4BC2
:103F6000DA61704729B11B4AD2680243194BDA6003
:103F700004E0184AD2688243164BDA60704729B1D0
:103F8000144A12690243134B1A6104E0114A126980
:103F90008243104B1A6170471249403908607047DC
:103FA0000F49C86470470B49C87170470948406A97
:103FB00040F0807007494862704701460020054A7A
:103FC00092680A400AB1012000E0002070470149D0
:103FD00088727047001002400000FFF8FFFFF6FEF5
:103FE000000042428004424200127A0000093D0073
:103FF000400100205001002010B50446F749601A26
:104000008C4245D00CDCB4F1804F1DD0F4482044E4
:1040100018B3B0F5806F29D0B0F5006F54D12EE001
:10402000B0F5806F3DD0B0F58E3F03D0B0F5923F34
:104030004AD13FE00121C802FFF794FF00214FF46D
:104040000060FFF78FFF40E001210846FFF797FF70
:1040500000210120FFF793FF37E001210220FFF745
:104060008EFF00210220FFF78AFF2EE001210420AD
:10407000FFF785FF00210420FFF781FF25E00121E4
:104080000820FFF77CFF00210820FFF778FF1CE0E5
:1040900001211020FFF773FF00211020FFF76FFFB1
:1040A00013E001212020FFF76AFF00212020FFF705
:1040B00066FF0AE001214803FFF754FF00214FF497
:1040C0000050FFF74FFF00E000BF00BF10BD0288A7
:1040D00002F08F020280CA884B881A4303881A4371
:1040E00002808A8882850A880285BE4A904202D070
:1040F000BD4A904201D10A7A02860122828270472B
:1041000070B5002400220023058C4FF6FE76354062
:104110000584028C8388048B4FF68F752C400D88A4
:104120002C43751E2A400D892A434D882A43CD8889
:104130008586AC4DA84202D0AB4DA84213D14FF6B4
:10414000F7752A404D892A434FF6FB752A408D8822
:104150002A4347F6FF652B4047F6FF552B408D89D4
:104160002B43CD892B4383800483028470BD70B5BB
:10417000002400220023058C4FF6EF76354005849D
:10418000028C8388048B48F6FF752C400D884FF60F
:10419000FF7606EA05252C434FF6DF752A400D8988
:1041A00006EA05152A434D8806EA05152A43CD88F7
:1041B00005878C4DA84202D08B4DA8421DD14FF6E9
:1041C0007F752A404D894FF6FF7606EA05152A438A
:1041D0004FF6BF752A408D8806EA05152A4347F633
:1041E000FF352B4047F2FF752B408D8906EA850588
:1041F0002B43CD8906EA85052B4383800483028403
:1042000070BD70B5002400220023058C4FF6FF66B8
:1042100035400584028C8388848B4FF68F752C4043
:104220000D882C434FF6FF552A400D894FF6FF7637
:1042300006EA05252A434D8806EA05252A43CD8846
:104240008587684DA84202D0674DA8421DD14FF224
:10425000FF752A404D894FF6FF7606EA05252A4369
:104260004FF6FF352A408D8806EA05252A4346F693
:10427000FF752B4045F6FF752B408D8906EA051525
:104280002B43CD8906EA05152B4383808483028462
:1042900070BD70B5002400220023058C4EF6FF7619
:1042A00035400584028C8388848B48F6FF752C404A
:1042B0000D884FF6FF7606EA05252C434DF6FF756F
:1042C0002A400D8906EA05352A434D8806EA053558
:1042D0002A43CD88A0F84050424DA84202D0424D1A
:1042E000A84207D1C3F30D038D894FF6FF7606EA86
:1042F00085152B4383808483028470BD828B4FF2AB
:10430000FF331A408283828B4FF6FF7303EA012347
:104310001A4382837047F0B50C46154600210022EF
:104320000026078C4EF6FF7C07EA0C070784818B7A
:10433000028C4FF6FF7707EA043640F6FF47394014
:104340004FF6FF7707EA05274FF6FF7C0CEA033CA0
:1043500047EA0C0739434DF6FF773A4046F4805759
:104360003A4381830284F0BD828B4FF6F3731A4087
:104370008283828B0A4382837047F0B50C461546D0
:10438000002100220026078C4FF6FF6C07EA0C077D
:104390000784818B028C4FF6FF7707EA04264FF6DD
:1043A0000C7739404FF6FF7707EA03172F4339435D
:1043B0004FF6FF573A4046F480773A4381830284B0
:1043C000F0BD028B4FF2FF331A400283028B4FF68F
:1043D000FF7303EA01231A43028370470010004071
:1043E00000FCFFBF002C014000340140F0B50C463A
:1043F0001546002100220026078C4FF6EF7C07EAC5
:104400000C070784018B028C4FF6FF7707EA04162E
:1044100040F6FF4739404FF6FF7707EA0337394345
:104420004FF6FF7707EA052739434FF6DF773A4023
:1044300046F010073A4301830284F0BD028B4FF629
:10444000F3731A400283028B0A4302837047F0B56C
:104450000C46154600210022068C4FF6FE773E40A2
:104460000684018B028C4FF60C7631407E1C06EAE6
:1044700003162E4331437E1E324044F00106324380
:1044800001830284F0BD70B505460C46208850B902
:104490002389A28861882846FFF7D9FFE18828464A
:1044A000FFF7CCFF25E0208804280AD12389A288C1
:1044B00061882846FFF79AFFE1882846FFF781FFC9
:1044C00017E0208808280AD12389A2886188284615
:1044D000FFF753FFE1882846FFF746FF09E02389ED
:1044E000A28861882846FFF716FFE1882846FFF773
:1044F00005FF70BD2DE9F04105460C460026012759
:10450000608808B9022600E00026A088012801D1B1
:10451000022700E001272088A0B92389A2886188AA
:104520002846FFF794FFE1882846FFF787FF238995
:104530003A4631462846FFF759FFE1882846FFF7FB
:1045400040FF13E02389A28861882846FFF74EFFC9
:10455000E1882846FFF735FF23893A463146284649
:10456000FFF775FFE1882846FFF768FFBDE8F08197
:104570000A884B881A438B881A43CB881A430B89C5
:104580001A434B891A438B891A43A0F84420704779
:104590004FF6FF71818000210180C180418001724E
:1045A00070470021018041808180C180018141816B
:1045B0008181C1817047002101804180012181807A
:1045C0000021C180018170470021018041808180EC
:1045D000C180018141818181704721B1028842F00F
:1045E0000102028004E0028840F2FE331A40028099
:1045F000704731B1B0F8442042F40042A0F84420A2
:1046000005E0B0F84420C2F30E02A0F84420704741
:104610001AB183890B43838102E083898B438381B1
:1046200070478182704741EA0203A0F84830704722
:104630001AB183890B43838102E083898B43838191
:10464000704701894FF6F8721140018170470A46A0
:10465000002101894FF68F73194011430181704782
:1046600030B504460D4629462046FFF7F0FF208965
:1046700040F00700208130BD2DE9F04104460D4691
:1046800016461F46602D06D13B4601223146204684
:10469000FFF7ACFE05E03B46012231462046FFF71E
:1046A000D6FE29462046FFF7D2FF208940F00700BA
:1046B0002081BDE8F08170B50C4600210189C9B2A6
:1046C00044EA02054FF6FF7606EA032635432943FE
:1046D000018170BD2DE9F04105460E46174698460A
:1046E000002443463A4631462846FFF7E4FF2C892A
:1046F0004FF6F870044044F007044FF68F70044002
:1047000044F070042C81BDE8F081F0B504460D46FC
:1047100016461F463B46324629462046FFF7CBFF4A
:10472000208940F480402081F0BD0185828270475D
:104730000A460021018840F28F331940114301805D
:104740007047F0B50C4615461E4600210022002396
:104750000189028B038C4FF6F877394021434FF6DD
:10476000FC473A4040F201173A434FF6DD773B40B1
:104770004FF6FF7707EA06172F433B430181028379
:104780000384F0BD0A460021018B4FF68F73194058
:104790001143018370470A460021018B48F6FF73DD
:1047A00019404FF6FF7303EA022319430183704750
:1047B0000A460021818B4FF68F7319401143818384
:1047C00070470A460021818B48F6FF7319404FF667
:1047D000FF7303EA022319438183704721B10288E2
:1047E00042F08002028004E0028840F27F331A40E7
:1047F0000280704721B1828842F00402828004E086
:1048000082884FF6FB731A408280704721B18288FC
:1048100042F00802828004E082884FF6F7731A4063
:104820008280704721B1828842F00102828004E0D8
:1048300082884FF6FE731A40828070470A46002134
:10484000018B4FF6F77319401143018370470A46F5
:104850000021018B4FF2FF7319404FF6FF7303EAFB
:1048600002231943018370470A460021818B4FF6CA
:10487000F77319401143818370470A460021818BE9
:104880004FF2FF7319404FF6FF7303EA02231943F7
:10489000818370470A460021018B4FF6FB73194054
:1048A0001143018370470A460021018B4FF6FF3305
:1048B00019404FF6FF7303EA02231943018370473F
:1048C0000A460021818B4FF6FB7319401143818307
:1048D00070470A460021818B4FF6FF3319404FF68F
:1048E000FF7303EA02231943818370470A460021BC
:1048F000018B4FF67F7319401143018370470A46BD
:104900000021018BC1F30E014FF6FF7303EA02236E
:104910001943018370470A460021818B4FF67F734C
:1049200019401143818370470A460021818BC1F3EE
:104930000E014FF6FF7303EA022319438183704788
:104940000A460021018C4FF6FD7319401143018482
:1049500070470A460021018C4FF6F7731940114346
:10496000018470470A460021018C4FF6DF7319401D
:104970004FF6FF7303EA02131943018470470A4696
:104980000021018C4FF67F7319404FF6FF7303EA45
:1049900002131943018470470A460021018C4FF627
:1049A000FF5319404FF6FF7303EA022319430184B2
:1049B00070470A460021018C4FF2FF7319404FF6F1
:1049C000FF7303EA02231943018470470A4600215A
:1049D000018C4DF6FF7319404FF6FF7303EA023363
:1049E00019430184704710B5038C01248C40A34304
:1049F0000384038C02FA01F4A4B22343038410BDA0
:104A000010B5038C04248C40A3430384038C02FA66
:104A100001F4A4B22343038410BD30B5038C0124F8
:104A20008C40A343038409B1082918D100F118036D
:104A300003EB61031B684FF68F74234000F11804E9
:104A400004EB6104236000F1180303EB61031B68AE
:104A5000134300F1180404EB610423601FE00B1FF3
:104A6000C3F34E0400F118031B5948F6FF742340AA
:104A70000C1FC4F34E0500F1180463510B1FC3F360
:104A80004E0400F118031B594FF6FF7404EA022488
:104A900023430C1FC4F34E0500F11804635130BDCD
:104AA00021B1028842F00202028004E0028840F252
:104AB000FD331A400280704721B1028842F004029F
:104AC000028004E0028840F2FB331A400280704703
:104AD00021B1828842F08002828004E082884FF611
:104AE0007F731A4082807047028840F2F7331A4081
:104AF000028002880A430280704782884FF68F73D3
:104B00001A40828082880A438280704702894FF669
:104B1000F8731A40028102890A43028170470289B0
:104B20004FF67F731A40028102890A43028170475F
:104B300081847047818570478186704701877047FF
:104B400081877047A0F8401070470288D2B2028077
:104B500002880A43028070470146888E70470146EA
:104B6000088F70470146888F70470146B1F84000B2
:104B700070470146888C70470146088D7047024691
:104B80000020138A0B400BB1012000E00020704789
:104B9000CA430282704730B5024600200023002439
:104BA000158A05EA0103958905EA010413B10CB1E0
:104BB000012000E0002030BDCA430282704700009F
:104BC00010B501214807FFF7DAF900214FF0005036
:104BD000FFF7D5F910BD30B5002200234D4C2268F7
:104BE00040F6FE748440A243D1E900452C438D6811
:104BF0002C43CD6844EA050303FA00F42243454CF4
:104C0000226030BD0021016041608160C160704759
:104C100039B1404A1268012383401A433D4B1A6060
:104C200006E03C4A1268012383409A43394B1A60DC
:104C3000704741B1374A12684FF4805383401A439A
:104C4000344B1A6007E0334A12684FF480538340B4
:104C50009A43304B1A60704710B551B12D4A121D5E
:104C6000126804090123A3401A432A4B1B1D1A6032
:104C700009E0284A121D126804090123A3409A433F
:104C8000244B1B1D1A6010BD40B12249091D096843
:104C900041F003011F4A121D116007E01D49091D63
:104CA000096821F003011B4A121D1160704710B5FD
:104CB0003AB1184B1B6801FA00F42343154C2360EA
:104CC00006E0144B1B6801FA00F4A343114C236067
:104CD00010BD114A0244C2F8081470470E4A02443B
:104CE000C2F81414704710B50023082802D142EA14
:104CF000012301E042EA0143074C0444C4F8203494
:104D000010BD0146044A02EB9100D0F82C0480B299
:104D1000704700000074004000700040016821F0FE
:104D2000010101600021016041608160C160874A2A
:104D3000811A90425BD012DC854AA0EB02019042BE
:104D40003AD007DC83490144D9B1142922D028295B
:104D50007AD128E0142938D0282975D13EE0B1F560
:104D60006C7F5BD006DCB1F5627F49D0B1F5677F1F
:104D70006AD14CE0B1F5717F57D0B1F5767F63D140
:104D80005BE073494439496841F00F01704A443A85
:104D900051605AE06E494439496841F0F0016C4A6B
:104DA000443A516051E06A494439496841F47061BC
:104DB000674A443A516048E065494439496841F4DA
:104DC0007041634A443A51603FE06149443949685F
:104DD00041F470215E4A443A516036E05C494439FE
:104DE000496841F470015A4A443A51602DE05849EB
:104DF0004439496841F07061554A443A516024E0B1
:104E00005549096841F00F01534A11601DE05249AC
:104E1000096841F0F001504A116016E04E490968F6
:104E200041F470614C4A11600FE04B49096841F44C
:104E30007041494A116008E006E04749096841F4B9
:104E40007021454A116000E000BF00BF704710B5F7
:104E50000022026847F6F0739A430C6A8B6823437A
:104E60000C6923434C6923438C692343CC69234356
:104E70004C6A23438C6A23431A430260CB68436025
:104E80000B6883604B68C36010BD00210160416006
:104E90008160C160016141618161C1610162416202
:104EA0008162704721B1026842F00102026003E0B2
:104EB000026822F00102026070471AB103680B43D6
:104EC000036002E003688B43036070470146486853
:104ED00080B2704701460020002201F080531BB1D0
:104EE0001D4B1B1F1A6802E0194B443B1A6802EA6B
:104EF00001030BB1012000E00020704700F0805159
:104F000011B11549086002E0114944394860704701
:104F100001460020002201F080531BB10E4B1B1FE5
:104F20001A6802E00A4B443B1A6802EA01030BB11B
:104F3000012000E00020704700F0805111B10649C7
:104F4000086002E00249443948607047800002402E
:104F500044000240F8FFFDBF0404024070470848C7
:104F60008047084981F3088807480047FEE7FEE7C5
:104F7000FEE7FEE7FEE7FEE7FEE7FEE7FEE7FEE709
:104F80005D4F0008E00F00203101000840EA0103F6
:104F90009B0703D009E008C9121F08C0042AFAD2EF
:104FA00003E011F8013B00F8013B521EF9D27047B3
:104FB000064C074D06E0E06840F0010394E8070066
:104FC00098471034AC42F6D3FBF7B6F87452000899
:104FD0009452000870B58C1810F8015B15F00703A7
:104FE00001D110F8013B2A1106D110F8012B03E082
:104FF00010F8016B01F8016B5B1EF9D12B0705D48A
:105000000023521E0DD401F8013BFAE710F8013BD2
:10501000CB1A921C03E013F8015B01F8015B521EEE
:10502000F9D5A142D8D3002070BD02E008C8121FF4
:1050300008C1002AFAD170477047002001E001C181
:10504000121F002AFBD1704700C8030800D00308D4
:1050500000D8030800E0030800E8030800F0030894
:1050600000C1814001C0804101C0804100C1814038
:1050700001C0804100C1814000C1814001C0804128
:1050800001C0804100C1814000C1814001C0804118
:1050900000C1814001C0804101C0804100C1814008
:1050A00001C0804100C1814000C1814001C08041F8
:1050B00000C1814001C0804101C0804100C18140E8
:1050C00000C1814001C0804101C0804100C18140D8
:1050D00001C0804100C1814000C1814001C08041C8
:1050E00001C0804100C1814000C1814001C08041B8
:1050F00000C1814001C0804101C0804100C18140A8
:1051000000C1814001C0804101C0804100C1814097
:1051100001C0804100C1814000C1814001C0804187
:1051200000C1814001C0804101C0804100C1814077
:1051300001C0804100C1814000C1814001C0804167
:1051400001C0804100C1814000C1814001C0804157
:1051500000C1814001C0804101C0804100C1814047
:1051600000C0C101C30302C2C60607C705C5C40407
:10517000CC0C0DCD0FCFCE0E0ACACB0BC90908C877
:10518000D81819D91BDBDA1A1EDEDF1FDD1D1CDC67
:1051900014D4D515D71716D6D21213D311D1D010D7
:1051A000F03031F133F3F23236F6F737F53534F4C7
:1051B0003CFCFD3DFF3F3EFEFA3A3BFB39F9F83837
:1051C00028E8E929EB2B2AEAEE2E2FEF2DEDEC2C27
:1051D000E42425E527E7E62622E2E323E12120E097
:1051E000A06061A163A3A26266A6A767A56564A487
:1051F0006CACAD6DAF6F6EAEAA6A6BAB69A9A868F7
:1052000078B8B979BB7B7ABABE7E7FBF7DBDBC7CE6
:10521000B47475B577B7B67672B2B373B17170B056
:105220005090915193535292965657975595945446
:105230009C5C5D9D5F9F9E5E5A9A9B5B99595898B6
:10524000884849894B8B8A4A4E8E8F4F8D4D4C8CA6
:105250004484854587474686824243834181804016
:1052600000A24A0400A24A0400A24A0400512502F6
:1052700000A24A04945200080000002054010000DB
:10528000D44F000810530008540100208C0E000079
:105290003A50000823803E1B8025041A0C04190C88
:1052A0004B2C010211327D224B4BC01208121012FE
:1052B0000812011A80022202130220124022042A3C
:1052C00001061A0218191F3B80202429041A801E87
:1052D000111A141D69041A10049A0810A9141A1836
:1052E000045A0C0C2904290C091210690459403283
:1052F0001032083280196E110578040307062D015B
:105300000203040400090006070809020406080055
:0400000508000131BD
:00000001FF
