:020000040800F2
:10000000000400204B530008892600088B260008B6
:100010008F2600089326000897260008000000009D
:100020000000000000000000000000009B26000807
:100030009D260008000000009F260008A126000859
:100040006B5300086B5300086B5300086B53000898
:100050006B5300086B5300086B5300086B53000888
:100060006B530008FF240008C72400086B530008E6
:10007000532600086B5300086B5300086B530008AD
:100080006B5300086B5300086B5300086B53000858
:100090006B5300086B5300086B53000837250008AA
:1000A0006B5300086B5300086B5300086B53000838
:1000B000C11900089F1C0008451F00086B53000869
:1000C0006B5300086B5300086B5300086B53000818
:1000D0006B5300086B5300086B5300084B26000855
:1000E000C72500086B5300086B5300086B530008CA
:1000F0006B5300086B5300086B5300086B530008E8
:100100006B5300086B530008EF2100086B53000885
:100110006B5300086B5300086B5300086B530008C7
:100120006B5300086B5300086B5300086B530008B7
:10013000DFF80CD005F032F900480047FF16000840
:10014000F00F002000B585B00121042004F0E6F88E
:100150000121480704F0EFF81020ADF8000000205E
:100160008DF803006946FE4803F03CFE0020019034
:1001700002904FF4006003900020049001A904F065
:1001800020FF0121002004F039FF0021084604F07F
:1001900096FF05B000BD00B585B00121042004F034
:1001A000BDF80121480704F0C6F82020ADF8000092
:1001B00000208DF803006946E94803F013FE002093
:1001C000019002904FF4006003900020049001A978
:1001D000102004F0F6FE0121102004F00FFF002192
:1001E000084604F071FF05B000BD30B589B0054682
:1001F0000C46012142F2100004F090F8C020ADF846
:10020000200018208DF8230003208DF8220008A973
:10021000D44803F0E7FDADF81850ADF814400020C5
:10022000ADF81A00ADF8160005A9CF4804F045F95D
:100230006020ADF804000120ADF806000020ADF804
:100240000A00ADF80C0001A9C74804F04FF960207E
:10025000ADF804000120ADF806000020ADF80A005A
:10026000ADF80C0001A9C04804F077F90121BE489F
:1002700004F0B5FB0821BC4804F0D6FC0821BA48BC
:1002800004F0DBFC0021B84804F04CFE0021B64825
:1002900004F04AFE0121B44804F096FC0121B24862
:1002A00004F091FB09B030BD70B5064606EB0620A0
:1002B00000EB40004FF47A7190FBF1F540F693505B
:1002C000854200D90546ACB22146002004F0F7FE75
:1002D00070BD70B5064606EB062000EB40004FF4FB
:1002E0007A7190FBF1F540F69350854200D90546AE
:1002F000ACB22146002004F0E7FE70BD70B50646A2
:1003000041F6160070434FF47A7190FBF1F546F612
:100310006340854200D90546ACB22146924804F0BC
:1003200003FE70BD70B5064641F6160070434FF4EB
:100330007A7190FBF1F546F66340854200D9054697
:10034000ACB22146884804F0EDFD70BD10B5012423
:100350001CE0621E854B33F81210854B53F82200C7
:1003600003F0EDFD621E834B33F81210824B53F8FD
:10037000220003F0E4FD621E804B33F81210804B24
:1003800053F8220003F0DBFD601CC4B2052CE0DB57
:100390004FF480417B4803F0D2FD4FF480517948FF
:1003A00003F0CDFD4FF48041774803F0C8FD4FF4D2
:1003B0008051754803F0C3FD4FF40041714803F0CC
:1003C000BEFD4FF400516F4803F0B9FD4FF40041FA
:1003D0006D4803F0B4FD4FF400516B4803F0AFFDDE
:1003E00000244CE0694850F8240004EB840101EB40
:1003F000C401674A02EB410108604FF4C86004EB96
:10040000840101EBC40102EB41014860C82004EB08
:10041000840101EBC40102EB4101088104EB84017A
:1004200001EBC40102EB41014881642004EB84012B
:1004300001EBC40102EB410188814FF47A7004EBB7
:10044000840101EBC40102EB4101C881002004EBEF
:10045000840101EBC40102EB4101088204EB840139
:1004600001EBC40102EB4101C1F8120004EB84016D
:1004700001EBC40102EB4101C882601CC4B2042C30
:10048000B0DB10BD2DE9F04104460E4615461F466F
:10049000DDF81880002E29DA601E3E4951F8200050
:1004A000002805DC0121601E3B4A1154BDE8F081A3
:1004B0000121601E00EB400202EBC000374A02EB54
:1004C00040004170621E2B4B33F812102A4B53F838
:1004D000220003F034FD621E284B33F81210284B23
:1004E00053F8220003F02DFD764261E0601E294999
:1004F00051F8201000EB800202EBC000244A02EB0E
:1005000040000068814209DC621E254B33F812105E
:10051000244B53F8220003F0F8FC20B90121601E9F
:10052000214A1154C2E70021601E1F4A115400EBFA
:10053000400202EBC000194A02EB40004170621E0B
:100540000C4B33F812100C4B53F8220003F0F9FC5B
:10055000621E0A4B33F81210094B53F8220025E0B3
:100560000008014000100140003401402800002034
:100570007800002030000020880000203800002093
:100580009800002000140140000C014000000020F1
:100590007703002050010020D000002070010020CF
:1005A0004000002058000020CC00002003F0C9FCCF
:1005B000012C06D0022C13D0032C20D0042C3CD1CB
:1005C0002CE04FF48051FE4803F09FFCFD49087079
:1005D0004FF40051FA4803F098FCFB4908702CE0F6
:1005E0004FF48041F64803F090FCF64948704FF410
:1005F0000041F34803F089FCF34948701DE04FF4D3
:100600008071F24803F081FCEE4988704FF400716C
:10061000EE4803F07AFCEC4988700EE04FF48061FC
:10062000EA4803F072FCE749C8704FF40061E748FC
:1006300003F06BFCE449C87000BF00BF0021601EDE
:10064000E34A1154E34A1154E34A115400EB4001C8
:1006500001EBC000E14901EB4000C0F81260E8196D
:10066000B04205DD304606EBD071C1F34F052F4691
:10067000012E5DD10221601E00EB400202EBC000A2
:10068000D64A02F810104FF47A71601E00EB400257
:1006900002EBC000D14A02EB4000C0F80210012C6E
:1006A00006D0022C09D0032C0ED0042C1AD112E053
:1006B0000A2041078886888514E00A20C8490880F6
:1006C000C749083908800DE00A20C6490880C54995
:1006D0000839088006E00A20C3490880C249083961
:1006E000088000BF00BF0121601EC04A1154012CC8
:1006F00006D0022C09D0032C0DD0042C17D110E009
:100700000121880704F05FF911E00121B448343871
:1007100004F059F90BE00121B248343804F053F9E0
:1007200005E00121B048343804F04DF900BFAEE1D6
:10073000002EFCD0C8F164000A2101EB400081B218
:10074000601E00EB400202EBC000A44A02EB400036
:10075000C181601E00EB400101EBC000114601EBBE
:100760004000C0890A2809DA0A21601E00EB400215
:1007700002EBC000994A02EB4000C181B5F57A7FD7
:1007800017DD601E00EB400101EBC000934901EB57
:100790004000C089C0F57A7090FBF5F081B2601E10
:1007A00000EB400202EBC0008C4A02EB400081816A
:1007B00045E0601E00EB400101EBC000874901EB02
:1007C0004000C089A8420ADD0121601E00EB400202
:1007D00002EBC000814A02EB400081812FE0642DD2
:1007E00017DA601E00EB400101EBC0007B4901EB12
:1007F0004000C089C0F1640090FBF5F081B2601E3A
:1008000000EB400202EBC000744A02EB4000818121
:1008100015E0601E00EB400101EBC0006F4901EBE9
:100820004000C089281A90FBF5F081B2601E00EBF1
:10083000400202EBC000694A02EB40008181601E69
:1008400000EB400101EBC000644901EB40008089EE
:10085000002809DC0121601E00EB400202EBC00011
:100860005E4A02EB40008181B7F57A7F17DD601E9A
:1008700000EB400101EBC000584901EB4000C0898A
:10088000C0F57A7090FBF7F081B2601E00EB400279
:1008900002EBC000514A02EB4000418145E0601E7E
:1008A00000EB400101EBC0004C4901EB4000C08966
:1008B000B8420ADD0121601E00EB400202EBC000DD
:1008C000464A02EB400041812FE0642F17DA601E98
:1008D00000EB400101EBC000404901EB4000C08942
:1008E000C0F1640090FBF7F081B2601E00EB4002A3
:1008F00002EBC000394A02EB4000418115E0601E66
:1009000000EB400101EBC000344901EB4000C0891D
:10091000381A90FBF7F081B2601E00EB400202EB48
:10092000C0002E4A02EB40004181601E00EB4001F6
:1009300001EBC000294901EB40004089002809DC97
:100940000121601E00EB400202EBC000234A02EBD3
:1009500040004181B5F57A7F0CDD4FF47A71601E5D
:1009600000EB400202EBC0001C4A02EB4000C0F862
:10097000021017E0642D0BDA6421601E00EB4002C8
:1009800002EBC000154A02EB4000C0F8021009E07B
:10099000601E00EB400101EBC000104901EB40007C
:1009A000C0F80250F11B601E00EB400202EBC000D9
:1009B0000A4A02EB4000C0F806100121601E17E051
:1009C00000180140F8000020FC0000200014014045
:1009D000D4000020D0000020CC00002070010020B6
:1009E0003404004034080040340C00400201002070
:1009F00000EB400202EBC000FA4A02F81010601E41
:100A0000F94A1154012C06D0022C09D0032C0ED027
:100A1000042C1AD112E00A2041078886888514E048
:100A20000A20F2490880F149083908800DE00A20BF
:100A3000EF490880EE490839088006E00A20ED49B0
:100A40000880EC490839088000BF00BF012C06D09F
:100A5000022C09D0032C0DD0042C17D110E0012159
:100A6000880703F0B0FF11E00121E048343803F0BB
:100A7000AAFF0BE00121DE48343803F0A4FF05E0B3
:100A80000121DC48343803F09EFF00BF00BF00BFE7
:100A90000CE52DE9F84304460D4616461F46DDF8E1
:100AA0002080601ED44951F820002D1A3B46324662
:100AB00029462046CDF80080FFF7E4FCBDE8F88326
:100AC000F8B5044604EB840000EBC400CB4901EB0D
:100AD0004000C089B0F57A6F09DD4FF47A6004EB0D
:100AE000840101EBC401C54A02EB4101C88134B164
:100AF000012C0FD0022C18D0032C2CD120E004EBB9
:100B0000840101EBC401BD4A02EB4101C889FFF732
:100B1000E0FB20E004EB840101EBC401B74A02EBE7
:100B20004101C889FFF7C0FB15E004EB840101EB2C
:100B3000C401B24A02EB4101C889FFF7DFFB0AE0BA
:100B400004EB840101EBC401AC4A02EB4101C8890A
:100B5000FFF7E8FB00BF00BF04EB440000EBC4005C
:100B6000A04911F81000002876D104EB840000EBB6
:100B7000C400A24901EB4000008A00286CD004EBBD
:100B8000840000EBC40001EB4000008A01282CD156
:100B9000002004EB840101EBC401984A02EB4101FF
:100BA000088304EB840000EBC400114601EB400015
:100BB000007B04EB840505EBC4050E4606EB4505FA
:100BC00000906B8904EB840505EBC40506EB450535
:100BD0002A8904EB840505EBC40506EB4505696825
:100BE000651CE8B2FFF74EFCEEE004EB840000EB7E
:100BF000C400824901EB4000008A02282DD1002068
:100C000004EB840101EBC4017C4A02EB410108833F
:100C100004EB840000EBC400114601EB4000007BB4
:100C200004EB840505EBC4050E4606EB4505009074
:100C30006B8904EB840505EBC40506EB45052A89A1
:100C400004EB840505EBC40506EB45056968651CE6
:100C5000E8B2FFF71EFFB7E09AE004EB840000EB78
:100C6000C400664901EB4000008A03280CD1002033
:100C700004EB840101EBC401604A02EB41010883EB
:100C800001205F4908559FE004EB840000EBC4009D
:100C90005A4901EB4000008A072862D1012004EB89
:100CA000840101EBC401554A02EB4101088304EBC6
:100CB000840000EBC400114601EB400040680028AE
:100CC00015DA504804EB840101EBC40102EB410149
:100CD00048604D4804EB840101EBC40102EB410183
:100CE000086048484042444941F8240015E045481E
:100CF000404204EB840101EBC401404A02EB410194
:100D00004860414804EB840101EBC40102EB41015E
:100D100008600020384941F8240004EB840000EB0F
:100D2000C400364901EB4000007B04EB840505EB71
:100D3000C4050E4606EB450500906B8904EB84055F
:100D400005EBC40506EB45052A8904EB840505EB94
:100D5000C40506EB45056968651CE8B2FFF792FB20
:100D600032E004EB840000EBC400244901EB4000B6
:100D7000008A082828D1002004EB840101EBC4017B
:100D80001E4A02EB410108830120204908551BE05F
:100D90001548005DC0B104EB840000EBC4001749A6
:100DA00001EB4000008A04280ED1002004EB8401EE
:100DB00001EBC401114A02EB4101088301201449EF
:100DC0000855002011490855002004EB840101EB6F
:100DD000C4010A4A02EB41010882204601F094FD59
:100DE000F8BD000070010020020100203404004022
:100DF00034080040340C00405001002077030020EC
:100E0000EC000020006CCA8800752B7DF0000020EB
:100E1000D400002008B5FC48807860B1FB4A918876
:100E2000FB4A906803F071F828B90120F9498870ED
:100E30000020F9498870F448C07860B1F34AD1883D
:100E4000F34AD06803F061F828B90120F149C8706D
:100E50000020F149C870EC48007870B9EB4A11885D
:100E6000EB4A106803F051F838B96420C8231A46D9
:100E7000EA4900900120FFF705FBE348007878B9C4
:100E8000E24A5188E24A506803F03FF840B96420D2
:100E9000C8231A46E149494200900120FFF7F2FABF
:100EA00008BDF8B50446601EC4B2DB48005D0528E5
:100EB00071D2DFE800F00304101945006BE0D2485E
:100EC000005D38B90120D6490855D348005D401C63
:100ED000D14908555FE0D248005D20B9CE48005D99
:100EE000401CCD49085556E0C748005D38BB04EBAF
:100EF000840000EBC400CB4901EB4000007B04EB15
:100F0000840505EBC4050E4606EB450500906B898C
:100F100004EB840505EBC40506EB45052A8904EBC3
:100F2000840505EBC40506EB45056968651CE8B258
:100F3000FFF7A8FAB848005D401CB74908552AE0F9
:100F4000B148005D30BB04EB840000EBC400B54940
:100F500001EB4000007B04EB840505EBC4050E4665
:100F600006EB450500906B8904EB840505EBC40591
:100F700006EB45052A8904EB840505EBC40506EB61
:100F800045056D686942651CE8B2FFF77BFA0320EE
:100F9000A149085500BF00BFF8BD38B50446601E22
:100FA000C4B29F48005D052804D2DFE800F00304C6
:100FB000A4DDF20026E19448005D00285BD19A4A46
:100FC00032F81410994A52F8240002F09EFF0028CB
:100FD00052D000209649085534B1012C0BD0022C78
:100FE00010D0032C1CD114E09248006840F010008F
:100FF0009049086014E08F48006840F008008D496F
:1010000008600DE08B48006840F080008949086066
:1010100006E08848006840F040008649086000BF4C
:1010200000BF04EB840000EBC4007E4901EB4000EC
:10103000006800F5C860804941F8240004EB840092
:1010400000EBC400774901EB4000007B04EB840215
:1010500002EBC4020B4603EB42020090126802F559
:10106000C8625142621CD0B2C8231A46FFF70AFA7E
:1010700003206B4908553DE034B1012C0BD0022C04
:1010800010D0032C1CD114E06A48006820F0100036
:101090006849086014E06748006820F00800654966
:1010A00008600DE06348006820F080006149086036
:1010B00006E06048006820F040005E49086000BF1C
:1010C00000BF4FF4E1605C4941F8240004EB840068
:1010D00000EBC400534901EB4000007B611C009011
:1010E000C8B2C8231A46D900FFF7CCF90221601E06
:1010F0004B4A115486E04448005DA0BB00204C4997
:10110000085534B1012C0BD0022C10D0032C1CD16B
:1011100014E04848006840F010004649086014E0B8
:101120004448006840F00800424908600DE041482A
:10113000006840F080003F49086006E03D480068D4
:1011400040F040003B49086000BF00BF1420611C14
:101150000090C8B24FF496731A463849FFF792F9D7
:1011600003202F4908554DE02748005DE0BB30487B
:10117000005DC8B334B1012C0CD0022C11D0032C6B
:101180001DD115E02B48006820F0100029490860A7
:1011900015E02AE02748006820F00800254908608B
:1011A0000DE02448006820F080002249086006E035
:1011B0002048006820F040001E49086000BF00BFC2
:1011C0000020144908551C4941F8240014201C4AE9
:1011D000009032F81410621CD0B264231A46FFF754
:1011E00051F904200E4908550CE00748005D40B94C
:1011F00000200B490855104941F82400114941F8D5
:10120000240000BF00BF38BD0201002048000020BC
:1012100068000020D4000020F000002000E204005C
:10122000EC0000207703002050000020A8000020E0
:10123000E80000200004014050010020F8F8FFFF02
:1012400010000020C801002010B50446601E00EB0D
:10125000400101EBC000FE4901EB40004078E0B9DD
:10126000601EFC4951F8201000EB800202EBC00028
:10127000F94A02EB40000068814209DC621EF74B2C
:1012800033F81210F64B53F8220002F03EFE20B95C
:101290000121601EF34A115403E00021601EF14A4F
:1012A0001154601EEB4951F82000002804DD002194
:1012B000601EED4A11540EE0601E00EB400101EB90
:1012C000C000E34901EB40004078012803D101212F
:1012D000601EE54A115410BD08B54FF4407001F08E
:1012E000BDFF00214FF0006001F0EFFF25208DF8D9
:1012F000000004208DF8010001208DF803006846ED
:1013000001F0B1FF09208DF8000002208DF80100E6
:101310008DF8020001208DF80300684601F0A3FF5C
:101320000A208DF80000684601F09DFF17208DF817
:101330000000684601F097FF28208DF800006846FD
:1013400001F091FF08BD0EB50121092002F0E6FF72
:101350000121C64802F017FE1820ADF8080004204D
:101360008DF80B0002A9C24802F03CFD01212120AA
:1013700002F0D4FFC020ADF8080004208DF80B0067
:1013800002A9BC4802F02EFD0321012002F030FE2C
:101390000421012002F02CFE0621032002F028FE89
:1013A0000721032002F024FED820009000208DF8B1
:1013B00004000C208DF8050001208DF80600684619
:1013C00002F080F9082002F004FA102002F001FA7D
:1013D000402002F0FEF9802002F0FBF90EBD7FB53F
:1013E00005460C460121082002F0A5FFADF8085083
:1013F000ADF804400020ADF80A00ADF8060001A9E0
:101400009D4803F05AF832208DF8000000208DF836
:10141000010003208DF8020001208DF803006846CA
:1014200001F021FF0121944803F0BCFD0122114687
:10143000914803F0E3FA7FBD7FB505460C460121D4
:10144000042002F078FFADF80850ADF80440002009
:10145000ADF80A00ADF8060001A9884803F02DF8A0
:1014600001221146854803F0C9FA1E208DF80000BC
:1014700000208DF8010002208DF8020001208DF877
:101480000300684601F0EFFE01217C4803F08AFD6D
:1014900001221146794803F0B1FA7FBD7FB50546B8
:1014A0000C460121022002F046FFADF80850ADF8CD
:1014B00004400020ADF80A00ADF8060001A970480C
:1014C00002F0FBFF012211466D4803F097FA1D2040
:1014D0008DF8000000208DF8010001208DF8020039
:1014E0008DF80300684601F0BEFE0121644803F058
:1014F00059FD01221146624803F080FA7FBD7FB595
:1015000005460C460121084602F015FFADF80850CB
:10151000ADF804400020ADF80A00ADF8060001A9BE
:101520004FF0804002F0C9FF01221146900703F0FE
:1015300065FA1C208DF8000001208DF801000020C4
:101540008DF8020001208DF80300684601F08BFE43
:101550000121880703F026FD01221146900703F0C0
:101560004DFA7FBD08B50121042002F0D7FE4FF4EB
:101570000040ADF8000048208DF80300694641485E
:1015800002F030FCFE20ADF8000010208DF80300C2
:1015900003208DF8020069463A4802F023FC01213D
:1015A000082002F0BBFE0121880402F0C4FE4FF4C3
:1015B0008060ADF8000003208DF8020018208DF83F
:1015C000030069462A4802F00DFC4FF40060ADF8B4
:1015D000000004208DF803006946254802F002FC53
:1015E0001820ADF8000048208DF803006946204817
:1015F00002F0F8FB4FF2E330ADF8000010208DF858
:10160000030003208DF802006946194802F0EAFB46
:101610000121102002F082FE4FF48050ADF800004E
:1016200048208DF803006946174802F0DBFBF020E4
:10163000ADF8000010208DF8030003208DF80200A3
:101640006946114802F0CEFB012120201EE0000077
:10165000700100205001002077030020400000208E
:1016600058000020CC000020D000002000023000F4
:10167000000C014000140140000C00400008004034
:1016800000040040000801400010014002F046FE46
:1016900040F6FF70ADF8000048208DF80300694661
:1016A000FE4802F09FFB4FF47040ADF800001020A0
:1016B0008DF8030003208DF802006946F74802F018
:1016C00091FB0121402002F029FE4FF47040ADF85B
:1016D000000048208DF803006946F14802F082FBC3
:1016E00040F68370ADF8000010208DF80300032051
:1016F0008DF802006946EA4802F074FB08BDFFF766
:1017000031FFFEF723FE01F077FD40214FF47A70A0
:10171000FFF7F5FE40214FF47A70FFF7BFFE40213E
:101720004FF47A70FFF788FE40214FF47A70FFF78C
:1017300056FEFFF708FEFFF7CFFDFEF703FDFEF7AD
:101740002AFD01F069FA00214FF40040FEF74DFD3B
:101750004FF47A70FEF7BDFD4FF47A70FEF7A4FDEA
:101760004FF47A70FEF7CAFD4FF47A70FEF7DAFD97
:1017700000240FE0CB4800EB44000088B0F5C86FB0
:1017800006DAC84800EB44000088C74921F8140075
:10179000601CC4B2042CEDDB74E001242AE0601E5E
:1017A00000EB800101EBC000C04901EB4000008A62
:1017B000072808D02046FFF747FD2046FFF7EDFB3E
:1017C0002046FFF76EFBBA4850F8240004EB840172
:1017D00001EBC401B54A02EB4101C1F81200B54862
:1017E000005D04EB840101EBC40102EB4101C882FE
:1017F000601CC4B2052CD2DB4FF48051A84802F023
:1018000084FB28B14FF48041A44802F098FB04E027
:101810004FF48041A14802F094FB4FF48041A0486E
:1018200002F073FB28B14FF400419C4802F087FBA3
:1018300004E04FF40041994802F083FB9E48007891
:1018400001280BD1002404E02046FFF739F9601C81
:10185000C4B2042CF8DB0020974908709748007840
:10186000012804D101F0A3FC002094490870FFF77F
:10187000D1FA93480078012804D101F0F6F900204C
:101880008F49087089E770B504460D46E1B28D486E
:1018900001F071FE00BF40218A4801F0C3FE00281C
:1018A000F9D0204670BD10B588B00121084602F07D
:1018B00042FD0121022002F03EFD0121042002F040
:1018C0003AFD0121082002F036FD4FF6FF70ADF819
:1018D00018000020ADF81400ADF81A00ADF816009D
:1018E00005A9794802F0E9FD05A94FF0804002F012
:1018F000E4FD05A9754802F0E0FD05A9744802F071
:10190000DCFD7448006840087349B0FBF1F0401EEC
:1019100084B201222146900703F0FDF801222146FE
:10192000694803F0F8F801222146684803F0F3F80B
:1019300001222146664803F0EEF81020ADF80400BD
:101940000120ADF806000A20ADF80A000020ADF82D
:101950000C0001A94FF0804002F0C8FD01A95A48CF
:1019600002F0C4FD01A9594802F0C0FD01A9584880
:1019700002F0BCFD0121880703F000FB0121524861
:1019800003F0FCFA0121514803F0F8FA0121504814
:1019900003F0F4FA01221146900703F02FF8012218
:1019A0001146494803F02AF801221146474803F03E
:1019B00025F801221146464803F020F808B010BD72
:1019C00010B50121880703F0DCFA18B1012188075E
:1019D00003F0E8FA414840884FF0804188863F484C
:1019E000408888853D48007870B110213C4802F05D
:1019F00099FA012804D11021394802F0A2FA03E033
:101A00001021374802F09BFA3648007810B10128BF
:101A100038D115E04FF48051214802F076FA32496E
:101A2000097888420BD02F480078401C2D49087057
:101A30004FF480511A4802F068FA2B49087021E0EF
:101A40004FF40051164802F060FA2849097888429C
:101A500017D02248407828B925480068401C2449FE
:101A6000086004E022480068401E21490860002008
:101A70001C4908704FF40051094802F046FA1B490E
:101A8000087000BF00BF1B480078401C194908704F
:101A90000846007802287CD100202DE00014014087
:101AA00000180140E305002010000020770300200B
:101AB00050010020020100203401002033010020E9
:101AC00035010020003801400004004000080040BB
:101AD000000C00405056000840420F0070010020EA
:101AE00000100140F4000020F8000020FC0000205D
:101AF000C8010020180100200870FE48007830B1AD
:101B0000012812D0022871D003280DD160E00020F6
:101B1000F949086000214FF0804002F054FF002096
:101B2000F6490870F6490870B7E0F3480068401CB1
:101B3000F1490860EF48407828B9F2480068401C35
:101B4000F049086004E0EF480068401EED49086075
:101B5000E848D0F80200E7498989884209DDE5486C
:101B6000D0F80200E3498989401AE249C1F802002D
:101B700004E0E048C089DF49C1F80200E24800788B
:101B800028B9E248007810B9E148007850B1D94846
:101B900000E083E0D0F80600D74908600220D5496C
:101BA000087014E0D348D0F80600D3490968884289
:101BB00003D80220CF49087009E0CE48D0F80200CF
:101BC000CC49C989884202DC0320CA49087064E014
:101BD000C9480068401CC8490860C648407830B908
:101BE000C8480068401CC749086005E024E0C548B3
:101BF0000068401EC3490860C348007828B9C3483C
:101C0000007810B9C248007840B1BA48D0F8060050
:101C1000B94908600220B74908700CE0BD48008B44
:101C200048B9B448D0F80600B3490968884202D8D8
:101C30000220B049087030E0AF480068401CAE494F
:101C40000860AC48407828B9AE480068401CAD49EF
:101C5000086004E0AB480068401EAA490860A54837
:101C6000D0F80200A34949890844A249C1F80200FA
:101C70000846D0F80200B0F57A7F03DD4FF47A70A1
:101C8000C1F802009B48D0F812009B4909688842BD
:101C900002D800209749087000BF00BF10BD10B5E2
:101CA00001219D4803F06DF918B101219A4803F014
:101CB00079F99048008B9849343108808D48008B21
:101CC00095492C3108808B48807D70B1082193485C
:101CD00002F028F9012804D10821904802F031F9D6
:101CE00003E008218D4802F02AF98D48407810B1B0
:101CF000012838D115E04FF480418A4802F005F9F7
:101D00008949497888420BD085484078401C8449ED
:101D100048704FF48041834802F0F7F882494870D8
:101D200021E04FF400417F4802F0EFF87F49497805
:101D3000884217D06F48C07D28B97D484068401C54
:101D40007B49486004E07A484068401E7849486012
:101D50000020734948704FF40041724802F0D5F8F2
:101D60007249487000BF00BF72480078401C71493A
:101D700008700846007802287ED1002008705D486F
:101D8000807D30B1012811D0022876D003280CD1F3
:101D900052E000206849086000215F4802F013FE0D
:101DA00000205649487056494870C9E062480068AA
:101DB000401C614908604F48C07D28B951484068BF
:101DC000401C5049486004E04E484068401E4D4960
:101DD000486048488169408C814206DD45488169F8
:101DE000408C091A4348816102E04248818C81613C
:101DF0004548407828B94548407810B9444840786B
:101E000038B13C48C0694C4908600220394988759E
:101E100011E03848C06948490968884203D802205F
:101E20003449887507E033488169808C814202DC3F
:101E300003203049887583E03F480068401C3E49D4
:101E400008602C48C07D28B92E484068401C2D49A8
:101E5000486004E02B484068401E2A4948602A48F0
:101E6000407828B92948407810B92948407850B1BD
:101E70002048C069304901E063E011E008600220B9
:101E80001C4988750BE02348408E40B91948C06949
:101E900029490968884202D80220164988754FE00E
:101EA00025480068401C244908601248C07D28B9B4
:101EB00014484068401C1349486004E011484068D9
:101EC000401E104948600B488169008C0144094854
:101ED00081618069B0F57A7F03DD4FF47A7105483E
:101EE00081610448806A14490968884227D8002023
:101EF000004923E0700100201401002002010020AD
:101F0000D800002050010020D4000020CC00002088
:101F1000D0000020770300200004004000080140AA
:101F2000F400002000180140F8000020FC00002010
:101F3000C8010020200100201C010020887500BF7E
:101F400000BF10BD10B50121F64803F01AF818B112
:101F50000121F44803F026F8F348C08DF1493431EB
:101F60000880F148C08DEF492C310880EE4890F888
:101F70002C0070B10121ED4801F0D4FF012804D1FB
:101F80000121EA4801F0DDFF03E00121E74801F00B
:101F9000D6FFE748807810B1012839D115E04FF419
:101FA0008071E44801F0B1FFE349897888420BD0A1
:101FB000DF488078401CDE4988704FF48071DD482E
:101FC00001F0A3FFDC49887022E04FF40071D9488A
:101FD00001F09BFFD9498978884218D0D24890F8FF
:101FE0002D0028B9D6488068401CD549886004E097
:101FF000D3488068401ED24988600020CC49887050
:102000004FF40071CB4801F080FFCC49887000BFCD
:1020100000BFCC480078401CCA49087008460078C8
:1020200002286FD100200870BF4890F82C0030B112
:10203000012811D0022875D003280CD163E00020BC
:10204000C14908600021B74802F0BDFC0020BF492B
:102050008870BF498870C8E0BB480068401CBA4916
:102060000860B14890F82D0028B9BA488068401C33
:10207000B849886004E0B7488068401EB549886068
:10208000A948D0F82E10008F814208DDA648D0F86C
:102090002E10008F091AA448C0F82E1003E0A248A1
:1020A000418FC0F82E10AC48807820B100209E49A6
:1020B00081F82C0025E0A948807810B9A8488078DC
:1020C00048B19948D0F832009F49086002209649EB
:1020D00081F82C0015E09448D0F832009A4909683C
:1020E000884204D80220904981F82C0009E08E48EB
:1020F000D0F82E10408F814203DC03208A4981F8FA
:102100002C0072E072E090480068401C8E49086024
:10211000854890F82D0030B98E488068401C8D4964
:10212000886005E02CE08B488068401E8949886003
:102130008948807820B100207B4981F82C001EE07E
:102140008648807810B98648807848B17648D0F8BB
:1021500032007D4908600220734981F82C000EE0AE
:102160008048B0F84C0050B96F48D0F8320076493A
:102170000968884203D802206B4981F82C0034E0BA
:1021800071480068401C70490860674890F82D004D
:1021900028B970488068401C6E49886004E06D482A
:1021A0008068401E6B4988605F48D0F82E10C08E52
:1021B00001445D48C0F82E10D0F82E00B0F57A7FAB
:1021C00004DD4FF47A715848C0F82E105648D0F804
:1021D0003E005D490968884202D95F48807818B19D
:1021E0000020514981F82C0000BF00BF10BD10B580
:1021F00001215D4802F0C5FE18B101215A4802F0E4
:10220000D1FE4948B0F84400574934310880464867
:10221000B0F8440054492C310880434890F84200FB
:1022200070B18021514801F07DFE012804D1802148
:102230004E4801F086FE03E080214C4801F07FFE0D
:102240003B48C07810B1012839D115E04FF48061C6
:10225000384801F05AFE3849C97888420BD03448D2
:10226000C078401C3249C8704FF48061314801F099
:102270004CFE3149C87022E04FF400612D4801F056
:1022800044FE2E49C978884218D0274890F8430068
:1022900028B92B48C068401C2949C86004E0284878
:1022A000C068401E2649C86000202149C8704FF40C
:1022B0008061204801F029FE2049C87000BF00BF9E
:1022C0002B480078401C2A490870084600780228EC
:1022D0007CD100200870144890F8420030B10128E9
:1022E00011D0022873D003280CD187E000202149A7
:1022F000086000211C4802F066FB00201349C870EA
:102300001349C870DDE01B480068401C194908608B
:10231000054890F8430078BB0E48C068401C0D4942
:10232000C8602FE000080040700100200018014044
:10233000F400002000140140F8000020FC00002000
:10234000C8010020280100202401002002010020F3
:10235000D800002050010020D4000020CC00002034
:10236000D000002077030020000C0040000C01404A
:10237000300100202C010020FFE7B848C068401E53
:10238000B649C860B648416CB0F84E00814207DDDE
:10239000B348416CB0F84E00091AB148416403E0FB
:1023A000AF48B0F850104164AE48C07828B9AE4884
:1023B000C07810B9AD48C07850B1A948806CAC491C
:1023C00008600220A64981F8420016E07AE04AE05F
:1023D000A348806CA6490968884204D80220A04915
:1023E00081F8420009E09E48416CB0F850008142FB
:1023F00003DC03209A4981F8420062E09C480068AF
:10240000401C9B490860964890F8430028B99348BF
:10241000C068401C9149C86004E09048C068401EF4
:102420008E49C8608F48C07828B98F48C07810B9E5
:102430008E48C07840B18A48806C8D49086002207F
:10244000874981F842000DE08A48B0F8660048B933
:102450008348806C86490968884203D802208049F5
:1024600081F842002DE082480068401C80490860E5
:102470007B4890F8430028B97848C068401C7749E9
:10248000C86004E07548C068401E7449C86074485C
:10249000416CB0F84C00014471484164406CB0F5A7
:1024A0007A7F03DD4FF47A716D4841646C48406D6A
:1024B0006F490968884203D80020694981F84200C1
:1024C00000BF00BF10BD10B5102001F071F9A8B118
:1024D00062480068684908600120684908706848D7
:1024E000007810B101205F490870102001F071F9E7
:1024F0006448006820F010006249086010BD10B503
:10250000082001F055F9A8B1544840685A4948607C
:1025100001205A4948705A48407810B10120514969
:102520004870082001F055F95648006820F008006E
:102530005449086010BD10B5802001F039F9A8B1E8
:10254000464880684C49886001204C4988704C4856
:10255000807810B1012043498870802001F039F95A
:102560004848006820F0800046490860402001F09B
:102570001FF9A8B13948C0683F49C86001203F49E8
:10258000C8703F48C07810B101203649C87040205B
:1025900001F01FF93B48006820F04000394908600D
:1025A0004FF4807001F004F918B14FF4807001F01D
:1025B00010F94FF4007001F0FBF818B14FF40070FF
:1025C00001F007F910BD10B54FF4806001F0F0F88C
:1025D00018B14FF4806001F0FCF84FF4006001F096
:1025E000E7F818B14FF4006001F0F3F84FF48050B1
:1025F00001F0DEF840B12348006820F48050214902
:102600000860881401F0E5F84FF4005001F0D0F8AC
:1026100040B11C48006820F400501A490860481472
:1026200001F0D7F84FF4804001F0C2F818B14FF430
:10263000804001F0CEF84FF4004001F0B9F818B135
:102640004FF4004001F0C5F810BD10B500F06EFC6D
:1026500010BD10B500F00DF910BD000050010020B4
:1026600070010020D4000020CC000020D000002009
:102670002C0100207703002060010020E8000020EA
:102680000201002000040140704700BFFEE700BFC8
:10269000FEE700BFFEE700BFFEE7704770477047E8
:1026A0007047000030B502460B464FF6FF70002120
:1026B000002400BF12E0555C684000240AE000F0EE
:1026C000010525B140104AF20105684000E04010C4
:1026D000651CACB2082CF2DB4D1CA9B29942EADBB6
:1026E00030BD01460806000C40EA1120704708B5CD
:1026F0004FF4E06000F0B2FD27208DF800000220CA
:102700008DF8010000208DF8020001208DF80300F3
:10271000684600F0A8FD08BD08B54FF4C06000F0A1
:102720009DFD0C208DF8000001208DF801008DF832
:1027300002008DF80300684600F095FD08BD00B565
:102740008BB00121084601F0DCFDFE4802F0DCFC04
:10275000FD480090FD480190002002904FF48060F9
:1027600003900020049080200590002006900790A0
:10277000202008900002099000200A906946F14844
:1027800002F05BFD01220221EE4802F08CFD0122E5
:102790000821EC4802F087FD01224021EA48001F91
:1027A00000F0ADFE0121E74802F072FD0BB000BD64
:1027B0001FB5044600940020ADF80400ADF80600F3
:1027C000ADF80800ADF80C000C20ADF80A00694621
:1027D000DD48001F00F0F9FD012240F22441DA48F3
:1027E000001F00F06CFE0121D748001F00F05BFEC7
:1027F000FFF77DFF0121084601F083FDFFF78CFF05
:10280000FFF79DFF1FBD30B58BB004460D4601207C
:10281000CF490870CC480090019510200290039495
:1028200000200490802005900020069007900890DA
:102830004FF48050099000200A90C248143802F0EA
:1028400063FC6946BF48143802F0F7FC0121BD481B
:10285000143802F01DFD01220221BA48143802F09A
:1028600022FD01228021B848001F00F048FE0BB075
:1028700030BD10B5202002F023FD01280DD120200D
:1028800002F032FD0021AF48143802F001FD0220B1
:10289000B04908700020AE49087010BD70B50446FC
:1028A00000250026032000EB4400C6B23146AA48AA
:1028B000FFF7F8FE0546A9484179A748C01C00EB80
:1028C00041000580A4498978481DA349FFF79BFF73
:1028D00070BD10B5A1490820FFF795FF10BD70B578
:1028E00000250024062421469C48FFF7DBFE054610
:1028F0009A48C580A21C0146974802F03DFD9649C2
:10290000A01CFFF780FF70BD10B5024602EB42002D
:10291000830002EB820101EBC201914C04EB410107
:10292000088AFFF7DEFE03F108018E4C04EB41013B
:10293000088010BD70B50022CDE002EB420083009C
:1029400002EB820000EBC200854901EB4000006809
:102950004FF6FF7101EA204402EB820000EBC20057
:102960007F4901EB4000008885B22046FFF7B9FEA1
:102970007C4901EB430108802846FFF7B2FE591C51
:10298000784E06EB4101088002EB820000EBC200AA
:10299000734901EB400040684FF6FF7101EA2044A3
:1029A00002EB820000EBC2006D4901EB4000808821
:1029B00085B22046FFF795FE991C06EB4101088081
:1029C0002846FFF78EFED91C06EB4101088002EB7A
:1029D000820101EBC201624E06EB41010889FFF75B
:1029E00080FE191D5F4E06EB4101088002EB82015B
:1029F00001EBC2015A4E06EB41014889FFF771FE17
:102A0000591D584E06EB4101088002EB820101EB93
:102A1000C201534E06EB41018889FFF762FE991D02
:102A2000504E06EB4101088002EB820101EBC2012E
:102A30004B4E06EB4101C889FFF753FED91D494EA5
:102A400006EB4101088002EB820101EBC201444E1A
:102A500006EB4101088AFFF744FE03F10801414EED
:102A600006EB4101088002EB820000EBC2003C490A
:102A700001EB4000D0F812004FF6FF7101EA20444C
:102A800002EB820000EBC200354901EB4000408AB6
:102A900085B22046FFF725FE03F1090106EB41014F
:102AA00008802846FFF71DFE03F10A0106EB4101ED
:102AB000088002EB820101EBC201294E06EB4101C5
:102AC000C88AFFF70EFE03F10B01264E06EB41010B
:102AD0000880501CC2B2042AFFF62FAF70BD70B53B
:102AE000002395E003EB430082001E4901EB420105
:102AF0000888FFF7F6FD0446511C1A4E06EB41010B
:102B00000888FFF7EEFD054645EA044003EB830124
:102B100001EBC301124E06EB41010860911C114EFE
:102B200006EB41010888FFF7DCFD0446D11C06EBEB
:102B300041010888FFF7D5FD054645EA044003EB4F
:102B4000830111E03000024004480040ED05002000
:102B50003201002036010020F4010020770200201D
:102B600077030020DF03002001EBC301FE4E06EBDC
:102B700041014860111DFD4E06EB41010888FFF739
:102B8000B0FD03EB830101EBC301F74E06EB4101FE
:102B90000881511DF54E06EB41010888FFF7A1FDA4
:102BA00003EB830101EBC301EF4E06EB41014881CA
:102BB000911DEE4E06EB41010888FFF792FD03EBF5
:102BC000830101EBC301E84E06EB41018881D11D71
:102BD000E64E06EB41010888FFF783FD03EB830116
:102BE00001EBC301E04E06EB4101C88102F108018F
:102BF000DE4E06EB41010888FFF773FD03EB83010E
:102C000001EBC301D84E06EB41010882581CC3B248
:102C1000042BFFF667AF70BD10B5D548408820B9CA
:102C20004FF41650FFF7C4FD1EE0D148408801283C
:102C300004D14FF49640FFF7BBFD15E0CC48408827
:102C4000022804D14FF41640FFF7B2FD0CE0C8484B
:102C50004088032804D14FF46140FFF7A9FD03E049
:102C60004FF4E130FFF7A4FD10BD70B5C1480288F4
:102C7000C149C24802F080FBBE480078801EC1B244
:102C8000BE48FFF70FFD0646BA480088801EBA49C5
:102C9000095CB8480088401EB74A105C41EA002031
:102CA000B0427DD1B5480078B1490988884203D047
:102CB000B2480078C828F4D1B0484078032876D1CB
:102CC000AE48C078602802D0612838D11BE0AB48FC
:102CD0004079012800DD69E0A5490888FFF701FD7A
:102CE000A749A1F80300A54800780870A3484078D8
:102CF0004870A24840794006000E88709F49487984
:102D0000FFF7CCFD52E09D484079012800DD4DE001
:102D100097494888FFF7E5FC9949A1F803009748CF
:102D2000007808709548407848709448407940068B
:102D3000000E887091494879FFF7B0FD36E08F4862
:102D4000C078302800DD31E08C48C078C0F1300018
:102D500085B28A484079A84200DD27E0FFF7EAFD06
:102D600000240DE08548C0782044804901EB4000F4
:102D700001888348C01C00EB44000180601CC4B281
:102D8000AC42EFDB7D4800787D4908707B48407895
:102D900048707A4840794006000E8870774901E013
:102DA000C2E004E04879FFF779FD00BFBCE073485A
:102DB000407806287CD17148C07851287BD006DC49
:102DC0004E2827D04F283FD0502873D156E0602896
:102DD00002D06128F9D10DE0684840796749097946
:102DE00040EA012062490880FFF773FD0120654930
:102DF00008707BE0614840796049097940EA012028
:102E00005B494880FFF765FDFFF706FF01205D493C
:102E100008706BE0594840795849097940EA012027
:102E20005349888008468088B0F5C86F02DD4FF4AA
:102E3000C86088804E48808853490880FFF749FD64
:102E400001205049087051E04C4840794B490979BC
:102E500040EA01214648C180C088B0F5C86F03DD53
:102E60004FF4C8614248C1804148C0884649488003
:102E7000FFF72FFD01204349087037E03F484079B4
:102E80003E49097940EA0121394801810089B0F5BC
:102E9000C86F03DD4FF4C8613548018134480089AB
:102EA00039498880FFF715FD0120364908701DE07B
:102EB00020E000E019E0314840793049097940EAE2
:102EC00001212B4841814089B0F5C86F03DD4FF4E3
:102ED000C86127484181264840892B49C880FFF7AF
:102EE000F8FC01202749087000E000BF00BFFFF791
:102EF000F0FC19E021484078102815D11F48C0780F
:102F00002F2800DD70BD1D498A79C978174B03EB66
:102F100041001A49C91D02F02FFAFFF7E0FD012018
:102F20001A490870FFF7DBFC00BFEBE710B540F271
:102F30002441174800F082FBA8B10021154802F097
:102F4000A7F9134800F01BFB124802F0B5F9C0F5D1
:102F500080600849088008460088802802DA01203D
:102F60000D4908701AE02AE077030020DF030020F3
:102F7000DF05002038010020ED0500207702002049
:102F8000F401002033010020100000203401002053
:102F90000048004030000240350100204FF47060CE
:102FA00002F0A2F94FF480600D49486301210C48FA
:102FB000303002F06DF90B480488001D04884FF48E
:102FC0005A71084800F03AFB20B14FF45A71054895
:102FD00000F05AFB40F22441024800F055FB10BDBE
:102FE00000000240004800400146088870472DE973
:102FF000F04105460E461746002407E036F8141047
:10300000284600F01AFDAD1C601C84B2BC42F5DB02
:10301000BDE8F08130B503460C461546002207E0B6
:103020001846FFF7E1FF24F812009B1C501C82B2E7
:10303000AA42F5DB30BD2DE9F05F80468A4617468F
:10304000B8F1006F02D37F48804501D3BDE8F09FFF
:1030500000F0E9FBA8F1006B4FEA9B25CBF3480990
:10306000C9F50074A74200DC3C464DE04FF000611A
:1030700001EB85208A147449FFF7CCFF00260BE092
:1030800009EB0600704931F810004FF6FF718842D5
:1030900000D003E0701C86B2A642F1DB00BFA6425E
:1030A0001BDA4FF0006101EB852000F003FC0026E5
:1030B00008E03AF8160006EB0901634A22F811000D
:1030C000701C86B2A642F4DB4FF0006101EB852054
:1030D0008A145D49FFF78BFF04E0224651464046C3
:1030E000FFF785FFA74200D10FE06D1C4FF00009EC
:1030F0000AEB440AA044381B87B2B7F5007F02DD13
:103100004FF4007400E03C46B0E700BF00F091FBD4
:1031100000BF9BE770B502460D46FF21FF23002448
:1031200009E012F8010B80EA01044848005D80EADA
:1031300003014748035D281EA5F10106B5B2F0D191
:1031400043EA012070BD13B50446012201A92046BF
:10315000FFF771FF1CBD10B50346002000BF05E05E
:1031600031F8104023F81040441CA0B29042F7DB25
:1031700010BD30B503460C46002100BF08E033F80F
:10318000110034F81150A84200D003E0481C81B26D
:103190009142F4DB00BF914201D1012030BD0020FB
:1031A000FCE701202B49088003204880704730B598
:1031B000ADF2044D03240E25A81E81B22548FFF769
:1031C000A9FF2449888100F02EFB2A46214901A845
:1031D00002F0D2F8204951F8240000F06BFB1E49A0
:1031E00051F824004FF4007201A9FFF700FF00F02E
:1031F00020FB0DF2044D30BD70B5ADF5806D03259B
:103200000E2400F010FB144951F825004FF4007211
:103210006946FFF7FFFE00F00CFB224669460D48A9
:1032200002F0AAF8A01E81B20A48FFF773FF064613
:1032300008488089B04201D0FFF7B3FF0DF5806DDB
:1032400070BD000000000208EE0900204C54000888
:103250004C550008DF050020345400083149014373
:10326000314A1160704770B5002100230F22C478E5
:1032700004B32D4C246804F4E064C4F5E064210A2E
:10328000C1F10403CA40447804FA03F1847814407D
:1032900021430901254C0678A155047804F01F0547
:1032A0000124AC4005786D11AD0005F1E025C5F8AD
:1032B000004109E0047804F01F050124AC401C4DD6
:1032C0000678761145F8264070BD1A4A0A40024336
:1032D000154B1B1F1A60704739B1134A121D126833
:1032E0000243114B1B1D1A6006E00F4A121D1268A3
:1032F00082430D4B1B1D1A607047042808D14FF004
:10330000E021096941F004014FF0E022116107E07A
:103310004FF0E021096921F004014FF0E022116132
:10332000704700000000FA050CED00E000E400E04A
:1033300080E100E080FFFF1F10B50446D749601A06
:103340008C422BD006DCD648204498B1B0F5806F73
:1033500038D119E0B0F5806F2AD0B0F56C4F31D17B
:103360000121880300F0F4FF00214FF4804000F0B9
:10337000EFFF28E00121480400F0F7FF00214FF49F
:10338000003000F0F2FF1EE00121880400F0EDFFA4
:1033900000214FF4802000F0E8FF14E00121C80470
:1033A00000F0E3FF00214FF4002000F0DEFF0AE010
:1033B0000121080500F0D9FF00214FF4801000F032
:1033C000D4FF00E000BF00BF10BD2DE9F04786B07C
:1033D00005460E460024A24600BF00BF00272F4628
:1033E0002C8A4CF6FF700440F08804432C82AC8990
:1033F0004EF6F3100440B0883189084371890843C0
:103400000443AC81AC8A4FF6FF400440B0890443CA
:10341000AC8201A800F015FFA248874202D1DDF876
:1034200010A001E0DDF80CA00AEBCA0000EB0A10C6
:1034300031688900B0FBF1F86420B8FBF0F00401BA
:103440002009642101FB1089322000EB0910B0FB38
:10345000F1F000F00F0004432C8106B0BDE8F087C6
:103460004FF41651016000218180C18001810C213F
:10347000418100218181704710B502460020108AE9
:103480004FF2FF0318400B884C8823438C8823435A
:10349000CC8823431843108210BD00210180418055
:1034A0008180C180704721B1828942F400528281BB
:1034B00004E082894DF6FF731A4082817047F0B5AF
:1034C000034600240026002500201846C1F34214BC
:1034D00001F01F06012707FA06F5012C01D10C3077
:1034E00004E0022C01D1103000E014301AB107685A
:1034F0002F43076002E00768AF430760F0BD1AB1D1
:10350000838A0B43838202E0838A8B4383827047E2
:10351000028A4FF6F0731A400282028A0A4302823C
:10352000704782894FF2FF731A40828182890A4371
:103530008281704721B1828942F00202828104E0D7
:1035400082894FF6FD731A4082817047028A4FF6D6
:10355000DF731A400282028A0A430282704721B155
:10356000028A42F48042028204E0028A4BF6FF7330
:103570001A4002827047C1F30802828070470146F8
:103580008888C0F308007047818941F0010181817A
:103590007047028BD2B20283028B42EA012202837D
:1035A0007047028B02F47F420283028B0A4302833C
:1035B000704721B1828A42F02002828204E0828A2E
:1035C0004FF6DF731A408282704721B1828A42F03F
:1035D0001002828204E0828A4FF6EF731A408282E0
:1035E000704721B1828A42F00802828204E0828A16
:1035F0004FF6F7731A4082827047828A4FF6FB7348
:103600001A408282828A0A438282704721B1828A6A
:1036100042F00202828204E0828A4FF6FD731A4071
:10362000828270470246002013880B400BB10120B4
:1036300000E000207047CA430280704770B5024620
:103640000B460024002100250020C3F3421503F09F
:103650001F01012606FA01F1012D02D196893140A0
:1036600006E0022D02D1168A314001E0968A3140EF
:103670001C12012606FA04F41688344011B10CB16C
:10368000012000E0002070BD10B5002200230A12C6
:1036900001249440A3B2DC43048010BD004C0040E0
:1036A00000BCFFBF0038014000204C490860091DE4
:1036B0000860091D0860091D086049484749143120
:1036C000086070478179002946D04449096802683A
:1036D0009143424A1160111D0968026891433F4AB3
:1036E000121D116001793F4A1144D1F8001402689B
:1036F000114302793B4B1A44C2F800143749083190
:10370000096802689143354A08321160111D096841
:1037100002689143314A0C321160417910290ED16F
:10372000111F0968026811432C4A08321160111DEB
:10373000096802681143294A0C32116018E0417986
:10374000284A1144D1F80014026811434279254BEC
:103750001A44C2F800140BE00179224A1144D1F84E
:1037600000140268914302791E4B1A44C2F80014F7
:1037700070470021016001710C21417100218171AC
:1037800070471649103109680143144A103211601C
:10379000704701460020114A143212680A400AB1EB
:1037A000012000E0002070470C4914310860704788
:1037B000014600200022094B1B6803EA0102074B67
:1037C00014331B680B4013B10AB1012000E0002044
:1037D000704702491431086070470000000401403E
:1037E000FFFF07000000014001460020FB4A10686F
:1037F00000F03800084310607047F849096821F06C
:103800000801F64A116011460968014311607047CA
:10381000F249096821F01001F04A11601146096867
:10382000014311607047EE48EC494860ED4848603C
:103830007047EA48006940F08000E8490861704735
:103840000420E649C96801F0010109B101200EE038
:10385000E249C96801F0040109B1022007E0DF492B
:10386000C96801F0100109B1032000E0042070478D
:1038700008B500200090FF20009002E00098401E54
:10388000009000980028F9D108BD70B504460425C1
:10389000FFF7D6FF054605E0FFF7EAFFFFF7D0FF89
:1038A0000546641E012D01D1002CF5D104B9052572
:1038B000284670BD70B50546042440F6FF70FFF73A
:1038C000E4FF0446042C19D1C448006940F002000A
:1038D000C249086108464561006940F0400008613E
:1038E00040F6FF70FFF7D1FF0446012C06D0BB481D
:1038F000006941F6FD710840B8490861204670BD75
:1039000010B5042440F6FF70FFF7BFFF0446042CF7
:1039100018D1B248006940F00400B0490861084677
:10392000006940F04000086140F6FF70FFF7ADFF0E
:103930000446012C06D0A948006941F6FB710840F5
:10394000A6490861204610BD10B5042440F6FF705A
:10395000FFF79BFF0446042C3BD1A1489F49886098
:10396000A04888600846006940F0200008610846C9
:10397000006940F04000086140F6FF70FFF785FFE6
:103980000446042C1CD19548006941F6DF710840BB
:10399000924908610846006940F010000861A520BE
:1039A000914908800F20FFF770FF0446012C10D0CA
:1039B0008A48006941F6EF7108408849086108E0CB
:1039C000012C06D08548006941F6EF710840834913
:1039D0000861204610BD70B505460E4604240F2030
:1039E000FFF753FF0446042C25D17C48006940F0C2
:1039F00001007A4908612E800F20FFF746FF044638
:103A0000042C0FD1300C68800F20FFF73EFF0446D6
:103A1000012C10D07148006941F6FE7108406F49D1
:103A2000086108E0012C06D06C48006941F6FE717F
:103A300008406A490861204670BD70B505460E46CB
:103A400004240F20FFF721FF0446042C13D1634800
:103A5000006940F00100614908612E800F20FFF7E6
:103A600014FF0446012C06D05C48006941F6FE7143
:103A700008405A490861204670BD70B505460E469B
:103A800004240F20FFF701FF0446042C17D15448EB
:103A900052498860534888600846006940F0100029
:103AA00008612E800F20FFF7F0FE0446012C06D09F
:103AB0004A48006941F6EF710840484908612046CC
:103AC00070BD2DE9F04704464FF6FF763746B04605
:103AD000B1460425E443E6B2C4F30727C4F307481C
:103AE0004FEA14690F20FFF7D0FE0546042D40D1A0
:103AF0003B483A4988603B4888600846006940F086
:103B000010000861FF2E06D03748083006800F20CD
:103B1000FFF7BBFE0546042D08D1FF2F06D0324823
:103B20000A3007800F20FFF7B0FE0546042D0AD1AA
:103B3000B8F1FF0F07D02C480C30A0F800800F2000
:103B4000FFF7A3FE0546042D0AD1B9F1FF0F07D0F8
:103B500025480E30A0F800900F20FFF796FE05468E
:103B6000012D06D01D48006941F6EF7108401B4940
:103B700008612846BDE8F08770B50546042440F684
:103B8000FF70FFF782FE0446042C4AD11448134903
:103B90008860144888600846006940F02000086189
:103BA0000846006940F04000086140F6FF70FFF7EA
:103BB0006CFE0446042C2BD10848006941F6DF71E5
:103BC0000840064908610846006940F01000086195
:103BD00065B10020044908800BE00000002002408D
:103BE00023016745AB89EFCD00F8FF1FA5204549AC
:103BF000088040F6FF70FFF748FE0446012C10D005
:103C00004148006941F6EF7108403F49086108E00A
:103C1000012C06D03C48006941F6DF7108403A4962
:103C20000861204670BD2DE9F04107460D46164655
:103C30000424364834498860354888600F20FFF7EF
:103C400024FE0446042C1AD12F48006940F01000CD
:103C50002D49086147EA0500304340F0F800294942
:103C6000891C08800F20FFF710FE0446012C06D0A7
:103C70002548006941F6EF71084023490861204654
:103C8000BDE8F0812048C069800870471E48006A7E
:103C9000704700201C49C96901F0020109B10120E7
:103CA00000E00020704700201749096801F020015A
:103CB00009B1012000E00020704729B1124A1269C1
:103CC0000243114B1A6104E00F4A126982430E4B02
:103CD0001A61704701460020012908D10A4AD269B9
:103CE00002F001020AB1012008E0002006E0064AC5
:103CF000D2680A400AB1012000E000207047024962
:103D0000C860704700F8FF1F00200240230167458C
:103D1000AB89EFCD10B50446C649601A8C422FD04E
:103D200009DCC548204480B1B0F5806F16D0B0F5ED
:103D3000006F4AD11BE0B0F5806F2AD0B0F5006F5C
:103D400030D0B0F5406F40D135E00121042000F0C3
:103D5000FFFA0021042000F0FBFA37E001210820DF
:103D600000F0F6FA0021082000F0F2FA2EE001211E
:103D7000102000F0EDFA0021102000F0E9FA25E013
:103D80000121202000F0E4FA0021202000F0E0FAD8
:103D90001CE00121402000F0DBFA0021402000F06F
:103DA000D7FA13E00121802000F0D2FA0021802010
:103DB00000F0CEFA0AE00121080200F0C9FA002161
:103DC0004FF4807000F0C4FA00E000BF00BF10BDE7
:103DD00010B50121084600F0BBFA0021012000F0D7
:103DE000B7FA10BD2DE9F04102460025002600205B
:103DF00000230024002791F803C00CF00F0591F870
:103E000003C00CF0100CBCF1000F03D091F802C0FD
:103E10004CEA050591F800C0BCF1000F31D01468E0
:103E200000202BE04FF0010C0CFA00F3B1F800C0B9
:103E30000CEA03069E4220D183004FF00F0C0CFACF
:103E400003F7BC4305FA03FC4CEA040491F803C0F1
:103E5000BCF1280F06D14FF0010C0CFA00FCC2F89F
:103E600014C00AE091F803C0BCF1480F05D14FF02F
:103E7000010C0CFA00FCC2F810C0401C0828D1D379
:103E80001460B1F800C0BCF1FF0F34DD54680020AD
:103E90002EE000F1080C4FF0010808FA0CF3B1F81D
:103EA00000C00CEA03069E4221D183004FF00F0CA4
:103EB0000CFA03F7BC4305FA03FC4CEA040491F83E
:103EC00003C0BCF1280F05D100F1080C08FA0CF86A
:103ED000C2F8148091F803C0BCF1480F07D100F17B
:103EE000080C4FF0010808FA0CF8C2F81080401CCA
:103EF0000828CED35460BDE8F0814FF6FF710180F1
:103F0000022181700421C17070470246002093682D
:103F10000B400BB1012000E000207047014688688B
:103F200080B2704702460020D3680B400BB10120DD
:103F300000E0002070470146C86880B27047016108
:103F40007047416170470AB1016100E0416170470B
:103F5000C16070474FF480320A438261816182619F
:103F600082698269704702460020344B18684FF618
:103F70008073184040EA02100843304B18607047C5
:103F80002F49C8617047F0B50A460023002400217C
:103F900000252A4E7168C0F3034583B200F4401631
:103FA000B6F5401F08D121F07061244E766826F0E6
:103FB0007066224F7E6012E000F48016B6F5801F16
:103FC00006D1032606FA05F4A14341F0706106E02C
:103FD000460D360103FA06F6B14341F0706122B195
:103FE000460D360103FA06F63143144E7160F0BDFA
:103FF00030B500228B071C0F0F2303FA04F20F4B7E
:1040000008338C1053F8243093430C4C08348D1033
:1040100044F8253023468C1053F824308C07240FA5
:1040200000FA04F42343054C08348D1044F825307D
:1040300030BD00000014014000F8FEBF0000014048
:1040400000002042DE48006840F00100DC490860C2
:1040500008464068DB490840D9494860084600687E
:10406000D9490840D64908600846006820F48020F5
:1040700008600846406820F4FE0048600020886020
:104080007047CF49096821F48031CD4A116011464B
:10409000096821F480211160B0F5803F03D0B0F5AC
:1040A000802F0ED106E0C649096841F48031C44A28
:1040B000116007E0C249096841F4A021C04A1160BB
:1040C00000E000BF00BF704710B50146002200238A
:1040D00000204A11012A02D1B94C236806E0022AC5
:1040E00002D1B74C236A01E0B54C636A01F01F02AC
:1040F000012494401C400CB1012000E0002010BDC0
:1041000038B5002000900024002500BF3120FFF7C3
:10411000DBFF05460098401C00901DB90098B0F5E3
:10412000A06FF3D13120FFF7CFFF08B1012400E0E9
:104130000024204638BD01460020A14A106820F026
:10414000F80040EAC10010607047A049086070475D
:10415000024600209A4B586820F47C1042EA010382
:104160001843974B58607047984908667047014656
:104170000020934A506820F00300084350607047C5
:104180008F48406800F00C007047014600208C4AC0
:10419000506820F0F000084350607047014600204E
:1041A000874A506820F4E060084350607047014639
:1041B0000020834A506820F4605040EAC1005060FB
:1041C000704729B17E4A527A02437D4B5A7204E00D
:1041D0007B4A527A82437A4B5A7270477B49D83174
:1041E0000860704701460020754A506820F440403E
:1041F0000843506070470021714A20321170704AA4
:1042000082F82010012802D004280AD104E00121FC
:104210006B4A2032117005E00521694A2032117085
:1042200000E000BF00BF70476949086070476449FB
:10423000096A0143624A116270476549443908605E
:10424000704730B500210022002400235C4D6D68CA
:1042500005F00C0121B1042905D0082923D105E07E
:104260005C4D056022E05B4D05601FE0544D6D68BC
:1042700005F47012022505EB9242514D6D6805F46C
:1042800080341CB9544D554305600BE04C4D6D68AE
:1042900005F400351DB1504D5543056002E04D4D0C
:1042A0005543056002E04B4D056000BF00BF444D23
:1042B0006D6805F0F0010909484D6B5C0568DD404B
:1042C00045603F4D6D6805F4E061090A434D6B5C44
:1042D0004568DD4085603A4D6D6805F46051C90A56
:1042E0003E4D6B5C4568DD40C560354D6D6805F43D
:1042F0004041890B3A4D6B5CC568B5FBF3F5056130
:1043000030BD29B12E4A526902432D4B5A6104E057
:104310002B4A526982432A4B5A61704729B1284A75
:1043200092690243264B9A6104E0254A92698243CE
:10433000234B9A61704729B1214AD2690243204B2D
:10434000DA6104E01E4AD26982431D4BDA6170478C
:1043500029B11B4AD2680243194BDA6004E0184ABB
:10436000D2688243164BDA60704729B1144A126949
:104370000243134B1A6104E0114A12698243104B45
:104380001A61704712494039086070470F49C86484
:1043900070470B49C87170470948406A40F0807007
:1043A00007494862704701460020054A92680A4062
:1043B0000AB1012000E0002070470149887270476F
:1043C000001002400000FFF8FFFFF6FE000042422E
:1043D0008004424200127A0000093D003A010020A8
:1043E0004A01002010B50446F749601A8C4245D0B6
:1043F0000CDCB4F1804F1DD0F448204418B3B0F564
:10440000806F29D0B0F5006F54D12EE0B0F5806FE9
:104410003DD0B0F58E3F03D0B0F5923F4AD13FE09A
:104420000121C802FFF794FF00214FF40060FFF75D
:104430008FFF40E001210846FFF797FF0021012090
:10444000FFF793FF37E001210220FFF78EFF0021E5
:104450000220FFF78AFF2EE001210420FFF785FFED
:1044600000210420FFF781FF25E001210820FFF74C
:104470007CFF00210820FFF778FF1CE001211020BD
:10448000FFF773FF00211020FFF76FFF13E00121FA
:104490002020FFF76AFF00212020FFF766FF0AE0D7
:1044A00001214803FFF754FF00214FF40050FFF7AC
:1044B0004FFF00E000BF00BF10BD028802F08F0276
:1044C0000280CA884B881A4303881A4302808A886C
:1044D00082850A880285BE4A904202D0BD4A904237
:1044E00001D10A7A028601228282704770B50024C7
:1044F00000220023058C4FF6FE7635400584028CA1
:104500008388048B4FF68F752C400D882C43751EC5
:104510002A400D892A434D882A43CD888586AC4D93
:10452000A84202D0AB4DA84213D14FF6F7752A40EE
:104530004D892A434FF6FB752A408D882A4347F65A
:10454000FF652B4047F6FF552B408D892B43CD89C6
:104550002B4383800483028470BD70B50024002245
:104560000023058C4FF6EF7635400584028C838856
:10457000048B48F6FF752C400D884FF6FF7606EA4F
:1045800005252C434FF6DF752A400D8906EA0515EF
:104590002A434D8806EA05152A43CD8805878C4DA8
:1045A000A84202D08B4DA8421DD14FF67F752A40FC
:1045B0004D894FF6FF7606EA05152A434FF6BF757B
:1045C0002A408D8806EA05152A4347F6FF352B4019
:1045D00047F2FF752B408D8906EA85052B43CD896F
:1045E00006EA85052B4383800483028470BD70B581
:1045F000002400220023058C4FF6FF663540058419
:10460000028C8388848B4FF68F752C400D882C4349
:104610004FF6FF552A400D894FF6FF7606EA05252D
:104620002A434D8806EA05252A43CD888587684DAB
:10463000A84202D0674DA8421DD14FF2FF752A4013
:104640004D894FF6FF7606EA05252A434FF6FF35DA
:104650002A408D8806EA05252A4346F6FF752B4039
:1046600045F6FF752B408D8906EA05152B43CD894C
:1046700006EA05152B4383808483028470BD70B5E0
:10468000002400220023058C4EF6FF763540058479
:10469000028C8388848B48F6FF752C400D884FF67A
:1046A000FF7606EA05252C434DF6FF752A400D8955
:1046B00006EA05352A434D8806EA05352A43CD88A2
:1046C000A0F84050424DA84202D0424DA84207D126
:1046D000C3F30D038D894FF6FF7606EA85152B434C
:1046E00083808483028470BD828B4FF2FF331A4033
:1046F0008283828B4FF6FF7303EA01231A4382837E
:104700007047F0B50C461546002100220026078CA4
:104710004EF6FF7C07EA0C070784818B028C4FF66C
:10472000FF7707EA043640F6FF4739404FF6FF7738
:1047300007EA05274FF6FF7C0CEA033C47EA0C0723
:1047400039434DF6FF773A4046F480573A43818328
:104750000284F0BD828B4FF6F3731A408283828B02
:104760000A4382837047F0B50C46154600210022AB
:104770000026078C4FF6FF6C07EA0C070784818B35
:10478000028C4FF6FF7707EA04264FF60C77394084
:104790004FF6FF7707EA03172F4339434FF6FF57CA
:1047A0003A4046F480773A4381830284F0BD028B1D
:1047B0004FF2FF331A400283028B4FF6FF7303EA76
:1047C00001231A43028370470010004000FCFFBF22
:1047D000002C014000340140F0B50C461546002184
:1047E00000220026078C4FF6EF7C07EA0C070784AF
:1047F000018B028C4FF6FF7707EA041640F6FF475D
:1048000039404FF6FF7707EA033739434FF6FF7712
:1048100007EA052739434FF6DF773A4046F010079D
:104820003A4301830284F0BD028B4FF6F3731A40C2
:104830000283028B0A4302837047F0B50C4615468B
:1048400000210022068C4FF6FE773E400684018B45
:10485000028C4FF60C7631407E1C06EA03162E437E
:1048600031437E1E324044F001063243018302840C
:10487000F0BD70B505460C46208850B92389A28842
:1048800061882846FFF7D9FFE1882846FFF7CCFF6B
:1048900025E0208804280AD12389A2886188284637
:1048A000FFF79AFFE1882846FFF781FF17E020888D
:1048B00008280AD12389A28861882846FFF753FF78
:1048C000E1882846FFF746FF09E02389A28861882E
:1048D0002846FFF716FFE1882846FFF705FF70BD61
:1048E0002DE9F04105460C4600260127608808B9ED
:1048F000022600E00026A088012801D1022700E05E
:1049000001272088A0B92389A28861882846FFF75B
:1049100094FFE1882846FFF787FF23893A4631460E
:104920002846FFF759FFE1882846FFF740FF13E0CC
:104930002389A28861882846FFF74EFFE188284630
:10494000FFF735FF23893A4631462846FFF775FFC2
:10495000E1882846FFF768FFBDE8F0810A884B88A8
:104960001A438B881A43CB881A430B891A434B8905
:104970001A438B891A43A0F8442070474FF6FF7101
:10498000818000210180C180418001727047002137
:10499000018041808180C180018141818181C1810B
:1049A0007047002101804180012181800021C18068
:1049B000018170470021018041808180C180018197
:1049C00041818181704721B1028842F00102028059
:1049D00004E0028840F2FE331A400280704731B191
:1049E000B0F8442042F40042A0F8442005E0B0F8BA
:1049F0004420C2F30E02A0F8442070471AB1838904
:104A00000B43838102E083898B43838170478182DA
:104A1000704741EA0203A0F8483070471AB1838911
:104A20000B43838102E083898B4383817047018933
:104A30004FF6F8721140018170470A460021018942
:104A40004FF68F73194011430181704730B504460A
:104A50000D4629462046FFF7F0FF208940F0070069
:104A6000208130BD2DE9F04104460D4616461F4613
:104A7000602D06D13B46012231462046FFF7ACFEB1
:104A800005E03B46012231462046FFF7D6FE294687
:104A90002046FFF7D2FF208940F007002081BDE8C3
:104AA000F08170B50C4600210189C9B244EA0205C3
:104AB0004FF6FF7606EA032635432943018170BD90
:104AC0002DE9F04105460E46174698460024434618
:104AD0003A4631462846FFF7E4FF2C894FF6F87036
:104AE000044044F007044FF68F70044044F0700413
:104AF0002C81BDE8F081F0B504460D4616461F46F0
:104B00003B46324629462046FFF7CBFF208940F43A
:104B100080402081F0BD0185828270470A460021D5
:104B2000018840F28F331940114301807047F0B57E
:104B30000C4615461E460021002200230189028BE7
:104B4000038C4FF6F877394021434FF6FC473A4043
:104B500040F201173A434FF6DD773B404FF6FF77BF
:104B600007EA06172F433B43018102830384F0BD0C
:104B70000A460021018B4FF68F73194011430183C0
:104B800070470A460021018B48F6FF7319404FF623
:104B9000FF7303EA02231943018370470A46002189
:104BA000818B4FF68F7319401143818370470A46FA
:104BB0000021818B48F6FF7319404FF6FF7303EA1B
:104BC000022319438183704721B1028842F0800299
:104BD000028004E0028840F27F331A40028070476E
:104BE00021B1828842F00402828004E082884FF67C
:104BF000FB731A408280704721B1828842F008021C
:104C0000828004E082884FF6F7731A4082807047F2
:104C100021B1828842F00102828004E082884FF64E
:104C2000FE731A40828070470A460021018B4FF6BE
:104C3000F77319401143018370470A460021018B25
:104C40004FF2FF7319404FF6FF7303EA0223194333
:104C5000018370470A460021818B4FF6F773194094
:104C60001143818370470A460021818B4FF2FF7305
:104C700019404FF6FF7303EA0223194381837047FB
:104C80000A460021018B4FF6FB7319401143018343
:104C900070470A460021018B4FF6FF3319404FF64B
:104CA000FF7303EA02231943018370470A46002178
:104CB000818B4FF6FB7319401143818370470A467D
:104CC0000021818B4FF6FF3319404FF6FF7303EA43
:104CD00002231943818370470A460021018B4FF656
:104CE0007F7319401143018370470A460021018BED
:104CF000C1F30E014FF6FF7303EA02231943018348
:104D000070470A460021818B4FF67F73194011438B
:104D1000818370470A460021818BC1F30E014FF653
:104D2000FF7303EA02231943818370470A46002177
:104D3000018C4FF6FD7319401143018470470A46F8
:104D40000021018C4FF6F77319401143018470471D
:104D50000A460021018C4FF6DF7319404FF6FF73AE
:104D600003EA02131943018470470A460021018CAB
:104D70004FF67F7319404FF6FF7303EA021319438E
:104D8000018470470A460021018C4FF6FF531940F9
:104D90004FF6FF7303EA02231943018470470A4662
:104DA0000021018C4FF2FF7319404FF6FF7303EAA5
:104DB00002231943018470470A460021018C4DF6F5
:104DC000FF7319404FF6FF7303EA0233194301845E
:104DD000704710B5038C01248C40A3430384038CDB
:104DE00002FA01F4A4B22343038410BD10B5038C6E
:104DF00004248C40A3430384038C02FA01F4A4B27C
:104E00002343038410BD30B5038C01248C40A3439D
:104E1000038409B1082918D100F1180303EB6103D9
:104E20001B684FF68F74234000F1180404EB6104F3
:104E3000236000F1180303EB61031B68134300F1C7
:104E4000180404EB610423601FE00B1FC3F34E043E
:104E500000F118031B5948F6FF7423400C1FC4F3DC
:104E60004E0500F1180463510B1FC3F34E0400F10B
:104E700018031B594FF6FF7404EA022423430C1F46
:104E8000C4F34E0500F11804635130BD21B102880E
:104E900042F00202028004E0028840F2FD331A4030
:104EA0000280704721B1028842F00402028004E0CF
:104EB000028840F2FB331A400280704721B1828899
:104EC00042F08002828004E082884FF67F731A40AD
:104ED00082807047028840F2F7331A4002800288CD
:104EE0000A430280704782884FF68F731A4082808F
:104EF00082880A438280704702894FF6F8731A400D
:104F0000028102890A430281704702894FF67F734A
:104F10001A40028102890A430281704781847047E6
:104F20008185704781867047018770478187704708
:104F3000A0F8401070470288D2B2028002880A436B
:104F4000028070470146888E70470146088F70477F
:104F50000146888F70470146B1F84000704701460E
:104F6000888C70470146088D704702460020138ADE
:104F70000B400BB1012000E000207047CA430282C1
:104F8000704730B50246002000230024158A05EA48
:104F90000103958905EA010413B10CB1012000E079
:104FA000002030BDCA4302827047000010B50121C5
:104FB0004807FFF7DAF900214FF00050FFF7D5F965
:104FC00010BD30B5002200234D4C226840F6FE741F
:104FD0008440A243D1E900452C438D682C43CD6821
:104FE00044EA050303FA00F42243454C226030BD35
:104FF0000021016041608160C160704739B1404A61
:105000001268012383401A433D4B1A6006E03C4A74
:105010001268012383409A43394B1A60704741B1AB
:10502000374A12684FF4805383401A43344B1A6056
:1050300007E0334A12684FF4805383409A43304B61
:105040001A60704710B551B12D4A121D126804093B
:105050000123A3401A432A4B1B1D1A6009E0284A6A
:10506000121D126804090123A3409A43244B1B1DFF
:105070001A6010BD40B12249091D096841F00301C1
:105080001F4A121D116007E01D49091D096821F022
:1050900003011B4A121D1160704710B53AB1184B3D
:1050A0001B6801FA00F42343154C236006E0144BFF
:1050B0001B6801FA00F4A343114C236010BD114A90
:1050C0000244C2F8081470470E4A0244C2F814148D
:1050D000704710B50023082802D142EA012301E0FD
:1050E00042EA0143074C0444C4F8203410BD014691
:1050F000044A02EB9100D0F82C0480B27047000003
:105100000074004000700040016821F0010101605E
:105110000021016041608160C160874A811A90422C
:105120005BD012DC854AA0EB020190423AD007DC4A
:1051300083490144D9B1142922D028297AD128E001
:10514000142938D0282975D13EE0B1F56C7F5BD0A9
:1051500006DCB1F5627F49D0B1F5677F6AD14CE0DA
:10516000B1F5717F57D0B1F5767F63D15BE07349BC
:105170004439496841F00F01704A443A51605AE09D
:105180006E494439496841F0F0016C4A443A516033
:1051900051E06A494439496841F47061674A443AC8
:1051A000516048E065494439496841F47041634AB7
:1051B000443A51603FE061494439496841F4702103
:1051C0005E4A443A516036E05C494439496841F4EA
:1051D00070015A4A443A51602DE0584944394968AF
:1051E00041F07061554A443A516024E055490968DC
:1051F00041F00F01534A11601DE05249096841F026
:10520000F001504A116016E04E49096841F470619E
:105210004C4A11600FE04B49096841F47041494A1A
:10522000116008E006E04749096841F47021454AE9
:10523000116000E000BF00BF704710B50022026897
:1052400047F6F0739A430C6A8B6823430C69234337
:105250004C6923438C692343CC6923434C6A234321
:105260008C6A23431A430260CB6843600B688360F7
:105270004B68C36010BD0021016041608160C16066
:10528000016141618161C161016241628162704776
:1052900021B1026842F00102026003E0026822F0DC
:1052A0000102026070471AB103680B43036002E019
:1052B00003688B43036070470146486880B27047BB
:1052C00001460020002201F080531BB11D4B1B1F23
:1052D0001A6802E0194B443B1A6802EA01030BB159
:1052E000012000E00020704700F0805111B1154905
:1052F000086002E0114944394860704701460020C7
:10530000002201F080531BB10E4B1B1F1A6802E0F4
:105310000A4B443B1A6802EA01030BB1012000E08A
:105320000020704700F0805111B10649086002E08A
:1053300002494439486070478000024044000240FE
:10534000F8FFFDBF04040240704708488047084941
:1053500081F3088807480047FEE7FEE7FEE7FEE71F
:10536000FEE7FEE7FEE7FEE7FEE7FEE7495300083B
:10537000F00F00203101000840EA01039B0703D031
:1053800009E008C9121F08C0042AFAD203E011F884
:10539000013B00F8013B521EF9D27047064C074D05
:1053A00006E0E06840F0010394E8070098471034F5
:1053B000AC42F6D3FAF7C0FE6056000880560008EB
:1053C00070B58C1810F8015B15F0070301D110F8C7
:1053D000013B2A1106D110F8012B03E010F8016BF4
:1053E00001F8016B5B1EF9D12B0705D40023521E77
:1053F0000DD401F8013BFAE710F8013BCB1A921CDF
:1054000003E013F8015B01F8015B521EF9D5A142DC
:10541000D8D3002070BD02E008C8121F08C1002ABE
:10542000FAD170477047002001E001C1121F002A25
:10543000FBD1704700C8030800D0030800D8030858
:1054400000E0030800E8030800F0030800C1814001
:1054500001C0804101C0804100C1814001C0804144
:1054600000C1814000C1814001C0804101C0804134
:1054700000C1814000C1814001C0804100C1814024
:1054800001C0804101C0804100C1814001C0804114
:1054900000C1814000C1814001C0804100C1814004
:1054A00001C0804101C0804100C1814000C18140F4
:1054B00001C0804101C0804100C1814001C08041E4
:1054C00000C1814000C1814001C0804101C08041D4
:1054D00000C1814000C1814001C0804100C18140C4
:1054E00001C0804101C0804100C1814000C18140B4
:1054F00001C0804101C0804100C1814001C08041A4
:1055000000C1814000C1814001C0804100C1814093
:1055100001C0804101C0804100C1814001C0804183
:1055200000C1814000C1814001C0804101C0804173
:1055300000C1814000C1814001C0804100C1814063
:1055400001C0804101C0804100C1814000C0C10153
:10555000C30302C2C60607C705C5C404CC0C0DCDE3
:105560000FCFCE0E0ACACB0BC90908C8D81819D953
:105570001BDBDA1A1EDEDF1FDD1D1CDC14D4D51583
:10558000D71716D6D21213D311D1D010F03031F173
:1055900033F3F23236F6F737F53534F43CFCFD3DA3
:1055A000FF3F3EFEFA3A3BFB39F9F83828E8E92993
:1055B000EB2B2AEAEE2E2FEF2DEDEC2CE42425E543
:1055C00027E7E62622E2E323E12120E0A06061A1B3
:1055D00063A3A26266A6A767A56564A46CACAD6D63
:1055E000AF6F6EAEAA6A6BAB69A9A86878B8B979D3
:1055F000BB7B7ABABE7E7FBF7DBDBC7CB47475B503
:1056000077B7B67672B2B373B17170B050909151F2
:105610009353529296565797559594549C5C5D9D22
:105620005F9F9E5E5A9A9B5B995958988848498912
:105630004B8B8A4A4E8E8F4F8D4D4C8C44848545C2
:1056400087474686824243834181804000A24A04C4
:1056500000A24A0400A24A040051250200A24A0402
:10566000805600080000002050010000C0530008D0
:10567000FC56000850010020A00E0000265400082F
:1056800023803E1B8025041A0C04190C4B2C0102AC
:1056900011327D224B4BC012081210120812011A4F
:1056A00080022202130220124022042A01061A025A
:1056B00018191F3B80202429041A801E111A141D5A
:1056C00069041A10049A0810A9141A18045A0C0C28
:1056D0002904290C09121069045940321032083289
:1056E00080196E110572040307062D0102030404DC
:0C56F000180806070809020406910000D3
:0400000508000131BD
:00000001FF
