:020000040800F2
:1000000000040020DB4F0008292400082B240008EE
:100010002F240008332400083724000800000000C3
:100020000000000000000000000000003B24000869
:100030003D240008000000003F240008412400087F
:10004000FB4F0008FB4F0008FB4F0008FB4F000868
:10005000FB4F0008FB4F0008FB4F0008FB4F000858
:10006000FB4F00087922000841220008FB4F0008DE
:100070001D240008FB4F0008FB4F0008FB4F000841
:10008000FB4F0008FB4F0008FB4F0008FB4F000828
:10009000FB4F0008FB4F0008FB4F0008B12200088F
:1000A000FB4F0008FB4F0008FB4F0008FB4F000808
:1000B000B31700082B1A0008D91C0008FB4F0008D2
:1000C000FB4F0008FB4F0008FB4F0008FB4F0008E8
:1000D000FB4F0008FB4F0008FB4F000815240008E9
:1000E00091230008FB4F0008FB4F0008FB4F00085E
:1000F000FB4F0008FB4F0008FB4F0008FB4F0008B8
:10010000FB4F0008FB4F0008C71F0008FB4F00080B
:10011000FB4F0008FB4F0008FB4F0008FB4F000897
:10012000FB4F0008FB4F0008FB4F0008FB4F000887
:10013000DFF80CD004F07AFF00480047E114000813
:10014000E00F002000B585B00121042003F02EFF50
:100150000121480703F037FF1020ADF80000002010
:100160008DF803006946F94803F084FC00200190F3
:1001700002904FF4006003900020049001A904F065
:1001800068FD0121002004F081FD0021084604F0F3
:10019000DEFD05B000BD00B585B00121042003F0EF
:1001A00005FF0121480703F00EFF2020ADF80000F5
:1001B00000208DF803006946E44803F05BFC002052
:1001C000019002904FF4006003900020049001A978
:1001D000102004F03EFD0121102004F057FD002105
:1001E000084604F0B9FD05B000BD30B589B005463C
:1001F0000C46012142F2100003F0D8FEC020ADF8F9
:10020000200018208DF8230003208DF8220008A973
:10021000CF4803F02FFCADF81850ADF81440002083
:10022000ADF81A00ADF8160005A9CA4803F08DFF15
:100230006020ADF804000120ADF806000020ADF804
:100240000A00ADF80C0001A9C24803F097FF602036
:10025000ADF804000120ADF806000020ADF80A005A
:10026000ADF80C0001A9BB4803F0BFFF0121B9485C
:1002700004F0FDF90821B74804F01EFB0821B54839
:1002800004F023FB0021B34804F094FC0021B148A2
:1002900004F092FC0121AF4804F0DEFA0121AD48E0
:1002A00004F0D9F909B030BD70B5064606EB06205A
:1002B00000EB40004FF47A7190FBF1F540F693505B
:1002C000854200D90546ACB22146002004F03FFD2E
:1002D00070BD70B5064606EB062000EB40004FF4FB
:1002E0007A7190FBF1F540F69350854200D90546AE
:1002F000ACB22146002004F02FFD70BD70B506465B
:1003000041F6160070434FF47A7190FBF1F546F612
:100310006340854200D90546ACB221468D4804F0C1
:100320004BFC70BD70B5064641F6160070434FF4A5
:100330007A7190FBF1F546F66340854200D9054697
:10034000ACB22146834804F035FC70BD10B50124E1
:100350001CE0621E804B33F81210804B53F82200D1
:1003600003F035FC621E7E4B33F812107D4B53F8C0
:10037000220003F02CFC621E7B4B33F812107B4BE7
:1003800053F8220003F023FC601CC4B2052CE0DB10
:100390004FF48041764803F01AFC4FF480517448C2
:1003A00003F015FC4FF48041724803F010FC4FF449
:1003B0008051704803F00BFC4FF400416C4803F08F
:1003C00006FC4FF400516A4803F001FC4FF4004171
:1003D000684803F0FCFB4FF40051664803F0F7FB5C
:1003E00000243AE0644850F8240004EB4401634AD6
:1003F00002EBC10108604FF4C86004EB440102EB5A
:10040000C1014860C82004EB440102EBC10108812E
:1004100004EB440102EBC1014881642004EB440178
:1004200002EBC10188814FF47A7004EB440102EBC6
:10043000C101C881002004EB440102EBC101088224
:1004400004EB440102EBC101C1F8120004EB4401CA
:1004500002EBC101C882601CC4B2042CC2DB10BD17
:100460002DE9F04104460F4615461E46DDF818807A
:10047000002F29DA601E424951F82000002805DCCF
:100480000121601E3F4A1154BDE8F0810121601E28
:1004900000EB400202EBC0003B4A02EB400041701F
:1004A000621E2F4B33F812102E4B53F8220003F02C
:1004B0008EFB621E2C4B33F812102C4B53F822008B
:1004C00003F087FB7F4238E0601E2D4951F8201071
:1004D00000EB4000294A02EBC0000068814209DCC1
:1004E000621E2A4B33F81210294B53F8220003F0F6
:1004F00054FB20B90121601E264A1154C4E7002193
:10050000601E244A115400EB400202EBC0001E4A58
:1005100002EB40004170621E114B33F81210114B78
:1005200053F8220003F055FB621E0F4B33F81210F4
:100530000E4B53F8220003F04CFB012C2CD0022C64
:1005400039D0032C46D0042C62D152E0000801407F
:1005500000100140003401402800002078000020F5
:100560003000002088000020380000209800002083
:1005700000140140000C0140000000207F03002017
:1005800058010020D0000020780100204000002009
:1005900058000020CC0000204FF48051FE4803F0AA
:1005A000FCFAFE4908704FF40051FB4803F0F5FADD
:1005B000FB4908702CE04FF48041F74803F0EDFA56
:1005C000F64948704FF40041F34803F0E6FAF44965
:1005D00048701DE04FF48071F24803F0DEFAEF49F5
:1005E00088704FF40071EF4803F0D7FAEC49887037
:1005F0000EE04FF48061EB4803F0CFFAE749C87092
:100600004FF40061E74803F0C8FAE549C87000BF3D
:1006100000BF0021601EE44A1154E44A1154E44A28
:10062000115400EB400101EBC000E24901EB400036
:10063000C0F81270012F5DD10221601E00EB400254
:1006400002EBC000DB4A02F810104FF47A71601E12
:1006500000EB400202EBC000D64A02EB4000C0F8BB
:100660000210012C06D0022C09D0032C0ED0042C31
:100670001AD112E00A2041078886888514E00A20F2
:10068000CD490880CC49083908800DE00A20CB49C3
:100690000880CA490839088006E00A20C84908804D
:1006A000C7490839088000BF00BF0121601EC54A44
:1006B0001154012C06D0022C09D0032C0DD0042C8F
:1006C00017D110E00121880703F0C5FF11E00121D7
:1006D000B948343803F0BFFF0BE00121B748343884
:1006E00003F0B9FF05E00121B548343803F0B3FF4A
:1006F00000BFAEE1002FFCD0C8F164000A2101EB7D
:10070000400081B2601E00EB400202EBC000A94A2B
:1007100002EB4000C181601E00EB400101EBC00014
:10072000114601EB4000C0890A2809DA0A21601E3F
:1007300000EB400202EBC0009E4A02EB4000C18188
:10074000B5F57A7F17DD601E00EB400101EBC000BC
:10075000984901EB4000C089C0F57A7090FBF5F034
:1007600081B2601E00EB400202EBC000914A02EB36
:100770004000818145E0601E00EB400101EBC000BC
:100780008C4901EB4000C089A8420ADD0121601EAE
:1007900000EB400202EBC000864A02EB4000818180
:1007A0002FE0642D17DA601E00EB400101EBC00062
:1007B000804901EB4000C089C0F1640090FBF5F076
:1007C00081B2601E00EB400202EBC000794A02EBEE
:1007D0004000818115E0601E00EB400101EBC0008C
:1007E000744901EB4000C089281A90FBF5F081B2F2
:1007F000601E00EB400202EBC0006E4A02EB4000BC
:100800008181601E00EB400101EBC000694901EBF2
:1008100040008089002809DC0121601E00EB4002B5
:1008200002EBC000634A02EB40008181B6F57A7F9B
:1008300017DD601E00EB400101EBC0005D4901EBDC
:100840004000C089C0F57A7090FBF6F081B2601E5E
:1008500000EB400202EBC000564A02EB400041812F
:1008600045E0601E00EB400101EBC000514901EB87
:100870004000C089B0420ADD0121601E00EB400249
:1008800002EBC0004B4A02EB400041812FE0642E96
:1008900017DA601E00EB400101EBC000454901EB97
:1008A0004000C089C0F1640090FBF6F081B2601E88
:1008B00000EB400202EBC0003E4A02EB40004181E7
:1008C00015E0601E00EB400101EBC000394901EB6F
:1008D0004000C089301A90FBF6F081B2601E00EB38
:1008E000400202EBC000334A02EB40004181601E2F
:1008F00000EB400101EBC0002E4901EB40004089B4
:10090000002809DC0121601E00EB400202EBC00060
:10091000284A02EB40004181B5F57A7F0CDD4FF4A7
:100920007A71601E00EB400202EBC000214A02EB2C
:100930004000C0F8021017E0642D0BDA6421601E3D
:1009400000EB400202EBC0001A4A02EB4000C0F884
:10095000021009E0601E00EB400101EBC0001549E8
:1009600001EB4000C0F80250B91B601E00EB4002D2
:1009700002EBC0000F4A02EB4000C0F80610012154
:10098000601E00EB400202EBC0000A4A02F81010A1
:10099000601E0C4A115417E000180140F8000020B6
:1009A000FC00002000140140D4000020D0000020F2
:1009B000CC000020780100203404004034080040BE
:1009C000340C004002010020012C06D0022C09D07A
:1009D000032C0ED0042C1AD112E00A20410788867D
:1009E000888514E00A20F9490880F8490839088008
:1009F0000DE00A20F6490880F5490839088006E02C
:100A00000A20F4490880F3490839088000BF00BF74
:100A1000012C06D0022C09D0032C0DD0042C17D1A8
:100A200010E00121880703F016FE11E00121E748DC
:100A3000343803F010FE0BE00121E548343803F0B0
:100A40000AFE05E00121E348343803F004FE00BF4C
:100A500000BF00BF18E52DE9F84304460D461646D1
:100A60001F46DDF82080601EDB4951F820002D1A5A
:100A70003B46324629462046CDF80080FFF7F0FC81
:100A8000BDE8F883F8B5044604EB4400D34901EB14
:100A9000C000C089B0F57A6F07DD4FF47A6004EBCF
:100AA0004401CE4A02EBC101C88134B1012C0DD002
:100AB000022C14D0032C24D11AE004EB4401C74AC1
:100AC00002EBC101C889FFF704FC1AE004EB440102
:100AD000C24A02EBC101C889FFF7E6FB11E004EB53
:100AE0004401BE4A02EBC101C889FFF707FC08E0D8
:100AF00004EB4401B94A02EBC101C889FFF712FCBB
:100B000000BF00BF04EB440000EBC400B44911F87F
:100B10001000002864D104EB4400B04901EBC00090
:100B2000008A00285CD004EB440001EBC000008A7E
:100B300001281AD104EB440001EBC000007B04EB58
:100B400044050E4606EBC50500906B8904EB440591
:100B500006EBC5052A8904EB440506EBC505696863
:100B6000651CE8B2FFF77CFC4BE004EB44009B49BA
:100B700001EBC000008A02281AD104EB440001EB0B
:100B8000C000007B04EB44050E4606EBC505009053
:100B90006B8904EB440506EBC5052A8904EB440583
:100BA00006EBC5056968651CE8B2FFF754FF28E04D
:100BB00004EB4400894901EBC000008A032803D1FB
:100BC0000120884908551CE004EB4400834901EBEF
:100BD000C000008A082814D101208349085510E07C
:100BE0008248005D68B104EB44007C4901EBC00021
:100BF000008A042805D101207D49085500207A4942
:100C00000855002004EB4401744A02EBC10108823C
:100C1000204601F049FDF8BD08B57448807860B100
:100C2000744A9188744A906802F0B7FF28B901208D
:100C30006F49887000206C4988706C48C07860B13A
:100C40006C4AD1886C4AD06802F0A7FF28B901200D
:100C50006749C87000206449C8706448007870B95A
:100C6000644A1188644A106802F097FF38B964201A
:100C7000C8231A46614900900120FFF7F1FB5B4849
:100C8000007878B95B4A51885B4A506802F085FF6A
:100C900040B96420C8231A465849494200900120AF
:100CA000FFF7DEFB08BDF8B50446601EC4B24E482F
:100CB000005D052861D2DFE800F0030410193D0053
:100CC0005BE04A48005D38B901204649085546486E
:100CD000005D401C444908554FE04248005D20B982
:100CE0004148005D401C4049085546E03F48005DD2
:100CF000F8B904EB4400394901EBC000007B04EB78
:100D000044050E4606EBC50500906B8904EB4405CF
:100D100006EBC5052A8904EB440506EBC5056968A1
:100D2000651CE8B2FFF79CFB2F48005D401C2E4974
:100D3000085522E02D48005DF0B904EB4400274936
:100D400001EBC000007B04EB44050E4606EBC50535
:100D500000906B8904EB440506EBC5052A8904EB7A
:100D6000440506EBC5056D686942651CE8B2FFF7EE
:100D700077FB03201C49085500BF00BFF8BD38B5FC
:100D80000446601EC4B21748005D052804D2DFE89F
:100D900000F00304BCF7F5003FE11448005D0028B3
:100DA00075D1174A32F81410164A52F8240002F08E
:100DB000F4FE00286CD000201349085534B3012CF0
:100DC0002BD0022C30D0032C3CD134E03404004032
:100DD00034080040340C0040580100207F030020FC
:100DE00078010020EC000020F0000020020100202B
:100DF000D4000020480000206800002000E2040029
:100E000050000020A8000020E8000020FE480068F4
:100E100040F01000FC49086014E0FB48006840F016
:100E20000800F94908600DE0F748006840F08000CC
:100E3000F549086006E0F448006840F04000F249D7
:100E4000086000BF00BF04EB4400F04901EBC000A4
:100E5000006800F5C860EE4941F8240004EB440046
:100E6000EA4901EBC000007B04EB44020B4603EBB4
:100E7000C2020090126802F5C8625142621CD0B2F0
:100E8000C8231A46FFF7ECFA0320E24908553BE075
:100E900034B1012C0BD0022C10D0032C1CD114E047
:100EA000D948006820F01000D749086014E0D648FF
:100EB000006820F00800D44908600DE0D2480068BE
:100EC00020F08000D049086006E0CF48006820F09C
:100ED0004000CD49086000BF00BF4FF4E160CC493D
:100EE00041F8240004EB4400C84901EBC000007B3A
:100EF000611C0090C8B2C8231A46D900FFF7B0FAA7
:100F00000221601EC34A115487E0C348005DA0BBA4
:100F10000020C249085534B1012C0BD0022C10D04E
:100F2000032C1CD114E0B848006840F01000B6490A
:100F3000086014E0B448006840F00800B249086056
:100F40000DE0B148006840F08000AF49086006E05D
:100F5000AD48006840F04000AB49086000BF00BFEA
:100F60001420611C0090C8B24FF496731A46AC4925
:100F7000FFF776FA0320A74908554EE040E0FFE767
:100F8000A548005DD8BBA548005DC0B334B1012CB5
:100F90000BD0022C10D0032C1CD114E09A4800680E
:100FA00020F010009849086014E09748006820F08D
:100FB0000800954908600DE09348006820F0800023
:100FC0009149086006E09048006820F040008E4992
:100FD000086000BF00BF0020924908558C4941F8C5
:100FE00024001420904A009032F81410621CD0B2F1
:100FF00064231A46FFF734FA0420864908550CE0AA
:101000008548005D40B9002082490855804941F873
:101010002400864941F8240000BF00BF38BD10B548
:101020000446601E00EB400101EBC000804901EB6B
:1010300040004078D0B9601E754951F8201000EB8F
:101040004000724A02EBC0000068814209DC621E67
:10105000784B33F81210784B53F8220002F09DFDC4
:1010600020B90121601E754A115403E00021601E61
:10107000724A1154601E664951F82000002804DDB0
:101080000021601E6E4A11540EE0601E00EB40010C
:1010900001EBC000664901EB40004078012803D114
:1010A0000121601E664A115410BD08B54FF440700E
:1010B00001F01CFF00214FF0006001F04EFF2520E1
:1010C0008DF8000004208DF8010001208DF8030048
:1010D000684601F010FF09208DF8000002208DF80D
:1010E00001008DF8020001208DF80300684601F030
:1010F00002FF0A208DF80000684601F0FCFE172070
:101100008DF80000684601F0F6FE28208DF80000FA
:10111000684601F0F0FE08BD0EB50121092002F07D
:1011200045FF0121474802F076FD1820ADF8080080
:1011300004208DF80B0002A9434802F09BFC01211A
:10114000212002F033FFC020ADF8080004208DF804
:101150000B0002A93D4802F08DFC0321012002F0A2
:101160008FFD0421012002F08BFD0621032002F0F7
:1011700087FD0721032002F083FDD8200090002086
:101180008DF804000C208DF8050001208DF8060074
:10119000684602F0DFF8082002F063F9102002F040
:1011A00060F9402002F05DF9802002F05AF90EBD8E
:1011B0007FB505460C460121082002F004FFADF87A
:1011C0000850ADF804400020ADF80A00ADF8060064
:1011D00001A91F4802F0B9FF32208DF8000000205D
:1011E0008DF8010003208DF8020001208DF8030026
:1011F000684601F080FE0121154803F01BFD012225
:101200001146134826E00000000401407F0300203F
:1012100058010020EC00002002010020E80000201E
:10122000F8F8FFFFD400002010000020D0010020BB
:10123000780100204000002058000020CC00002051
:10124000D000002000023000000C014000140140DA
:10125000000C004003F01AFA7FBD7FB505460C462E
:101260000121042002F0AFFEADF80850ADF80440B3
:101270000020ADF80A00ADF8060001A9FE4802F012
:1012800064FF01221146FC4803F000FA1E208DF88D
:10129000000000208DF8010002208DF802000120DE
:1012A0008DF80300684601F026FE0121F24803F0A4
:1012B000C1FC01221146F04803F0E8F97FBD7FB57B
:1012C00005460C460121022002F07DFEADF80850D3
:1012D000ADF804400020ADF80A00ADF8060001A901
:1012E000E64802F032FF01221146E44803F0CEF94D
:1012F0001D208DF8000000208DF8010001208DF8E0
:1013000002008DF80300684601F0F5FD0121DB487D
:1013100003F090FC01221146D84803F0B7F97FBDD5
:101320007FB505460C460121084602F04CFEADF89B
:101330000850ADF804400020ADF80A00ADF80600F2
:1013400001A94FF0804002F000FF012211469007F2
:1013500003F09CF91C208DF8000001208DF801009D
:1013600000208DF8020001208DF80300684601F08E
:10137000C2FD0121880703F05DFC012211469007A0
:1013800003F084F97FBD08B50121042002F00EFEB0
:101390004FF40040ADF8000048208DF80300694686
:1013A000B74802F067FBFE20ADF8000010208DF872
:1013B000030003208DF802006946B14802F05AFB91
:1013C0000121082002F0F2FD0121880402F0FBFD5A
:1013D0004FF48060ADF8000003208DF80200182063
:1013E0008DF803006946A74802F044FB4FF4006003
:1013F000ADF8000004208DF803006946A14802F012
:1014000039FB1820ADF8000048208DF8030069462C
:101410009C4802F02FFB4FF2E330ADF800001020A3
:101420008DF8030003208DF802006946954802F00C
:1014300021FB0121102002F0B9FD4FF48050ADF8DE
:10144000000048208DF8030069468F4802F012FB27
:10145000F020ADF8000010208DF8030003208DF877
:1014600002006946884802F005FB0121202002F0B5
:101470009DFD40F6FF70ADF8000048208DF8030098
:101480006946824802F0F6FA4FF47040ADF8000069
:1014900010208DF8030003208DF8020069467B4878
:1014A00002F0E8FA0121402002F080FD4FF4704084
:1014B000ADF8000048208DF803006946744802F03A
:1014C000D9FA40F68370ADF8000010208DF80300C3
:1014D00003208DF8020069466D4802F0CBFA08BD82
:1014E000FFF751FFFEF732FF01F0CFFC40214FF430
:1014F0007A70FFF715FF40214FF47A70FFF7DFFE97
:1015000040214FF47A70FFF7A8FE40214FF47A7023
:10151000FFF74EFEFFF700FEFFF7C7FDFEF712FED6
:10152000FEF739FE01F021FA00214FF40040FEF7EA
:101530005CFE4FF47A70FEF7CCFE4FF47A70FEF743
:10154000B3FE4FF47A70FEF7D9FE4FF47A70FEF7CF
:10155000E9FE50488088B0F5C86F03DA4D488088AE
:101560004D49888065E001241BE02046FFF757FDC8
:101570002046FFF704FC2046FFF795FB474850F84C
:10158000240004EB4401464A02EBC101C1F81200F9
:101590004448005D04EB440102EBC101C882601CB9
:1015A000C4B2052CE1DB4FF48051394802F0F5FA62
:1015B00028B14FF48041354802F009FB04E04FF4B4
:1015C0008041324802F005FB4FF48041304802F080
:1015D000E4FA28B14FF400412C4802F0F8FA04E094
:1015E0004FF40041294802F0F4FA2F48007801280E
:1015F0000BD1002404E02046FFF744FA601CC4B27B
:10160000042CF8DB002028490870284800780128BD
:1016100004D101F016FC002024490870FFF7FCFA01
:1016200023480078012804D101F0C8F9002020499E
:10163000087098E770B504460D46E1B21D4801F008
:10164000E2FD00BF40211B4801F034FE0028F9D024
:10165000204670BD10B588B00121084602F0B3FCE9
:101660000121022002F0AFFC0121042002F0ABFCBA
:101670000121082020E00000000800400004004094
:1016800000080140000C014000100140001401401E
:1016900000180140320100201000002058010020F5
:1016A0007F030020020100203C0100203B010020BC
:1016B0003D0100200038014002F085FC4FF6FF702C
:1016C000ADF818000020ADF81400ADF81A00ADF820
:1016D000160005A9FE4802F038FD05A94FF080402C
:1016E00002F033FD05A9FB4802F02FFD05A9FA48D9
:1016F00002F02BFDF94800684008F949B0FBF1F011
:10170000401E84B201222146900703F04CF80122CA
:101710002146EF4803F047F801222146ED4803F047
:1017200042F801222146EC4803F03DF81020ADF8C4
:1017300004000120ADF806000A20ADF80A000020E0
:10174000ADF80C0001A94FF0804002F017FD01A98F
:10175000DF4802F013FD01A9DE4802F00FFD01A9E8
:10176000DD4802F00BFD0121880703F04FFA01214B
:10177000D74803F04BFA0121D64803F047FA01217C
:10178000D54803F043FA01221146900702F07EFF8C
:1017900001221146CE4802F079FF01221146CD48C0
:1017A00002F074FF01221146CB4802F06FFF08B02F
:1017B00010BD10B50121880703F02BFA18B10121E3
:1017C000880703F037FAC74840884FF08041888681
:1017D000C44840888885C348007870B11021C24849
:1017E00002F0E8F9012804D11021BF4802F0F1F914
:1017F00003E01021BC4802F0EAF9BC48007810B1BF
:10180000012838D115E04FF48051B94802F0C5F9EC
:10181000B849097888420BD0B4480078401CB349D5
:1018200008704FF48051B24802F0B7F9B14908701E
:1018300021E04FF40051AE4802F0AFF9AE4909780B
:10184000884217D0A748407828B9AC480068401CA7
:10185000AA49086004E0A9480068401EA74908603A
:101860000020A24908704FF40051A14802F095F9F8
:10187000A149087000BF00BFA1480078401CA049E2
:10188000087008460078022878D100200870954832
:10189000007830B1012812D0022870D003280DD171
:1018A0005EE000209749086000214FF0804002F080
:1018B000D2FE00209449087094490870B3E0914822
:1018C0000068401C8F4908608648407828B99048D5
:1018D0000068401C8E49086004E08D480068401E86
:1018E0008B4908607F48D0F802007E498989884288
:1018F00009DD7C48D0F802007A498989401A794983
:10190000C1F8020004E07748C0897649C1F80200B6
:101910008048007828B98048007810B97F4800785E
:1019200040B17048D0F806007649086002206D4941
:10193000087014E06B48D0F80600724909688842C4
:1019400003D802206749087009E06648D0F8020011
:101950006449C989884202DC03206249087062E058
:1019600068480068401C674908605E48407838B99C
:1019700067480068401C6649086006E054E021E0C2
:1019800063480068401E624908606248007828B9D0
:101990006148007810B96148007840B15148D0F8EA
:1019A00006005849086002204E49087009E04D4879
:1019B000D0F8060053490968884202D802204949F4
:1019C000087030E04F480068401C4E4908604548A8
:1019D000407828B94E480068401C4D49086004E032
:1019E0004B480068401E4A4908603E48D0F8020053
:1019F0003C49498908443B49C1F802000846D0F8EF
:101A00000200B0F57A7F03DD4FF47A70C1F802006E
:101A10003448D0F812003B490968884202D80020B7
:101A20003049087000BF00BF10BD10B50121284823
:101A300003F0EFF818B10121254803F0FBF829481D
:101A4000008B2349343108802648008B20492C31F3
:101A500008802448807D70B10821314802F0AAF83E
:101A6000012804D108212E4802F0B3F803E0082130
:101A70002B4802F0ACF81D48407810B1012864D121
:101A800015E04FF480411A4802F087F81949497867
:101A900088420BD015484078401C144948704FF4D8
:101AA0008041134802F079F8124948704DE04FF434
:101AB00000410F4802F071F80F494978884243D03D
:101AC0000848C07D70BB0D484068401C0B492AE0A7
:101AD0000004004000080040000C0040E0520008F4
:101AE00040420F007801002000100140F400002067
:101AF00000180140F8000020FC000020D001002068
:101B0000180100201401002002010020D80000204C
:101B100058010020D4000020CC000020D00000207C
:101B20000008014001E0486004E0F8484068401EB9
:101B3000F64948600020F64948704FF40041F548E6
:101B400002F02BF8F449487000BF00BFF34800785A
:101B5000401CF24908700846007802287ED1002017
:101B60000870EF48807D30B1012811D0022876D06E
:101B700003280CD152E00020EA4908600021EA481D
:101B800002F069FD0020E9494870E9494870A1E088
:101B9000E4480068401CE3490860E148C07D28B97A
:101BA000E4484068401CE349486004E0E14840687C
:101BB000401EE0494860DA488169408C814206DD78
:101BC000D7488169408C091AD548816102E0D44820
:101BD000818C8161D848407828B9D848407810B9BC
:101BE000D748407838B1CE48C069CE490860022055
:101BF000CB49887511E0CA48C069CA49096888425A
:101C000003D80220C649887507E0C5488169808CE1
:101C1000814202DC0320C24988755BE0C14800684C
:101C2000401CC0490860BE48C07D28B9C148406812
:101C3000401CC049486004E0BE484068401EBD49A1
:101C40004860BD48407828B9BC48407810B9BC48C5
:101C5000407850B1B248C069B24901E03BE00EE0C3
:101C600008600220AE49887508E0AD48C069AD49FA
:101C70000968884202D80220A94988752AE0A94843
:101C80000068401CA7490860A548C07D28B9A9483C
:101C90004068401CA749486004E0A6484068401ED0
:101CA000A44948609E488169008C01449C48816138
:101CB0008069B0F57A7F03DD4FF47A7198488161CD
:101CC0009748806A97490968884202D80020944959
:101CD000887500BF00BF10BD10B50121994802F002
:101CE00098FF18B10121974802F0A4FF8C48C08DDD
:101CF0009449343108808A48C08D92492C3108803B
:101D0000874890F82C0070B10121824801F052FF01
:101D1000012804D101217F4801F05BFF03E001218C
:101D20007C4801F054FF7A48807810B1012839D1FD
:101D300015E04FF48071844801F02FFF83498978C2
:101D400088420BD072488078401C714988704FF4EB
:101D500080717D4801F021FF7C49887022E04FF4BA
:101D60000071794801F019FF6B498978884218D0D1
:101D70006B4890F82D0028B964488068401C63497E
:101D8000886004E061488068401E604988600020E7
:101D90005F4988704FF400716B4801F0FEFE5E49A8
:101DA000887000BF00BF6A480078401C684908700E
:101DB0000846007802286FD100200870584890F833
:101DC0002C0030B1012811D0022875D003280CD185
:101DD00063E000205F49086000215A4802F03BFCA4
:101DE00000205249887052498870EAE059480068DA
:101DF000401C584908604A4890F82D0028B94D48C1
:101E00008068401C4B49886004E04A488068401E56
:101E1000484988604248D0F82E10008F814208DD82
:101E20003F48D0F82E10008F091A3D48C0F82E10F8
:101E300003E03B48418FC0F82E103F48807820B126
:101E40000020374981F82C0025E03C48807810B903
:101E50003B48807848B13248D0F832003D490860AC
:101E600002202F4981F82C0015E02D48D0F83200CF
:101E700038490968884204D80220294981F82C0091
:101E800009E02748D0F82E10408F814203DC032060
:101E9000234981F82C0094E094E02E480068401C0F
:101EA0002C4908601E4890F82D0030B92148806800
:101EB000401C2049886005E04EE01E488068401EB6
:101EC0001C4988601C48807820B10020144981F8A2
:101ED0002C001AE01948807810B91948807848B168
:101EE0000F48D0F832001B49086002200C4981F8E5
:101EF0002C000AE00A48D0F83200164909688842E6
:101F000003D80220064981F82C005AE0D0010020B5
:101F1000F400002000180140FC00002020010020F7
:101F2000780100201C010020000400400201002074
:101F3000D800002058010020D4000020CC00002050
:101F4000D00000200008004000140140F8000020EC
:101F50002801002024010020F9480068401CF849AD
:101F60000860F84890F82D0028B9F7488068401CB0
:101F7000F549886004E0F4488068401EF2498860B2
:101F8000F048D0F82E10C08E0144EE48C0F82E1054
:101F9000D0F82E00B0F57A7F04DD4FF47A71E9486D
:101FA000C0F82E10E748D0F83E00E549096888429D
:101FB00002D9E648807818B10020E24981F82C0067
:101FC00000BF00BF10BD10B50121E14802F021FEA5
:101FD00018B10121DE4802F02DFEDA48B0F84400C5
:101FE000DB4934310880D748B0F84400D8492C3157
:101FF0000880D44890F8420070B18021D54801F0A3
:10200000D9FD012804D18021D24801F0E2FD03E08E
:102010008021D04801F0DBFDCF48C07810B1012805
:1020200039D115E04FF48061CC4801F0B6FDCC49C0
:10203000C97888420BD0C848C078401CC649C870CF
:102040004FF48061C54801F0A8FDC549C87022E081
:102050004FF40061C14801F0A0FDC249C97888422F
:1020600018D0B84890F8430028B9BF48C068401C51
:10207000BD49C86004E0BC48C068401EBA49C86099
:102080000020B549C8704FF48061B44801F085FD67
:10209000B449C87000BF00BFB4480078401CB349C1
:1020A000087008460078022876D100200870A548FC
:1020B00090F8420030B1012811D002286DD00328D9
:1020C0000CD15AE00020AA4908600021A04802F083
:1020D000C2FA0020A749C870A749C870AEE0A4485A
:1020E0000068401CA2490860964890F8430028B94F
:1020F0009548C068401C9449C86004E09248C06894
:10210000401E9149C8608F48416CB0F84E00814232
:1021100007DD8C48416CB0F84E00091A89484164CB
:1021200003E08848B0F8501041648848C07828B966
:102130009248C07810B99248C07840B18148806C0C
:102140008B49086002207F4981F8420014E07D48F5
:10215000806C87490968884204D80220794981F84F
:10216000420009E07748416CB0F85000814203DC3E
:102170000320744981F8420060E07D480068401CFB
:102180007B4908606F4890F8430038B96E48C068D2
:10219000401C6D49C86006E051E021E06A48C06813
:1021A000401E6949C8606948C07828B97348C0783A
:1021B00010B97348C07840B16248806C6C490860BF
:1021C0000220604981F8420009E05E48806C68495D
:1021D0000968884203D802205A4981F842002DE05C
:1021E00063480068401C62490860564890F8430004
:1021F00028B95548C068401C5349C86004E052489B
:10220000C068401E5049C8604E48416CB0F84C0050
:1022100001444C484164406CB0F57A7F03DD4FF4D3
:102220007A71484841644748406D5149096888427D
:1022300003D80020434981F8420000BF00BF10BD11
:1022400010B5102001F0FCF8A8B13F4800684D49D6
:10225000086001204C4908704648007810B1012000
:102260003A490870102001F0FCF84848006820F056
:1022700010004649086010BD10B5082001F0E0F8D4
:10228000A8B1314840683F49486001203E49487044
:102290003848407810B101202C494870082001F0DE
:1022A000E0F83A48006820F008003849086010BD9E
:1022B00010B5802001F0C4F8A8B1234880683149E6
:1022C00088600120304988702A48807810B1012048
:1022D0001E498870802001F0C4F82C48006820F066
:1022E00080002A490860402001F0AAF8A8B11648E9
:1022F000C0682449C86001202349C8701D48C078BF
:1023000010B101201149C870402001F0AAF81F48FF
:10231000006820F040001D4908604FF4807001F013
:102320008FF818B14FF4807001F09BF84FF40070F3
:1023300001F086F818B14FF4007001F092F810BD6A
:10234000240100207801002058010020D400002042
:10235000000C0040000C0140F4000020001401407B
:10236000F8000020FC000020D001002030010020F7
:102370002C01002002010020D8000020CC00002009
:10238000D000002068010020E80000200004014087
:1023900010B54FF4806001F053F818B14FF480602D
:1023A00001F05FF84FF4006001F04AF818B14FF403
:1023B000006001F056F84FF4805001F041F840B150
:1023C0001848006820F4805016490860881401F00D
:1023D00048F84FF4005001F033F840B1114800685C
:1023E00020F400500F490860481401F03AF84FF407
:1023F000804001F025F818B14FF4804001F031F829
:102400004FF4004001F01CF818B14FF4004001F007
:1024100028F810BD10B500F0D9FB10BD10B500F0C4
:10242000F8F810BD00040140704700BFFEE700BF90
:10243000FEE700BFFEE700BFFEE77047704770474A
:102440007047000030B502460B464FF6FF70002182
:10245000002400BF12E0555C684000240AE000F050
:10246000010525B140104AF20105684000E0401026
:10247000651CACB2082CF2DB4D1CA9B29942EADB18
:1024800030BD01460806000C40EA1120704708B52F
:102490004FF4E06000F02AFD27208DF800000220B4
:1024A0008DF8010000208DF8020001208DF8030056
:1024B000684600F020FD08BD08B54FF4C06000F08C
:1024C00015FD0C208DF8000001208DF801008DF81D
:1024D00002008DF80300684600F00DFD08BD00B550
:1024E0008BB00121084601F054FDFE4802F054FC77
:1024F000FD480090FD480190002002904FF480605C
:102500000390002004908020059000200690079002
:10251000202008900002099000200A906946F148A6
:1025200002F0D3FC01220221EE4802F004FD012258
:102530000821EC4802F0FFFC01224021EA48001F7C
:1025400000F025FE0121E74802F0EAFC0BB000BDD7
:102550001FB5044600940020ADF80400ADF8060055
:10256000ADF80800ADF80C000C20ADF80A00694683
:10257000DD48001F00F071FD012240F22441DA48DD
:10258000001F00F0E4FD0121D748001F00F0D3FD3B
:10259000FFF77DFF0121084601F0FBFCFFF78CFFF0
:1025A000FFF79DFF1FBD30B58BB004460D460120DF
:1025B000CF490870CC4800900195102002900394F8
:1025C000002004908020059000200690079008903D
:1025D0004FF48050099000200A90C248143802F04D
:1025E000DBFB6946BF48143802F06FFC0121BD488F
:1025F000143802F095FC01220221BA48143802F086
:102600009AFC01228021B848001F00F0C0FD0BB0E9
:1026100030BD10B5202002F09BFC01280DD12020F8
:1026200002F0AAFC0021AF48143802F079FC022025
:10263000B04908700020AE49087010BD70B504465E
:1026400000250026032000EB4400C6B23146AA480C
:10265000FFF7F8FE0546A9484179A748C01C00EBE2
:1026600041000580A4498978481DA349FFF79BFFD5
:1026700070BD10B5A1490820FFF795FF10BD70B5DA
:1026800000250024062421469C48FFF7DBFE054672
:102690009A48C580A21C0146974802F0B5FC9649AD
:1026A000A01CFFF780FF70BD10B5024602EB420090
:1026B000830002EB4201924C04EBC101088AFFF750
:1026C000E0FE03F108018F4C04EB4101088010BDCE
:1026D00070B50022B5E002EB4200830002EB42003D
:1026E000874901EBC00000684FF6FF7101EA204402
:1026F00002EB4200824901EBC000008885B220460F
:10270000FFF7BFFE7F4901EB430108802846FFF732
:10271000B8FE591C7B4E06EB4101088002EB4200DB
:10272000774901EBC00040684FF6FF7101EA204491
:1027300002EB4200724901EBC000808885B220465E
:10274000FFF79FFE991C06EB410108802846FFF722
:1027500098FED91C06EB4101088002EB4201684E4D
:1027600006EBC1010889FFF78CFE191D654E06EBCB
:102770004101088002EB4201614E06EBC10148892C
:10278000FFF77FFE591D5F4E06EB4101088002EB0B
:1027900042015B4E06EBC1018889FFF772FE991D6D
:1027A000584E06EB4101088002EB4201544E06EB05
:1027B000C101C889FFF765FED91D524E06EB4101E4
:1027C000088002EB42014E4E06EBC101088AFFF77A
:1027D00058FE03F108014B4E06EB4101088002EB65
:1027E0004200474901EBC000D0F812004FF6FF71DC
:1027F00001EA204402EB4200414901EBC000408A5B
:1028000085B22046FFF73DFE03F1090106EB4101C9
:1028100008802846FFF735FE03F10A0106EB410167
:10282000088002EB4201364E06EBC101C88AFFF771
:1028300028FE03F10B01334E06EB41010880501CCA
:10284000C2B2042AFFF647AF70BD70B5002388E01E
:1028500003EB430082002B4901EB42010888FFF79C
:1028600010FE0446511C274E06EB41010888FFF775
:1028700008FE054645EA044003EB4301204E06EB03
:10288000C1010860911C1F4E06EB41010888FFF74B
:10289000F8FD0446D11C06EB41010888FFF7F1FD65
:1028A000054645EA044003EB4301154E06EBC10122
:1028B0004860111D134E06EB41010888FFF7E1FD4A
:1028C00003EB43010E4E06EBC1010881511D0D4E75
:1028D00006EB41010888FFF7D4FD03EB4301084EE6
:1028E00012E000003000024004480040DF050020F4
:1028F0003A0100203E010020FC0100207F02002060
:102900007F030020DF03002006EBC1014881911DF9
:10291000CD4E06EB41010888FFF7B3FD03EB430101
:10292000CA4E06EBC1018881D11DC74E06EB41019D
:102930000888FFF7A6FD03EB4301C44E06EBC10177
:10294000C88102F10801C04E06EB41010888FFF77B
:1029500098FD03EB4301BD4E06EBC1010882581CF4
:10296000C3B2042BFFF674AF70BD10B5B8484088F1
:1029700020B94FF41650FFF7EBFD1EE0B448408835
:10298000012804D14FF49640FFF7E2FD15E0B0486E
:102990004088022804D14FF41640FFF7D9FD0CE01F
:1029A000AB484088032804D14FF46140FFF7D0FDC5
:1029B00003E04FF4E130FFF7CBFD10BD70B5A54843
:1029C0000288A549A54802F01FFBA2480078801E96
:1029D000C1B2A248FFF736FD06469E480088801E19
:1029E0009D49095C9B480088401E9B4A105C41EA57
:1029F0000020B0427ED199480078954909888842E4
:102A000003D096480078C828F4D194484078032829
:102A100076D19248C078602802D0612838D11BE076
:102A20008E484079012800DD69E089490888FFF770
:102A300028FD8B49A1F80300884800780870874872
:102A400040784870854840794006000E8870834978
:102A50004879FFF7F3FD52E080484079012800DD16
:102A60004DE07B494888FFF70CFD7D49A1F8030044
:102A70007A480078087079484078487077484079FB
:102A80004006000E887075494879FFF7D7FD36E09B
:102A90007248C078302800DD31E07048C078C0F15D
:102AA000300085B26D484079A84200DD27E0FFF78D
:102AB0000FFE00240DE06948C0782044624901EB14
:102AC000400001886648C01C00EB44000180601C87
:102AD000C4B2AC42EFDB61480078614908705F48DE
:102AE000407848705D4840794006000E88705B4928
:102AF000487901E068E003E0FFF7A0FD00BF63E074
:102B000056484078062845D15448C078502822D0ED
:102B1000602802D0612838D10DE0504840794F49F3
:102B2000097940EA01204A490880FFF7A2FD012007
:102B30004C4908702AE0494840794849097940EAF7
:102B4000012043494880FFF794FDFFF70EFF012065
:102B5000444908701AE0414840794049097940EAFF
:102B600001203B49888008468088B0F5C86F02DDA7
:102B70004FF4C8608880364880883B498880FFF7DA
:102B800078FD01203749087000E000BF00BFFFF763
:102B900070FD19E031484078102815D12F48C078D1
:102BA0002F2800DD70BD2D498A79C978264B03EBAB
:102BB00041002A49C91D02F027FAFFF746FE01200D
:102BC0002A490870FFF75BFD00BFEBE710B540F244
:102BD0002441274800F07AFB28B30021254802F061
:102BE0009FF9234800F013FB224802F0ADF9C0F52D
:102BF00080601849088008460088802802DA012091
:102C00001D4908704FF4706002F0B6F94FF480600F
:102C10001849303948630121164802F081F91448F7
:102C20000488001D04884FF45A71114800F04EFBCF
:102C300020B14FF45A710E4800F06EFB40F224416F
:102C40000B4800F069FB10BDDF0300207F0300206C
:102C50003201002040010020DF0500207F0200201B
:102C6000FC0100203B010020100000203C0100205E
:102C700000480040300002403D0100200146088825
:102C800070472DE9F04105460E461746002407E03F
:102C900036F81410284600F018FDAD1C601C84B2F4
:102CA000BC42F5DBBDE8F08130B503460C46154665
:102CB000002207E01846FFF7E1FF24F812009B1CF2
:102CC000501C82B2AA42F5DB30BD2DE9F05F804690
:102CD0008A461746B8F1006F02D37E48804501D37B
:102CE000BDE8F09F00F0E7FBA8F1006B4FEA9B25E1
:102CF000CBF34809C9F50074A74200DC3C464DE01F
:102D00004FF0006101EB85208A147349FFF7CCFF77
:102D100000260BE009EB06006F4931F810004FF672
:102D2000FF71884200D003E0701C86B2A642F1DB3E
:102D300000BFA6421BDA4FF0006101EB852000F0D6
:102D400001FC002608E03AF8160006EB0901624A89
:102D500022F81100701C86B2A642F4DB4FF000612D
:102D600001EB85208A145C49FFF78BFF04E02246C3
:102D700051464046FFF785FFA74200D10FE06D1C8A
:102D80004FF000090AEB440AA044381B87B2B7F59C
:102D9000007F02DD4FF4007400E03C46B0E700BF66
:102DA00000F08FFB00BF9BE770B502460D46FF2188
:102DB000FF23002409E012F8010B80EA01044748D0
:102DC000005D80EA03014648035D281EA5F1010667
:102DD000B5B2F0D143EA012070BD13B5044601221B
:102DE00001A92046FFF771FF1CBD10B50346002066
:102DF00000BF05E031F8104023F81040441CA0B299
:102E00009042F7DB10BD30B503460C46002100BFF1
:102E100008E033F8110034F81150A84200D003E064
:102E2000481C81B29142F4DB00BF914201D10120E4
:102E300030BD0020FCE701202A490880032048809B
:102E4000704730B5ADF2044D03240825A81E81B2A9
:102E50002448FFF7A9FF2349C88000F02CFB2A462D
:102E6000204901A802F0D0F81F4951F8240000F0D1
:102E700069FB1D4951F82400AA0101A9FFF701FFD0
:102E800000F01FFB0DF2044D30BD70B5ADF5806D47
:102E90000325082400F00FFB134951F82500A20177
:102EA0006946FFF701FF00F00CFB224669460D481A
:102EB00002F0AAF8A01E81B20A48FFF775FF064685
:102EC0000848C088B04201D0FFF7B5FF0DF5806D0E
:102ED00070BD000000000208E0090020DC5000087E
:102EE000DC51000832010020C45000083149014380
:102EF000314A1160704770B5002100230F22C47859
:102F000004B32D4C246804F4E064C4F5E064210AA1
:102F1000C1F10403CA40447804FA03F184781440F0
:102F200021430901254C0678A155047804F01F05BA
:102F30000124AC4005786D11AD0005F1E025C5F820
:102F4000004109E0047804F01F050124AC401C4D49
:102F50000678761145F8264070BD1A4A0A400243A9
:102F6000154B1B1F1A60704739B1134A121D1268A6
:102F70000243114B1B1D1A6006E00F4A121D126816
:102F800082430D4B1B1D1A607047042808D14FF077
:102F9000E021096941F004014FF0E022116107E0EE
:102FA0004FF0E021096921F004014FF0E0221161A6
:102FB000704700000000FA050CED00E000E400E0BE
:102FC00080E100E080FFFF1F10B50446D749601A7A
:102FD0008C422BD006DCD648204498B1B0F5806FE7
:102FE00038D119E0B0F5806F2AD0B0F56C4F31D1EF
:102FF0000121880300F0F4FF00214FF4804000F02D
:10300000EFFF28E00121480400F0F7FF00214FF412
:10301000003000F0F2FF1EE00121880400F0EDFF17
:1030200000214FF4802000F0E8FF14E00121C804E3
:1030300000F0E3FF00214FF4002000F0DEFF0AE083
:103040000121080500F0D9FF00214FF4801000F0A5
:10305000D4FF00E000BF00BF10BD2DE9F04786B0EF
:1030600005460E460024A24600BF00BF00272F469B
:103070002C8A4CF6FF700440F08804432C82AC8903
:103080004EF6F3100440B088318908437189084333
:103090000443AC81AC8A4FF6FF400440B08904433E
:1030A000AC8201A800F015FFA248874202D1DDF8EA
:1030B00010A001E0DDF80CA00AEBCA0000EB0A103A
:1030C00031688900B0FBF1F86420B8FBF0F004012E
:1030D0002009642101FB1089322000EB0910B0FBAC
:1030E000F1F000F00F0004432C8106B0BDE8F0873A
:1030F0004FF41651016000218180C18001810C21B3
:10310000418100218181704710B502460020108A5C
:103110004FF2FF0318400B884C8823438C882343CD
:10312000CC8823431843108210BD002101804180C8
:103130008180C180704721B1828942F4005282812E
:1031400004E082894DF6FF731A4082817047F0B522
:10315000034600240026002500201846C1F342142F
:1031600001F01F06012707FA06F5012C01D10C30EA
:1031700004E0022C01D1103000E014301AB10768CD
:103180002F43076002E00768AF430760F0BD1AB144
:10319000838A0B43838202E0838A8B438382704756
:1031A000028A4FF6F0731A400282028A0A430282B0
:1031B000704782894FF2FF731A40828182890A43E5
:1031C0008281704721B1828942F00202828104E04B
:1031D00082894FF6FD731A4082817047028A4FF64A
:1031E000DF731A400282028A0A430282704721B1C9
:1031F000028A42F48042028204E0028A4BF6FF73A4
:103200001A4002827047C1F308028280704701466B
:103210008888C0F308007047818941F001018181ED
:103220007047028BD2B20283028B42EA01220283F0
:103230007047028B02F47F420283028B0A430283AF
:10324000704721B1828A42F02002828204E0828AA1
:103250004FF6DF731A408282704721B1828A42F0B2
:103260001002828204E0828A4FF6EF731A40828253
:10327000704721B1828A42F00802828204E0828A89
:103280004FF6F7731A4082827047828A4FF6FB73BB
:103290001A408282828A0A438282704721B1828ADE
:1032A00042F00202828204E0828A4FF6FD731A40E5
:1032B000828270470246002013880B400BB1012028
:1032C00000E000207047CA430280704770B5024694
:1032D0000B460024002100250020C3F3421503F013
:1032E0001F01012606FA01F1012D02D19689314014
:1032F00006E0022D02D1168A314001E0968A314063
:103300001C12012606FA04F41688344011B10CB1DF
:10331000012000E0002070BD10B5002200230A1239
:1033200001249440A3B2DC43048010BD004C004053
:1033300000BCFFBF0038014000204C490860091D57
:103340000860091D0860091D086049484749143193
:10335000086070478179002946D0444909680268AD
:103360009143424A1160111D0968026891433F4A26
:10337000121D116001793F4A1144D1F8001402680E
:10338000114302793B4B1A44C2F800143749083103
:10339000096802689143354A08321160111D0968B5
:1033A00002689143314A0C321160417910290ED1E3
:1033B000111F0968026811432C4A08321160111D5F
:1033C000096802681143294A0C32116018E04179FA
:1033D000284A1144D1F80014026811434279254B60
:1033E0001A44C2F800140BE00179224A1144D1F8C2
:1033F00000140268914302791E4B1A44C2F800146B
:1034000070470021016001710C214171002181711F
:1034100070471649103109680143144A103211608F
:10342000704701460020114A143212680A400AB15E
:10343000012000E0002070470C49143108607047FB
:10344000014600200022094B1B6803EA0102074BDA
:1034500014331B680B4013B10AB1012000E00020B7
:1034600070470249143108607047000000040140B1
:10347000FFFF07000000014001460020FB4A1068E2
:1034800000F03800084310607047F849096821F0DF
:103490000801F64A1160114609680143116070473E
:1034A000F249096821F01001F04A116011460968DB
:1034B000014311607047EE48EC494860ED484860B0
:1034C0007047EA48006940F08000E84908617047A9
:1034D0000420E649C96801F0010109B101200EE0AC
:1034E000E249C96801F0040109B1022007E0DF499F
:1034F000C96801F0100109B1032000E00420704701
:1035000008B500200090FF20009002E00098401EC7
:10351000009000980028F9D108BD70B50446042534
:10352000FFF7D6FF054605E0FFF7EAFFFFF7D0FFFC
:103530000546641E012D01D1002CF5D104B90525E5
:10354000284670BD70B50546042440F6FF70FFF7AD
:10355000E4FF0446042C19D1C448006940F002007D
:10356000C249086108464561006940F040000861B1
:1035700040F6FF70FFF7D1FF0446012C06D0BB4890
:10358000006941F6FD710840B8490861204670BDE8
:1035900010B5042440F6FF70FFF7BFFF0446042C6B
:1035A00018D1B248006940F00400B04908610846EB
:1035B000006940F04000086140F6FF70FFF7ADFF82
:1035C0000446012C06D0A948006941F6FB71084069
:1035D000A6490861204610BD10B5042440F6FF70CE
:1035E000FFF79BFF0446042C3BD1A1489F4988600C
:1035F000A04888600846006940F02000086108463D
:10360000006940F04000086140F6FF70FFF785FF59
:103610000446042C1CD19548006941F6DF7108402E
:10362000924908610846006940F010000861A52031
:10363000914908800F20FFF770FF0446012C10D03D
:103640008A48006941F6EF7108408849086108E03E
:10365000012C06D08548006941F6EF710840834986
:103660000861204610BD70B505460E4604240F20A3
:10367000FFF753FF0446042C25D17C48006940F035
:1036800001007A4908612E800F20FFF746FF0446AB
:10369000042C0FD1300C68800F20FFF73EFF04464A
:1036A000012C10D07148006941F6FE7108406F4945
:1036B000086108E0012C06D06C48006941F6FE71F3
:1036C00008406A490861204670BD70B505460E463F
:1036D00004240F20FFF721FF0446042C13D1634874
:1036E000006940F00100614908612E800F20FFF75A
:1036F00014FF0446012C06D05C48006941F6FE71B7
:1037000008405A490861204670BD70B505460E460E
:1037100004240F20FFF701FF0446042C17D154485E
:1037200052498860534888600846006940F010009C
:1037300008612E800F20FFF7F0FE0446012C06D012
:103740004A48006941F6EF7108404849086120463F
:1037500070BD2DE9F04704464FF6FF763746B04678
:10376000B1460425E443E6B2C4F30727C4F307488F
:103770004FEA14690F20FFF7D0FE0546042D40D113
:103780003B483A4988603B4888600846006940F0F9
:1037900010000861FF2E06D03748083006800F2041
:1037A000FFF7BBFE0546042D08D1FF2F06D0324897
:1037B0000A3007800F20FFF7B0FE0546042D0AD11E
:1037C000B8F1FF0F07D02C480C30A0F800800F2074
:1037D000FFF7A3FE0546042D0AD1B9F1FF0F07D06C
:1037E00025480E30A0F800900F20FFF796FE054602
:1037F000012D06D01D48006941F6EF7108401B49B4
:1038000008612846BDE8F08770B50546042440F6F7
:10381000FF70FFF782FE0446042C4AD11448134976
:103820008860144888600846006940F020000861FC
:103830000846006940F04000086140F6FF70FFF75D
:103840006CFE0446042C2BD10848006941F6DF7158
:103850000840064908610846006940F01000086108
:1038600065B10020044908800BE000000020024000
:1038700023016745AB89EFCD00F8FF1FA52045491F
:10388000088040F6FF70FFF748FE0446012C10D078
:103890004148006941F6EF7108403F49086108E07E
:1038A000012C06D03C48006941F6DF7108403A49D6
:1038B0000861204670BD2DE9F04107460D461646C9
:1038C0000424364834498860354888600F20FFF763
:1038D00024FE0446042C1AD12F48006940F0100041
:1038E0002D49086147EA0500304340F0F8002949B6
:1038F000891C08800F20FFF710FE0446012C06D01B
:103900002548006941F6EF710840234908612046C7
:10391000BDE8F0812048C069800870471E48006AF1
:10392000704700201C49C96901F0020109B101205A
:1039300000E00020704700201749096801F02001CD
:1039400009B1012000E00020704729B1124A126934
:103950000243114B1A6104E00F4A126982430E4B75
:103960001A61704701460020012908D10A4AD2692C
:1039700002F001020AB1012008E0002006E0064A38
:10398000D2680A400AB1012000E0002070470249D5
:10399000C860704700F8FF1F002002402301674500
:1039A000AB89EFCD10B50446C649601A8C422FD0C2
:1039B00009DCC548204480B1B0F5806F16D0B0F561
:1039C000006F4AD11BE0B0F5806F2AD0B0F5006FD0
:1039D00030D0B0F5406F40D135E00121042000F037
:1039E000FFFA0021042000F0FBFA37E00121082053
:1039F00000F0F6FA0021082000F0F2FA2EE0012192
:103A0000102000F0EDFA0021102000F0E9FA25E086
:103A10000121202000F0E4FA0021202000F0E0FA4B
:103A20001CE00121402000F0DBFA0021402000F0E2
:103A3000D7FA13E00121802000F0D2FA0021802083
:103A400000F0CEFA0AE00121080200F0C9FA0021D4
:103A50004FF4807000F0C4FA00E000BF00BF10BD5A
:103A600010B50121084600F0BBFA0021012000F04A
:103A7000B7FA10BD2DE9F0410246002500260020CE
:103A800000230024002791F803C00CF00F0591F8E3
:103A900003C00CF0100CBCF1000F03D091F802C071
:103AA0004CEA050591F800C0BCF1000F31D0146854
:103AB00000202BE04FF0010C0CFA00F3B1F800C02D
:103AC0000CEA03069E4220D183004FF00F0C0CFA43
:103AD00003F7BC4305FA03FC4CEA040491F803C065
:103AE000BCF1280F06D14FF0010C0CFA00FCC2F813
:103AF00014C00AE091F803C0BCF1480F05D14FF0A3
:103B0000010C0CFA00FCC2F810C0401C0828D1D3EC
:103B10001460B1F800C0BCF1FF0F34DD5468002020
:103B20002EE000F1080C4FF0010808FA0CF3B1F890
:103B300000C00CEA03069E4221D183004FF00F0C17
:103B40000CFA03F7BC4305FA03FC4CEA040491F8B1
:103B500003C0BCF1280F05D100F1080C08FA0CF8DD
:103B6000C2F8148091F803C0BCF1480F07D100F1EE
:103B7000080C4FF0010808FA0CF8C2F81080401C3D
:103B80000828CED35460BDE8F0814FF6FF71018064
:103B9000022181700421C1707047024600209368A1
:103BA0000B400BB1012000E00020704701468868FF
:103BB00080B2704702460020D3680B400BB1012051
:103BC00000E0002070470146C86880B2704701617C
:103BD0007047416170470AB1016100E0416170477F
:103BE000C16070474FF480320A4382618161826113
:103BF00082698269704702460020344B18684FF68C
:103C00008073184040EA02100843304B1860704738
:103C10002F49C8617047F0B50A46002300240021EF
:103C200000252A4E7168C0F3034583B200F44016A4
:103C3000B6F5401F08D121F07061244E766826F059
:103C40007066224F7E6012E000F48016B6F5801F89
:103C500006D1032606FA05F4A14341F0706106E09F
:103C6000460D360103FA06F6B14341F0706122B108
:103C7000460D360103FA06F63143144E7160F0BD6D
:103C800030B500228B071C0F0F2303FA04F20F4BF1
:103C900008338C1053F8243093430C4C08348D10A7
:103CA00044F8253023468C1053F824308C07240F19
:103CB00000FA04F42343054C08348D1044F82530F1
:103CC00030BD00000014014000F8FEBF00000140BC
:103CD00000002042DE48006840F00100DC49086036
:103CE00008464068DB490840D949486008460068F2
:103CF000D9490840D64908600846006820F4802069
:103D000008600846406820F4FE0048600020886093
:103D10007047CF49096821F48031CD4A11601146BE
:103D2000096821F480211160B0F5803F03D0B0F51F
:103D3000802F0ED106E0C649096841F48031C44A9B
:103D4000116007E0C249096841F4A021C04A11602E
:103D500000E000BF00BF704710B5014600220023FD
:103D600000204A11012A02D1B94C236806E0022A38
:103D700002D1B74C236A01E0B54C636A01F01F021F
:103D8000012494401C400CB1012000E0002010BD33
:103D900038B5002000900024002500BF3120FFF737
:103DA000DBFF05460098401C00901DB90098B0F557
:103DB000A06FF3D13120FFF7CFFF08B1012400E05D
:103DC0000024204638BD01460020A14A106820F09A
:103DD000F80040EAC10010607047A04908607047D1
:103DE000024600209A4B586820F47C1042EA0103F6
:103DF0001843974B586070479849086670470146CA
:103E00000020934A506820F0030008435060704738
:103E10008F48406800F00C007047014600208C4A33
:103E2000506820F0F00008435060704701460020C1
:103E3000874A506820F4E0600843506070470146AC
:103E40000020834A506820F4605040EAC10050606E
:103E5000704729B17E4A527A02437D4B5A7204E080
:103E60007B4A527A82437A4B5A7270477B49D831E7
:103E70000860704701460020754A506820F44040B1
:103E80000843506070470021714A20321170704A17
:103E900082F82010012802D004280AD104E0012170
:103EA0006B4A2032117005E00521694A20321170F9
:103EB00000E000BF00BF704769490860704764496F
:103EC000096A0143624A11627047654944390860D2
:103ED000704730B500210022002400235C4D6D683E
:103EE00005F00C0121B1042905D0082923D105E0F2
:103EF0005C4D056022E05B4D05601FE0544D6D6830
:103F000005F47012022505EB9242514D6D6805F4DF
:103F100080341CB9544D554305600BE04C4D6D6821
:103F200005F400351DB1504D5543056002E04D4D7F
:103F30005543056002E04B4D056000BF00BF444D96
:103F40006D6805F0F0010909484D6B5C0568DD40BE
:103F500045603F4D6D6805F4E061090A434D6B5CB7
:103F60004568DD4085603A4D6D6805F46051C90AC9
:103F70003E4D6B5C4568DD40C560354D6D6805F4B0
:103F80004041890B3A4D6B5CC568B5FBF3F50561A3
:103F900030BD29B12E4A526902432D4B5A6104E0CB
:103FA0002B4A526982432A4B5A61704729B1284AE9
:103FB00092690243264B9A6104E0254A9269824342
:103FC000234B9A61704729B1214AD2690243204BA1
:103FD000DA6104E01E4AD26982431D4BDA61704700
:103FE00029B11B4AD2680243194BDA6004E0184A2F
:103FF000D2688243164BDA60704729B1144A1269BD
:104000000243134B1A6104E0114A12698243104BB8
:104010001A61704712494039086070470F49C864F7
:1040200070470B49C87170470948406A40F080707A
:1040300007494862704701460020054A92680A40D5
:104040000AB1012000E000207047014988727047E2
:10405000001002400000FFF8FFFFF6FE00004242A1
:104060008004424200127A0000093D004201002013
:104070005201002010B50446F749601A8C4245D021
:104080000CDCB4F1804F1DD0F448204418B3B0F5D7
:10409000806F29D0B0F5006F54D12EE0B0F5806F5D
:1040A0003DD0B0F58E3F03D0B0F5923F4AD13FE00E
:1040B0000121C802FFF794FF00214FF40060FFF7D1
:1040C0008FFF40E001210846FFF797FF0021012004
:1040D000FFF793FF37E001210220FFF78EFF002159
:1040E0000220FFF78AFF2EE001210420FFF785FF61
:1040F00000210420FFF781FF25E001210820FFF7C0
:104100007CFF00210820FFF778FF1CE00121102030
:10411000FFF773FF00211020FFF76FFF13E001216D
:104120002020FFF76AFF00212020FFF766FF0AE04A
:1041300001214803FFF754FF00214FF40050FFF71F
:104140004FFF00E000BF00BF10BD028802F08F02E9
:104150000280CA884B881A4303881A4302808A88DF
:1041600082850A880285BE4A904202D0BD4A9042AA
:1041700001D10A7A028601228282704770B500243A
:1041800000220023058C4FF6FE7635400584028C14
:104190008388048B4FF68F752C400D882C43751E39
:1041A0002A400D892A434D882A43CD888586AC4D07
:1041B000A84202D0AB4DA84213D14FF6F7752A4062
:1041C0004D892A434FF6FB752A408D882A4347F6CE
:1041D000FF652B4047F6FF552B408D892B43CD893A
:1041E0002B4383800483028470BD70B500240022B9
:1041F0000023058C4FF6EF7635400584028C8388CA
:10420000048B48F6FF752C400D884FF6FF7606EAC2
:1042100005252C434FF6DF752A400D8906EA051562
:104220002A434D8806EA05152A43CD8805878C4D1B
:10423000A84202D08B4DA8421DD14FF67F752A406F
:104240004D894FF6FF7606EA05152A434FF6BF75EE
:104250002A408D8806EA05152A4347F6FF352B408C
:1042600047F2FF752B408D8906EA85052B43CD89E2
:1042700006EA85052B4383800483028470BD70B5F4
:10428000002400220023058C4FF6FF66354005848C
:10429000028C8388848B4FF68F752C400D882C43BD
:1042A0004FF6FF552A400D894FF6FF7606EA0525A1
:1042B0002A434D8806EA05252A43CD888587684D1F
:1042C000A84202D0674DA8421DD14FF2FF752A4087
:1042D0004D894FF6FF7606EA05252A434FF6FF354E
:1042E0002A408D8806EA05252A4346F6FF752B40AD
:1042F00045F6FF752B408D8906EA05152B43CD89C0
:1043000006EA05152B4383808483028470BD70B553
:10431000002400220023058C4EF6FF7635400584EC
:10432000028C8388848B48F6FF752C400D884FF6ED
:10433000FF7606EA05252C434DF6FF752A400D89C8
:1043400006EA05352A434D8806EA05352A43CD8815
:10435000A0F84050424DA84202D0424DA84207D199
:10436000C3F30D038D894FF6FF7606EA85152B43BF
:1043700083808483028470BD828B4FF2FF331A40A6
:104380008283828B4FF6FF7303EA01231A438283F1
:104390007047F0B50C461546002100220026078C18
:1043A0004EF6FF7C07EA0C070784818B028C4FF6E0
:1043B000FF7707EA043640F6FF4739404FF6FF77AC
:1043C00007EA05274FF6FF7C0CEA033C47EA0C0797
:1043D00039434DF6FF773A4046F480573A4381839C
:1043E0000284F0BD828B4FF6F3731A408283828B76
:1043F0000A4382837047F0B50C461546002100221F
:104400000026078C4FF6FF6C07EA0C070784818BA8
:10441000028C4FF6FF7707EA04264FF60C773940F7
:104420004FF6FF7707EA03172F4339434FF6FF573D
:104430003A4046F480773A4381830284F0BD028B90
:104440004FF2FF331A400283028B4FF6FF7303EAE9
:1044500001231A43028370470010004000FCFFBF95
:10446000002C014000340140F0B50C4615460021F7
:1044700000220026078C4FF6EF7C07EA0C07078422
:10448000018B028C4FF6FF7707EA041640F6FF47D0
:1044900039404FF6FF7707EA033739434FF6FF7786
:1044A00007EA052739434FF6DF773A4046F0100711
:1044B0003A4301830284F0BD028B4FF6F3731A4036
:1044C0000283028B0A4302837047F0B50C461546FF
:1044D00000210022068C4FF6FE773E400684018BB9
:1044E000028C4FF60C7631407E1C06EA03162E43F2
:1044F00031437E1E324044F0010632430183028480
:10450000F0BD70B505460C46208850B92389A288B5
:1045100061882846FFF7D9FFE1882846FFF7CCFFDE
:1045200025E0208804280AD12389A28861882846AA
:10453000FFF79AFFE1882846FFF781FF17E0208800
:1045400008280AD12389A28861882846FFF753FFEB
:10455000E1882846FFF746FF09E02389A2886188A1
:104560002846FFF716FFE1882846FFF705FF70BDD4
:104570002DE9F04105460C4600260127608808B960
:10458000022600E00026A088012801D1022700E0D1
:1045900001272088A0B92389A28861882846FFF7CF
:1045A00094FFE1882846FFF787FF23893A46314682
:1045B0002846FFF759FFE1882846FFF740FF13E040
:1045C0002389A28861882846FFF74EFFE1882846A4
:1045D000FFF735FF23893A4631462846FFF775FF36
:1045E000E1882846FFF768FFBDE8F0810A884B881C
:1045F0001A438B881A43CB881A430B891A434B8979
:104600001A438B891A43A0F8442070474FF6FF7174
:10461000818000210180C1804180017270470021AA
:10462000018041808180C180018141818181C1817E
:104630007047002101804180012181800021C180DB
:10464000018170470021018041808180C18001810A
:1046500041818181704721B1028842F001020280CC
:1046600004E0028840F2FE331A400280704731B104
:10467000B0F8442042F40042A0F8442005E0B0F82D
:104680004420C2F30E02A0F8442070471AB1838977
:104690000B43838102E083898B438381704781824E
:1046A000704741EA0203A0F8483070471AB1838985
:1046B0000B43838102E083898B43838170470189A7
:1046C0004FF6F8721140018170470A4600210189B6
:1046D0004FF68F73194011430181704730B504467E
:1046E0000D4629462046FFF7F0FF208940F00700DD
:1046F000208130BD2DE9F04104460D4616461F4687
:10470000602D06D13B46012231462046FFF7ACFE24
:1047100005E03B46012231462046FFF7D6FE2946FA
:104720002046FFF7D2FF208940F007002081BDE836
:10473000F08170B50C4600210189C9B244EA020536
:104740004FF6FF7606EA032635432943018170BD03
:104750002DE9F04105460E4617469846002443468B
:104760003A4631462846FFF7E4FF2C894FF6F870A9
:10477000044044F007044FF68F70044044F0700486
:104780002C81BDE8F081F0B504460D4616461F4663
:104790003B46324629462046FFF7CBFF208940F4AE
:1047A00080402081F0BD0185828270470A46002149
:1047B000018840F28F331940114301807047F0B5F2
:1047C0000C4615461E460021002200230189028B5B
:1047D000038C4FF6F877394021434FF6FC473A40B7
:1047E00040F201173A434FF6DD773B404FF6FF7733
:1047F00007EA06172F433B43018102830384F0BD80
:104800000A460021018B4FF68F7319401143018333
:1048100070470A460021018B48F6FF7319404FF696
:10482000FF7303EA02231943018370470A460021FC
:10483000818B4FF68F7319401143818370470A466D
:104840000021818B48F6FF7319404FF6FF7303EA8E
:10485000022319438183704721B1028842F080020C
:10486000028004E0028840F27F331A4002807047E1
:1048700021B1828842F00402828004E082884FF6EF
:10488000FB731A408280704721B1828842F008028F
:10489000828004E082884FF6F7731A408280704766
:1048A00021B1828842F00102828004E082884FF6C2
:1048B000FE731A40828070470A460021018B4FF632
:1048C000F77319401143018370470A460021018B99
:1048D0004FF2FF7319404FF6FF7303EA02231943A7
:1048E000018370470A460021818B4FF6F773194008
:1048F0001143818370470A460021818B4FF2FF7379
:1049000019404FF6FF7303EA02231943818370476E
:104910000A460021018B4FF6FB73194011430183B6
:1049200070470A460021018B4FF6FF3319404FF6BE
:10493000FF7303EA02231943018370470A460021EB
:10494000818B4FF6FB7319401143818370470A46F0
:104950000021818B4FF6FF3319404FF6FF7303EAB6
:1049600002231943818370470A460021018B4FF6C9
:104970007F7319401143018370470A460021018B60
:10498000C1F30E014FF6FF7303EA022319430183BB
:1049900070470A460021818B4FF67F7319401143FF
:1049A000818370470A460021818BC1F30E014FF6C7
:1049B000FF7303EA02231943818370470A460021EB
:1049C000018C4FF6FD7319401143018470470A466C
:1049D0000021018C4FF6F773194011430184704791
:1049E0000A460021018C4FF6DF7319404FF6FF7322
:1049F00003EA02131943018470470A460021018C1F
:104A00004FF67F7319404FF6FF7303EA0213194301
:104A1000018470470A460021018C4FF6FF5319406C
:104A20004FF6FF7303EA02231943018470470A46D5
:104A30000021018C4FF2FF7319404FF6FF7303EA18
:104A400002231943018470470A460021018C4DF668
:104A5000FF7319404FF6FF7303EA023319430184D1
:104A6000704710B5038C01248C40A3430384038C4E
:104A700002FA01F4A4B22343038410BD10B5038CE1
:104A800004248C40A3430384038C02FA01F4A4B2EF
:104A90002343038410BD30B5038C01248C40A34311
:104AA000038409B1082918D100F1180303EB61034D
:104AB0001B684FF68F74234000F1180404EB610467
:104AC000236000F1180303EB61031B68134300F13B
:104AD000180404EB610423601FE00B1FC3F34E04B2
:104AE00000F118031B5948F6FF7423400C1FC4F350
:104AF0004E0500F1180463510B1FC3F34E0400F17F
:104B000018031B594FF6FF7404EA022423430C1FB9
:104B1000C4F34E0500F11804635130BD21B1028881
:104B200042F00202028004E0028840F2FD331A40A3
:104B30000280704721B1028842F00402028004E042
:104B4000028840F2FB331A400280704721B182880C
:104B500042F08002828004E082884FF67F731A4020
:104B600082807047028840F2F7331A400280028840
:104B70000A430280704782884FF68F731A40828002
:104B800082880A438280704702894FF6F8731A4080
:104B9000028102890A430281704702894FF67F73BE
:104BA0001A40028102890A4302817047818470475A
:104BB000818570478186704701877047818770477C
:104BC000A0F8401070470288D2B2028002880A43DF
:104BD000028070470146888E70470146088F7047F3
:104BE0000146888F70470146B1F840007047014682
:104BF000888C70470146088D704702460020138A52
:104C00000B400BB1012000E000207047CA43028234
:104C1000704730B50246002000230024158A05EABB
:104C20000103958905EA010413B10CB1012000E0EC
:104C3000002030BDCA4302827047000010B5012138
:104C40004807FFF7DAF900214FF00050FFF7D5F9D8
:104C500010BD30B5002200234D4C226840F6FE7492
:104C60008440A243D1E900452C438D682C43CD6894
:104C700044EA050303FA00F42243454C226030BDA8
:104C80000021016041608160C160704739B1404AD4
:104C90001268012383401A433D4B1A6006E03C4AE8
:104CA0001268012383409A43394B1A60704741B11F
:104CB000374A12684FF4805383401A43344B1A60CA
:104CC00007E0334A12684FF4805383409A43304BD5
:104CD0001A60704710B551B12D4A121D12680409AF
:104CE0000123A3401A432A4B1B1D1A6009E0284ADE
:104CF000121D126804090123A3409A43244B1B1D73
:104D00001A6010BD40B12249091D096841F0030134
:104D10001F4A121D116007E01D49091D096821F095
:104D200003011B4A121D1160704710B53AB1184BB0
:104D30001B6801FA00F42343154C236006E0144B72
:104D40001B6801FA00F4A343114C236010BD114A03
:104D50000244C2F8081470470E4A0244C2F8141400
:104D6000704710B50023082802D142EA012301E070
:104D700042EA0143074C0444C4F8203410BD014604
:104D8000044A02EB9100D0F82C0480B27047000076
:104D90000074004000700040016821F001010160D2
:104DA0000021016041608160C160874A811A9042A0
:104DB0005BD012DC854AA0EB020190423AD007DCBE
:104DC00083490144D9B1142922D028297AD128E075
:104DD000142938D0282975D13EE0B1F56C7F5BD01D
:104DE00006DCB1F5627F49D0B1F5677F6AD14CE04E
:104DF000B1F5717F57D0B1F5767F63D15BE0734930
:104E00004439496841F00F01704A443A51605AE010
:104E10006E494439496841F0F0016C4A443A5160A6
:104E200051E06A494439496841F47061674A443A3B
:104E3000516048E065494439496841F47041634A2A
:104E4000443A51603FE061494439496841F4702176
:104E50005E4A443A516036E05C494439496841F45D
:104E600070015A4A443A51602DE058494439496822
:104E700041F07061554A443A516024E0554909684F
:104E800041F00F01534A11601DE05249096841F099
:104E9000F001504A116016E04E49096841F4706112
:104EA0004C4A11600FE04B49096841F47041494A8E
:104EB000116008E006E04749096841F47021454A5D
:104EC000116000E000BF00BF704710B5002202680B
:104ED00047F6F0739A430C6A8B6823430C692343AB
:104EE0004C6923438C692343CC6923434C6A234395
:104EF0008C6A23431A430260CB6843600B6883606B
:104F00004B68C36010BD0021016041608160C160D9
:104F1000016141618161C1610162416281627047E9
:104F200021B1026842F00102026003E0026822F04F
:104F30000102026070471AB103680B43036002E08C
:104F400003688B43036070470146486880B270472E
:104F500001460020002201F080531BB11D4B1B1F96
:104F60001A6802E0194B443B1A6802EA01030BB1CC
:104F7000012000E00020704700F0805111B1154978
:104F8000086002E01149443948607047014600203A
:104F9000002201F080531BB10E4B1B1F1A6802E068
:104FA0000A4B443B1A6802EA01030BB1012000E0FE
:104FB0000020704700F0805111B10649086002E0FE
:104FC0000249443948607047800002404400024072
:104FD000F8FFFDBF040402407047084880470849B5
:104FE00081F3088807480047FEE7FEE7FEE7FEE793
:104FF000FEE7FEE7FEE7FEE7FEE7FEE7D94F000823
:10500000E00F00203101000840EA01039B0703D0B4
:1050100009E008C9121F08C0042AFAD203E011F8F7
:10502000013B00F8013B521EF9D27047064C074D78
:1050300006E0E06840F0010394E807009847103468
:10504000AC42F6D3FBF778F8F05200081053000892
:1050500070B58C1810F8015B15F0070301D110F83A
:10506000013B2A1106D110F8012B03E010F8016B67
:1050700001F8016B5B1EF9D12B0705D40023521EEA
:105080000DD401F8013BFAE710F8013BCB1A921C52
:1050900003E013F8015B01F8015B521EF9D5A14250
:1050A000D8D3002070BD02E008C8121F08C1002A32
:1050B000FAD170477047002001E001C1121F002A99
:1050C000FBD1704700C8030800D0030800D80308CC
:1050D00000E0030800E8030800F0030800C1814075
:1050E00001C0804101C0804100C1814001C08041B8
:1050F00000C1814000C1814001C0804101C08041A8
:1051000000C1814000C1814001C0804100C1814097
:1051100001C0804101C0804100C1814001C0804187
:1051200000C1814000C1814001C0804100C1814077
:1051300001C0804101C0804100C1814000C1814067
:1051400001C0804101C0804100C1814001C0804157
:1051500000C1814000C1814001C0804101C0804147
:1051600000C1814000C1814001C0804100C1814037
:1051700001C0804101C0804100C1814000C1814027
:1051800001C0804101C0804100C1814001C0804117
:1051900000C1814000C1814001C0804100C1814007
:1051A00001C0804101C0804100C1814001C08041F7
:1051B00000C1814000C1814001C0804101C08041E7
:1051C00000C1814000C1814001C0804100C18140D7
:1051D00001C0804101C0804100C1814000C0C101C7
:1051E000C30302C2C60607C705C5C404CC0C0DCD57
:1051F0000FCFCE0E0ACACB0BC90908C8D81819D9C7
:105200001BDBDA1A1EDEDF1FDD1D1CDC14D4D515F6
:10521000D71716D6D21213D311D1D010F03031F1E6
:1052200033F3F23236F6F737F53534F43CFCFD3D16
:10523000FF3F3EFEFA3A3BFB39F9F83828E8E92906
:10524000EB2B2AEAEE2E2FEF2DEDEC2CE42425E5B6
:1052500027E7E62622E2E323E12120E0A06061A126
:1052600063A3A26266A6A767A56564A46CACAD6DD6
:10527000AF6F6EAEAA6A6BAB69A9A86878B8B97946
:10528000BB7B7ABABE7E7FBF7DBDBC7CB47475B576
:1052900077B7B67672B2B373B17170B05090915166
:1052A0009353529296565797559594549C5C5D9D96
:1052B0005F9F9E5E5A9A9B5B995958988848498986
:1052C0004B8B8A4A4E8E8F4F8D4D4C8C4484854536
:1052D00087474686824243834181804000A24A0438
:1052E00000A24A0400A24A040051250200A24A0476
:1052F0001053000800000020580100005050000822
:105300008C53000858010020880E0000B650000899
:1053100023803E1B8025041A0C04190C4B2C01021F
:1053200011327D224B4BC012081210120812011AC2
:1053300080022202130220124022042A01061A02CD
:1053400018191F3B80202429041A801E111A141DCD
:1053500069041A10049A0810A9141A18045A0C0C9B
:105360002904290C091210690459403210320832FC
:1053700080196E11057A040307062D010203040447
:0C5380001808060708090204069900003E
:0400000508000131BD
:00000001FF
